{
  "abi": [
    {
      "inputs": [],
      "name": "BeneficiaryCannotBid",
      "type": "error"
    },
    {
      "inputs": [],
      "name": "FlowRateTooHigh",
      "type": "error"
    },
    {
      "inputs": [],
      "name": "FlowRateTooLow",
      "type": "error"
    },
    {
      "inputs": [],
      "name": "InvalidAgreement",
      "type": "error"
    },
    {
      "inputs": [],
      "name": "InvalidRight",
      "type": "error"
    },
    {
      "inputs": [],
      "name": "InvalidToken",
      "type": "error"
    },
    {
      "inputs": [],
      "name": "IsNotPaused",
      "type": "error"
    },
    {
      "inputs": [],
      "name": "IsPaused",
      "type": "error"
    },
    {
      "inputs": [],
      "name": "SenderNotInList",
      "type": "error"
    },
    {
      "inputs": [],
      "name": "SuperAppCannotBid",
      "type": "error"
    },
    {
      "inputs": [],
      "name": "Unauthorized",
      "type": "error"
    },
    {
      "anonymous": false,
      "inputs": [
        {
          "indexed": false,
          "internalType": "uint8",
          "name": "version",
          "type": "uint8"
        }
      ],
      "name": "Initialized",
      "type": "event"
    },
    {
      "anonymous": false,
      "inputs": [
        {
          "indexed": true,
          "internalType": "address",
          "name": "sender",
          "type": "address"
        },
        {
          "indexed": false,
          "internalType": "int96",
          "name": "flowRate",
          "type": "int96"
        }
      ],
      "name": "NewInboundStream",
      "type": "event"
    },
    {
      "anonymous": false,
      "inputs": [],
      "name": "Paused",
      "type": "event"
    },
    {
      "anonymous": false,
      "inputs": [
        {
          "indexed": true,
          "internalType": "address",
          "name": "oldRenter",
          "type": "address"
        },
        {
          "indexed": true,
          "internalType": "address",
          "name": "newRenter",
          "type": "address"
        }
      ],
      "name": "RenterChanged",
      "type": "event"
    },
    {
      "anonymous": false,
      "inputs": [
        {
          "indexed": true,
          "internalType": "address",
          "name": "sender",
          "type": "address"
        }
      ],
      "name": "StreamTerminated",
      "type": "event"
    },
    {
      "anonymous": false,
      "inputs": [
        {
          "indexed": true,
          "internalType": "address",
          "name": "sender",
          "type": "address"
        },
        {
          "indexed": false,
          "internalType": "int96",
          "name": "flowRate",
          "type": "int96"
        }
      ],
      "name": "StreamUpdated",
      "type": "event"
    },
    {
      "anonymous": false,
      "inputs": [],
      "name": "Unpaused",
      "type": "event"
    },
    {
      "inputs": [],
      "name": "acceptedToken",
      "outputs": [
        {
          "internalType": "contract ISuperToken",
          "name": "",
          "type": "address"
        }
      ],
      "stateMutability": "view",
      "type": "function"
    },
    {
      "inputs": [
        {
          "internalType": "contract ISuperToken",
          "name": "_superToken",
          "type": "address"
        },
        {
          "internalType": "address",
          "name": "_agreementClass",
          "type": "address"
        },
        {
          "internalType": "bytes32",
          "name": "",
          "type": "bytes32"
        },
        {
          "internalType": "bytes",
          "name": "_agreementData",
          "type": "bytes"
        },
        {
          "internalType": "bytes",
          "name": "",
          "type": "bytes"
        },
        {
          "internalType": "bytes",
          "name": "_ctx",
          "type": "bytes"
        }
      ],
      "name": "afterAgreementCreated",
      "outputs": [
        {
          "internalType": "bytes",
          "name": "newCtx",
          "type": "bytes"
        }
      ],
      "stateMutability": "nonpayable",
      "type": "function"
    },
    {
      "inputs": [
        {
          "internalType": "contract ISuperToken",
          "name": "_superToken",
          "type": "address"
        },
        {
          "internalType": "address",
          "name": "_agreementClass",
          "type": "address"
        },
        {
          "internalType": "bytes32",
          "name": "",
          "type": "bytes32"
        },
        {
          "internalType": "bytes",
          "name": "_agreementData",
          "type": "bytes"
        },
        {
          "internalType": "bytes",
          "name": "",
          "type": "bytes"
        },
        {
          "internalType": "bytes",
          "name": "_ctx",
          "type": "bytes"
        }
      ],
      "name": "afterAgreementTerminated",
      "outputs": [
        {
          "internalType": "bytes",
          "name": "newCtx",
          "type": "bytes"
        }
      ],
      "stateMutability": "nonpayable",
      "type": "function"
    },
    {
      "inputs": [
        {
          "internalType": "contract ISuperToken",
          "name": "_superToken",
          "type": "address"
        },
        {
          "internalType": "address",
          "name": "_agreementClass",
          "type": "address"
        },
        {
          "internalType": "bytes32",
          "name": "",
          "type": "bytes32"
        },
        {
          "internalType": "bytes",
          "name": "_agreementData",
          "type": "bytes"
        },
        {
          "internalType": "bytes",
          "name": "",
          "type": "bytes"
        },
        {
          "internalType": "bytes",
          "name": "_ctx",
          "type": "bytes"
        }
      ],
      "name": "afterAgreementUpdated",
      "outputs": [
        {
          "internalType": "bytes",
          "name": "newCtx",
          "type": "bytes"
        }
      ],
      "stateMutability": "nonpayable",
      "type": "function"
    },
    {
      "inputs": [
        {
          "internalType": "contract ISuperToken",
          "name": "",
          "type": "address"
        },
        {
          "internalType": "address",
          "name": "",
          "type": "address"
        },
        {
          "internalType": "bytes32",
          "name": "",
          "type": "bytes32"
        },
        {
          "internalType": "bytes",
          "name": "",
          "type": "bytes"
        },
        {
          "internalType": "bytes",
          "name": "",
          "type": "bytes"
        }
      ],
      "name": "beforeAgreementCreated",
      "outputs": [
        {
          "internalType": "bytes",
          "name": "",
          "type": "bytes"
        }
      ],
      "stateMutability": "view",
      "type": "function"
    },
    {
      "inputs": [
        {
          "internalType": "contract ISuperToken",
          "name": "",
          "type": "address"
        },
        {
          "internalType": "address",
          "name": "",
          "type": "address"
        },
        {
          "internalType": "bytes32",
          "name": "",
          "type": "bytes32"
        },
        {
          "internalType": "bytes",
          "name": "",
          "type": "bytes"
        },
        {
          "internalType": "bytes",
          "name": "",
          "type": "bytes"
        }
      ],
      "name": "beforeAgreementTerminated",
      "outputs": [
        {
          "internalType": "bytes",
          "name": "",
          "type": "bytes"
        }
      ],
      "stateMutability": "view",
      "type": "function"
    },
    {
      "inputs": [
        {
          "internalType": "contract ISuperToken",
          "name": "",
          "type": "address"
        },
        {
          "internalType": "address",
          "name": "",
          "type": "address"
        },
        {
          "internalType": "bytes32",
          "name": "",
          "type": "bytes32"
        },
        {
          "internalType": "bytes",
          "name": "",
          "type": "bytes"
        },
        {
          "internalType": "bytes",
          "name": "",
          "type": "bytes"
        }
      ],
      "name": "beforeAgreementUpdated",
      "outputs": [
        {
          "internalType": "bytes",
          "name": "",
          "type": "bytes"
        }
      ],
      "stateMutability": "view",
      "type": "function"
    },
    {
      "inputs": [],
      "name": "beneficiary",
      "outputs": [
        {
          "internalType": "address",
          "name": "",
          "type": "address"
        }
      ],
      "stateMutability": "view",
      "type": "function"
    },
    {
      "inputs": [],
      "name": "cfa",
      "outputs": [
        {
          "internalType": "contract IConstantFlowAgreementV1",
          "name": "",
          "type": "address"
        }
      ],
      "stateMutability": "view",
      "type": "function"
    },
    {
      "inputs": [],
      "name": "controllerObserver",
      "outputs": [
        {
          "internalType": "contract IRentalAuctionControllerObserver",
          "name": "",
          "type": "address"
        }
      ],
      "stateMutability": "view",
      "type": "function"
    },
    {
      "inputs": [],
      "name": "currentRenter",
      "outputs": [
        {
          "internalType": "address",
          "name": "",
          "type": "address"
        }
      ],
      "stateMutability": "view",
      "type": "function"
    },
    {
      "inputs": [],
      "name": "host",
      "outputs": [
        {
          "internalType": "contract ISuperfluid",
          "name": "",
          "type": "address"
        }
      ],
      "stateMutability": "view",
      "type": "function"
    },
    {
      "inputs": [
        {
          "internalType": "contract ISuperToken",
          "name": "_acceptedToken",
          "type": "address"
        },
        {
          "internalType": "contract ISuperfluid",
          "name": "_host",
          "type": "address"
        },
        {
          "internalType": "contract IConstantFlowAgreementV1",
          "name": "_cfa",
          "type": "address"
        },
        {
          "internalType": "contract IRentalAuctionControllerObserver",
          "name": "_controllerObserver",
          "type": "address"
        },
        {
          "internalType": "address",
          "name": "_beneficiary",
          "type": "address"
        },
        {
          "internalType": "uint96",
          "name": "_minimumBidFactorWad",
          "type": "uint96"
        },
        {
          "internalType": "int96",
          "name": "_reserveRate",
          "type": "int96"
        }
      ],
      "name": "initialize",
      "outputs": [],
      "stateMutability": "nonpayable",
      "type": "function"
    },
    {
      "inputs": [
        {
          "internalType": "int96",
          "name": "upper",
          "type": "int96"
        },
        {
          "internalType": "int96",
          "name": "lower",
          "type": "int96"
        }
      ],
      "name": "isBidHigher",
      "outputs": [
        {
          "internalType": "bool",
          "name": "",
          "type": "bool"
        }
      ],
      "stateMutability": "view",
      "type": "function"
    },
    {
      "inputs": [],
      "name": "isJailed",
      "outputs": [
        {
          "internalType": "bool",
          "name": "",
          "type": "bool"
        }
      ],
      "stateMutability": "view",
      "type": "function"
    },
    {
      "inputs": [],
      "name": "minimumBidFactorWad",
      "outputs": [
        {
          "internalType": "uint96",
          "name": "",
          "type": "uint96"
        }
      ],
      "stateMutability": "view",
      "type": "function"
    },
    {
      "inputs": [],
      "name": "pause",
      "outputs": [],
      "stateMutability": "nonpayable",
      "type": "function"
    },
    {
      "inputs": [],
      "name": "paused",
      "outputs": [
        {
          "internalType": "bool",
          "name": "",
          "type": "bool"
        }
      ],
      "stateMutability": "view",
      "type": "function"
    },
    {
      "inputs": [],
      "name": "reserveRate",
      "outputs": [
        {
          "internalType": "int96",
          "name": "",
          "type": "int96"
        }
      ],
      "stateMutability": "view",
      "type": "function"
    },
    {
      "inputs": [
        {
          "internalType": "address",
          "name": "",
          "type": "address"
        }
      ],
      "name": "senderInfo",
      "outputs": [
        {
          "internalType": "int96",
          "name": "flowRate",
          "type": "int96"
        },
        {
          "internalType": "address",
          "name": "left",
          "type": "address"
        },
        {
          "internalType": "address",
          "name": "right",
          "type": "address"
        },
        {
          "internalType": "address",
          "name": "sender",
          "type": "address"
        }
      ],
      "stateMutability": "view",
      "type": "function"
    },
    {
      "inputs": [],
      "name": "topSender",
      "outputs": [
        {
          "internalType": "address",
          "name": "",
          "type": "address"
        }
      ],
      "stateMutability": "view",
      "type": "function"
    },
    {
      "inputs": [],
      "name": "unpause",
      "outputs": [],
      "stateMutability": "nonpayable",
      "type": "function"
    }
  ],
  "bytecode": {
    "object": "0x608060405234801561001057600080fd5b50612b0c806100206000396000f3fe608060405234801561001057600080fd5b50600436106101425760003560e01c806358d7bf80116100b8578063a6dd4c661161007c578063a6dd4c66146102cc578063c62fd9241461034a578063d86ed3e51461035d578063deccb16614610370578063f437bc5914610383578063f8a7689e1461039657600080fd5b806358d7bf80146102635780635c975abb1461028a5780635f9e7d771461029e5780638456cb59146102b1578063884d1f40146102b957600080fd5b80633047d5fb1161010a5780633047d5fb146101d557806330d9c9151461020757806338af3eed1461021a5780633f4ba83a1461022d578063451c3d801461023757806353c11f991461025057600080fd5b8063040e2c20146101475780631054df8c1461017757806321e39ee81461018a578063230dbd29146101ad578063242f17a9146101cd575b600080fd5b60035461015a906001600160a01b031681565b6040516001600160a01b0390911681526020015b60405180910390f35b60025461015a906001600160a01b031681565b61019d6101983660046122c0565b61039e565b604051901515815260200161016e565b6101c06101bb366004612356565b6103e9565b60405161016e9190612470565b61015a6107fb565b6003546101ef90600160a01b90046001600160601b031681565b6040516001600160601b03909116815260200161016e565b6101c0610215366004612483565b610827565b60045461015a906001600160a01b031681565b61023561088f565b005b60005461015a906201000090046001600160a01b031681565b6101c061025e366004612356565b6109df565b60045461027790600160a01b9004600b0b81565b604051600b9190910b815260200161016e565b60065461019d90600160a01b900460ff1681565b6101c06102ac366004612483565b610e3d565b610235610ea4565b6101c06102c7366004612483565b611001565b6103166102da366004612521565b600560205260009081526040902080546001820154600290920154600b82900b926001600160a01b03600160601b909304831692908116911684565b60408051600b9590950b85526001600160a01b0393841660208601529183169184019190915216606082015260800161016e565b61023561035836600461253e565b611064565b6101c061036b366004612356565b611262565b60065461015a906001600160a01b031681565b60015461015a906001600160a01b031681565b61019d6116a6565b600354600090670de0b6b3a7640000906103cc906001600160601b03600160a01b90910481169085166125e0565b6103d6919061260d565b836001600160601b031611905092915050565b6000546060908a908a906001600160a01b038084166201000090920416146104245760405163c1ab6dc160e01b815260040160405180910390fd5b6002546001600160a01b0382811691161461045257604051637f0ed44d60e11b815260040160405180910390fd5b6001546001600160a01b0316331461047c576040516282b42960e81b815260040160405180910390fd5b600654600160a01b900460ff16156104a757604051631309a56360e01b815260040160405180910390fd5b84848080601f01602080910402602001604051908101604052809392919081815260200183838082843760009201829052509396506104ec92505050898b018b61262f565b50600080549192509061050f906201000090046001600160a01b03168330611713565b600454909150600160a01b9004600b90810b9082900b1215610544576040516353a24db360e11b815260040160405180910390fd5b600154604051631fb6491d60e11b81526000916001600160a01b031690633f6c923a90610577908b908b9060040161265d565b600060405180830381865afa158015610594573d6000803e3d6000fd5b505050506040513d6000823e601f3d908101601f191682016040526105bc919081019061278b565b60a001518060200190518101906105d39190612891565b6006549091506001600160a01b03166105ed8385846117ab565b61060a5760405163bbc8aeff60e01b815260040160405180910390fd5b6006546001600160a01b03908116908216811461073f576001600160a01b038083166000908152600560205260408120549054610655926201000090910416908490600b0b8b6118ff565b600054909850610676906201000090046001600160a01b031630838b611a28565b6001600160a01b038083166000908152600560205260408120546004549154939b50600b0b926106b2926201000090910481169116838c611ab3565b600354604051631ff0045b60e01b81526001600160a01b038581166004830152929b50911690631ff0045b90602401600060405180830381600087803b1580156106fb57600080fd5b505af115801561070f573d6000803e3d6000fd5b50506040516001600160a01b03808616935086169150600080516020612ab783398151915290600090a3506107a4565b816001600160a01b0316856001600160a01b0316036107835760045460005461077c916001600160a01b036201000090920482169116868b611ab3565b97506107a4565b6000546107a1906201000090046001600160a01b031686868b611ab3565b97505b604051600b85900b81526001600160a01b038616907ff107c9a55c1c8c5b73dd9e8516d71363e40fa2cd96b1063039020d13bac996b6906020015b60405180910390a2505050505050509998505050505050505050565b600654600090600160a01b900460ff1661081f57506006546001600160a01b031690565b60005b905090565b60405162461bcd60e51b815260206004820152602f60248201527f556e737570706f727465642063616c6c6261636b202d204265666f726520416760448201526e1c99595b595b9d0810dc99585d1959608a1b60648201526060906084015b60405180910390fd5b6003546001600160a01b031633146108b9576040516282b42960e81b815260040160405180910390fd5b600654600160a01b900460ff166108e35760405163bc871ce560e01b815260040160405180910390fd5b6006805460ff60a01b1981169091556001600160a01b031680156109b35760005461091e906201000090046001600160a01b03163083611b00565b506001600160a01b038082166000908152600560205260408120549054610952926201000090910416908390600b0b611c34565b50600354604051631ff0045b60e01b81526001600160a01b03838116600483015290911690631ff0045b90602401600060405180830381600087803b15801561099a57600080fd5b505af11580156109ae573d6000803e3d6000fd5b505050505b6040517fa45f47fdea8a1efdd9029a5691c7f759c32b7c698632b563573e155625d1693390600090a150565b6001546060906001600160a01b03163314610a0c576040516282b42960e81b815260040160405180910390fd5b6000546001600160a01b038b81166201000090920416141580610a3d57506002546001600160a01b038a8116911614155b15610a815782828080601f016020809104026020016040519081016040528093929190818152602001838380828437600092019190915250929350610e3092505050565b82828080601f0160208091040260200160405190810160405280939291908181526020018383808284376000920182905250939450839250610ac8915050888a018a61262f565b90925090506001600160a01b03821630148015610af257506004546001600160a01b038281169116145b15610b3b576004546006546001600160a01b039081166000908152600560205260408120549054610b3293620100009091048316921690600b0b866118ff565b92505050610e30565b306001600160a01b03831603610b7f576001600160a01b038082166000908152600560205260408120549054610b32926201000090910416908390600b0b866118ff565b6006546001600160a01b0316610b9483611cbf565b610ba057505050610e30565b6006546001600160a01b031680610c9657600654600160a01b900460ff1615610be857600054610be1906201000090046001600160a01b0316308488611a28565b9450610c6d565b600454600054610c0d916001600160a01b036201000090920482169130911688611a28565b600354604051631ff0045b60e01b8152600060048201529196506001600160a01b031690631ff0045b90602401600060405180830381600087803b158015610c5457600080fd5b505af1158015610c68573d6000803e3d6000fd5b505050505b6040516000906001600160a01b03841690600080516020612ab7833981519152908390a3610df7565b806001600160a01b0316826001600160a01b031614610dd657600654600160a01b900460ff1615610ce657600054610cdf906201000090046001600160a01b0316308488611a28565b9450610da3565b600054610d04906201000090046001600160a01b0316308388611a28565b6004546001600160a01b038381166000908152600560205260408120549054939850610d41936201000090048216929190911690600b0b88611ab3565b600354604051631ff0045b60e01b81526001600160a01b038481166004830152929750911690631ff0045b90602401600060405180830381600087803b158015610d8a57600080fd5b505af1158015610d9e573d6000803e3d6000fd5b505050505b806001600160a01b0316826001600160a01b0316600080516020612ab783398151915260405160405180910390a3610df7565b600054610df4906201000090046001600160a01b0316308688611a28565b94505b6040516001600160a01b038516907fbfac3114239697072633122ba53cf5159c7204bab6e8e4a4cab49d766261b1a390600090a2505050505b9998505050505050505050565b60405162461bcd60e51b815260206004820152603360248201527f556e737570706f727465642063616c6c6261636b202d20204265666f7265204160448201527219dc99595b595b9d0815195c9b5a5b985d1959606a1b6064820152606090608401610886565b6003546001600160a01b03163314610ece576040516282b42960e81b815260040160405180910390fd5b600654600160a01b900460ff1615610ef957604051631309a56360e01b815260040160405180910390fd5b6006805460ff60a01b198116600160a01b179091556001600160a01b03168015610fd557600454600054610f41916001600160a01b0362010000909204821691309116611b00565b506001600160a01b038082166000908152600560205260408120549054610f75926201000090910416908390600b0b611c34565b50600354604051631ff0045b60e01b8152600060048201526001600160a01b0390911690631ff0045b90602401600060405180830381600087803b158015610fbc57600080fd5b505af1158015610fd0573d6000803e3d6000fd5b505050505b6040517f9e87fac88ff661f02d44f95383c817fece4bce600a3dab7a54406878b965e75290600090a150565b60405162461bcd60e51b815260206004820152602f60248201527f556e737570706f727465642063616c6c6261636b202d204265666f726520416760448201526e1c99595b595b9d081d5c19185d1959608a1b6064820152606090608401610886565b600054610100900460ff16158080156110845750600054600160ff909116105b8061109e5750303b15801561109e575060005460ff166001145b6111015760405162461bcd60e51b815260206004820152602e60248201527f496e697469616c697a61626c653a20636f6e747261637420697320616c72656160448201526d191e481a5b9a5d1a585b1a5e995960921b6064820152608401610886565b6000805460ff191660011790558015611124576000805461ff0019166101001790555b6001600160a01b03871661113757600080fd5b6001600160a01b03881661114a57600080fd5b6001600160a01b03841661115d57600080fd5b670de0b6b3a7640000836001600160601b0316101561117b57600080fd5b600082600b0b121561118c57600080fd5b6000805462010000600160b01b031916620100006001600160a01b038b81169190910291909117909155600180546001600160a01b03199081168a84161790915560028054909116888316179055858116600160a01b6001600160601b038681168202929092176003559186169084168202176004556006805460ff60a01b191690911790558015611258576000805461ff0019169055604051600181527f7f26b83ff96e1f2b6a682f133852f6798a09c465da95921460cefb38474024989060200160405180910390a15b5050505050505050565b6000546060908a908a906001600160a01b0380841662010000909204161461129d5760405163c1ab6dc160e01b815260040160405180910390fd5b6002546001600160a01b038281169116146112cb57604051637f0ed44d60e11b815260040160405180910390fd5b6001546001600160a01b031633146112f5576040516282b42960e81b815260040160405180910390fd5b600654600160a01b900460ff161561132057604051631309a56360e01b815260040160405180910390fd5b84848080601f016020809104026020016040519081016040528093929190818152602001838380828437600092018290525093965061136592505050898b018b61262f565b506004549091506001600160a01b0390811690821681900361139a576040516322fe227560e11b815260040160405180910390fd5b600154604051631e51d6a760e11b81526001600160a01b03848116600483015290911690633ca3ad4e90602401602060405180830381865afa1580156113e4573d6000803e3d6000fd5b505050506040513d601f19601f8201168201806040525081019061140891906128ae565b1561142657604051635f5a76ff60e01b815260040160405180910390fd5b60008054611444906201000090046001600160a01b03168430611713565b600454909150600160a01b9004600b90810b9082900b1215611479576040516353a24db360e11b815260040160405180910390fd5b600154604051631fb6491d60e11b81526000916001600160a01b031690633f6c923a906114ac908c908c9060040161265d565b600060405180830381865afa1580156114c9573d6000803e3d6000fd5b505050506040513d6000823e601f3d908101601f191682016040526114f1919081019061278b565b60a001518060200190518101906115089190612891565b6006549091506001600160a01b0316611522838684611dd4565b6001600160a01b038216611646576001600160a01b0381166115635760005461155c906201000090046001600160a01b031685858b6118ff565b97506115bc565b600054611581906201000090046001600160a01b031685858b611ab3565b6001600160a01b038083166000908152600560205260408120549054929a506115b992620100009004909116908390600b0b8b6118ff565b97505b600354604051631ff0045b60e01b81526001600160a01b03878116600483015290911690631ff0045b90602401600060405180830381600087803b15801561160357600080fd5b505af1158015611617573d6000803e3d6000fd5b50506040516001600160a01b03808916935084169150600080516020612ab783398151915290600090a3611667565b600054611664906201000090046001600160a01b031686858b6118ff565b97505b604051600b84900b81526001600160a01b038616907f30949e21a78dbc0dc28487c7b161e2dae458d14cd0035ce167c50c64b97fe8e6906020016107df565b600154604051636b4f333560e01b81523060048201526000916001600160a01b031690636b4f333590602401602060405180830381865afa1580156116ef573d6000803e3d6000fd5b505050506040513d601f19601f8201168201806040525081019061082291906128ae565b60008061171f85611f82565b604051631cd43d1160e31b81526001600160a01b03888116600483015287811660248301528681166044830152919350908316915063e6a1e88890606401608060405180830381865afa15801561177a573d6000803e3d6000fd5b505050506040513d601f19601f8201168201806040525081019061179e91906128d0565b5090979650505050505050565b6001600160a01b03821660009081526005602052604081208054600b0b82036117d85760009150506118f8565b805460018201546001600160a01b03600160601b909204821691908116908516036118dc576001600160a01b0381161580159061184157508154600160601b90046001600160a01b031660009081526005602052604090205461183f908790600b0b61039e565b155b1561185f576040516353a24db360e11b815260040160405180910390fd5b6001600160a01b0384161580159061189b575060018201546001600160a01b0316600090815260056020526040902054600b90810b9087900b12155b156118b957604051636de0c2b160e11b815260040160405180910390fd5b81546bffffffffffffffffffffffff19166001600160601b0387161782556118f1565b6118e585611cbf565b506118f1868686611dd4565b6001925050505b9392505050565b606060008061190d87612103565b91509150816001600160a01b0316634329d29382836001600160a01b03166362fc305e8b8b8b60006001600160401b0381111561194c5761194c61268c565b6040519080825280601f01601f191660200182016040528015611976576020820181803683370190505b5060405160240161198a949392919061290e565b60408051808303601f1901815291815260208201805160e094851b6001600160e01b03909116179052519185901b6001600160e01b03191682526119d5939250908990600401612944565b6000604051808303816000875af11580156119f4573d6000803e3d6000fd5b505050506040513d6000823e601f3d908101601f19168201604052611a1c9190810190612997565b50979650505050505050565b6060600080611a3687612103565b91509150816001600160a01b0316634329d29382836001600160a01b031663b4b333c68b8b8b60006001600160401b03811115611a7557611a7561268c565b6040519080825280601f01601f191660200182016040528015611a9f576020820181803683370190505b5060405160240161198a94939291906129fa565b6060600080611ac187612103565b91509150816001600160a01b0316634329d29382836001600160a01b03166350209a628b8b8b60006001600160401b0381111561194c5761194c61268c565b6000806000611b0e86612103565b91509150816001600160a01b03166339255d5b82836001600160a01b031663b4b333c68a8a8a60006001600160401b03811115611b4d57611b4d61268c565b6040519080825280601f01601f191660200182016040528015611b77576020820181803683370190505b50604051602401611b8b94939291906129fa565b60408051601f19818403018152918152602080830180516001600160e01b031660e095861b179052815160008152908101918290529286901b6001600160e01b0319169052611be09392509060248101612a2e565b6000604051808303816000875af1158015611bff573d6000803e3d6000fd5b505050506040513d6000823e601f3d908101601f19168201604052611c279190810190612a64565b5060019695505050505050565b6000806000611c4286612103565b91509150816001600160a01b03166339255d5b82836001600160a01b03166362fc305e8a8a8a60006001600160401b03811115611c8157611c8161268c565b6040519080825280601f01601f191660200182016040528015611cab576020820181803683370190505b50604051602401611b8b949392919061290e565b6001600160a01b03811660009081526005602052604081208054600b0b8203611ceb5750600092915050565b8054600160601b90046001600160a01b031615611d44576001808201548254600160601b90046001600160a01b03908116600090815260056020526040902090920180546001600160a01b031916929091169190911790555b60018101546001600160a01b031615611d9957805460018201546001600160a01b03908116600090815260056020526040902080546001600160601b0316600160601b93849004909216909202179055611dc3565b805460068054600160601b9092046001600160a01b03166001600160a01b03199092169190911790555b600080825560019182015592915050565b60006001600160a01b038216611e095750600680546001600160a01b038481166001600160a01b031983161790925516611ea4565b6001600160a01b038216600090815260056020526040812080549091600b9190910b9003611e4a576040516367713bc560e11b815260040160405180910390fd5b80546001600160a01b03600160601b8204169250600b90810b9086900b12611e8557604051636de0c2b160e11b815260040160405180910390fd5b80546001600160601b0316600160601b6001600160a01b038616021790555b6001600160a01b03811615611f15576001600160a01b03811660009081526005602052604090208054611edb908690600b0b61039e565b611ef8576040516353a24db360e11b815260040160405180910390fd5b60010180546001600160a01b0319166001600160a01b0385161790555b6001600160a01b0392831660008181526005602052604090206001810180549486166001600160a01b03199586161790556002810180549094169091179092556001600160601b039390931692909116600160601b026bffffffffffffffffffffffff1916919091179055565b7f65599bf746e17a00ea62e3610586992d88101b78eec3cf380706621fb97ea837547fb969d79d88acd02d04ed7ee7d43b949e7daf093d363abcfbbc43dfdfd1ce969a546001600160a01b0381166120d2576001600160a01b03821661204757826001600160a01b03166320bc44256040518163ffffffff1660e01b8152600401602060405180830381865afa158015612020573d6000803e3d6000fd5b505050506040513d601f19601f820116820180604052508101906120449190612891565b91505b604051635b69006f60e11b81527fa9214cc96615e0085d3bb077758db69497dc2dce3b2b1e97bc93c3d18d83efd360048201526001600160a01b0383169063b6d200de90602401602060405180830381865afa1580156120ab573d6000803e3d6000fd5b505050506040513d601f19601f820116820180604052508101906120cf9190612891565b90505b6001600160a01b0382166120e8576120e8612aa0565b6001600160a01b0381166120fe576120fe612aa0565b915091565b7f65599bf746e17a00ea62e3610586992d88101b78eec3cf380706621fb97ea837547fb969d79d88acd02d04ed7ee7d43b949e7daf093d363abcfbbc43dfdfd1ce969a546001600160a01b0381166120d2576001600160a01b0382166121c857826001600160a01b03166320bc44256040518163ffffffff1660e01b8152600401602060405180830381865afa1580156121a1573d6000803e3d6000fd5b505050506040513d601f19601f820116820180604052508101906121c59190612891565b91505b604051635b69006f60e11b81527fa9214cc96615e0085d3bb077758db69497dc2dce3b2b1e97bc93c3d18d83efd360048201526001600160a01b0383169063b6d200de90602401602060405180830381865afa15801561222c573d6000803e3d6000fd5b505050506040513d601f19601f820116820180604052508101906122509190612891565b9050817f65599bf746e17a00ea62e3610586992d88101b78eec3cf380706621fb97ea83755807fb969d79d88acd02d04ed7ee7d43b949e7daf093d363abcfbbc43dfdfd1ce969a556001600160a01b0382166120e8576120e8612aa0565b80600b0b81146122bd57600080fd5b50565b600080604083850312156122d357600080fd5b82356122de816122ae565b915060208301356122ee816122ae565b809150509250929050565b6001600160a01b03811681146122bd57600080fd5b60008083601f84011261232057600080fd5b5081356001600160401b0381111561233757600080fd5b60208301915083602082850101111561234f57600080fd5b9250929050565b600080600080600080600080600060c08a8c03121561237457600080fd5b893561237f816122f9565b985060208a013561238f816122f9565b975060408a0135965060608a01356001600160401b03808211156123b257600080fd5b6123be8d838e0161230e565b909850965060808c01359150808211156123d757600080fd5b6123e38d838e0161230e565b909650945060a08c01359150808211156123fc57600080fd5b506124098c828d0161230e565b915080935050809150509295985092959850929598565b60005b8381101561243b578181015183820152602001612423565b50506000910152565b6000815180845261245c816020860160208601612420565b601f01601f19169290920160200192915050565b6020815260006118f86020830184612444565b600080600080600080600060a0888a03121561249e57600080fd5b87356124a9816122f9565b965060208801356124b9816122f9565b95506040880135945060608801356001600160401b03808211156124dc57600080fd5b6124e88b838c0161230e565b909650945060808a013591508082111561250157600080fd5b5061250e8a828b0161230e565b989b979a50959850939692959293505050565b60006020828403121561253357600080fd5b81356118f8816122f9565b600080600080600080600060e0888a03121561255957600080fd5b8735612564816122f9565b96506020880135612574816122f9565b95506040880135612584816122f9565b94506060880135612594816122f9565b935060808801356125a4816122f9565b925060a08801356001600160601b03811681146125c057600080fd5b915060c08801356125d0816122ae565b8091505092959891949750929550565b600081600019048311821515161561260857634e487b7160e01b600052601160045260246000fd5b500290565b60008261262a57634e487b7160e01b600052601260045260246000fd5b500490565b6000806040838503121561264257600080fd5b823561264d816122f9565b915060208301356122ee816122f9565b60208152816020820152818360408301376000818301604090810191909152601f909201601f19160101919050565b634e487b7160e01b600052604160045260246000fd5b60405161016081016001600160401b03811182821017156126c5576126c561268c565b60405290565b805160ff811681146126dc57600080fd5b919050565b80516126dc816122f9565b80516001600160e01b0319811681146126dc57600080fd5b600082601f83011261271557600080fd5b81516001600160401b038082111561272f5761272f61268c565b604051601f8301601f19908116603f011681019082821181831017156127575761275761268c565b8160405283815286602085880101111561277057600080fd5b612781846020830160208901612420565b9695505050505050565b60006020828403121561279d57600080fd5b81516001600160401b03808211156127b457600080fd5b9083019061016082860312156127c957600080fd5b6127d16126a2565b6127da836126cb565b81526127e8602084016126cb565b602082015260408301516040820152612803606084016126e1565b6060820152612814608084016126ec565b608082015260a08301518281111561282b57600080fd5b61283787828601612704565b60a08301525060c083015160c082015260e083015160e082015261010091508183015182820152610120915061286e8284016126e1565b8282015261014091506128828284016126e1565b91810191909152949350505050565b6000602082840312156128a357600080fd5b81516118f8816122f9565b6000602082840312156128c057600080fd5b815180151581146118f857600080fd5b600080600080608085870312156128e657600080fd5b8451935060208501516128f8816122ae565b6040860151606090960151949790965092505050565b6001600160a01b03858116825284166020820152600b83900b604082015260806060820181905260009061278190830184612444565b6001600160a01b038416815260806020820181905260009061296890830185612444565b8281038060408501526002825261060f60f31b6020830152604081016060850152506127816040820185612444565b600080604083850312156129aa57600080fd5b82516001600160401b03808211156129c157600080fd5b6129cd86838701612704565b935060208501519150808211156129e357600080fd5b506129f085828601612704565b9150509250929050565b6001600160a01b03858116825284811660208301528316604082015260806060820181905260009061278190830184612444565b6001600160a01b0384168152606060208201819052600090612a5290830185612444565b82810360408401526127818185612444565b600060208284031215612a7657600080fd5b81516001600160401b03811115612a8c57600080fd5b612a9884828501612704565b949350505050565b634e487b7160e01b600052600160045260246000fdfe534932c0ecc45789d37732d7a4b2d357b687ce7f35a7805bfb76df267e3dd66fa2646970667358221220834460c6ed55fd79cb8a9365c166212e195d94f2e24f85a2390c56ab515ccb4b64736f6c63430008100033",
    "linkReferences": {}
  },
  "methodIdentifiers": {
    "acceptedToken()": "451c3d80",
    "afterAgreementCreated(address,address,bytes32,bytes,bytes,bytes)": "d86ed3e5",
    "afterAgreementTerminated(address,address,bytes32,bytes,bytes,bytes)": "53c11f99",
    "afterAgreementUpdated(address,address,bytes32,bytes,bytes,bytes)": "230dbd29",
    "beforeAgreementCreated(address,address,bytes32,bytes,bytes)": "30d9c915",
    "beforeAgreementTerminated(address,address,bytes32,bytes,bytes)": "5f9e7d77",
    "beforeAgreementUpdated(address,address,bytes32,bytes,bytes)": "884d1f40",
    "beneficiary()": "38af3eed",
    "cfa()": "1054df8c",
    "controllerObserver()": "040e2c20",
    "currentRenter()": "242f17a9",
    "host()": "f437bc59",
    "initialize(address,address,address,address,address,uint96,int96)": "c62fd924",
    "isBidHigher(int96,int96)": "21e39ee8",
    "isJailed()": "f8a7689e",
    "minimumBidFactorWad()": "3047d5fb",
    "pause()": "8456cb59",
    "paused()": "5c975abb",
    "reserveRate()": "58d7bf80",
    "senderInfo(address)": "a6dd4c66",
    "topSender()": "deccb166",
    "unpause()": "3f4ba83a"
  },
  "id": 113
}