{
  "abi": [
    {
      "inputs": [
        {
          "internalType": "address",
          "name": "_host",
          "type": "address"
        },
        {
          "internalType": "address",
          "name": "_cfa",
          "type": "address"
        }
      ],
      "stateMutability": "nonpayable",
      "type": "constructor"
    },
    {
      "anonymous": false,
      "inputs": [
        {
          "indexed": true,
          "internalType": "address",
          "name": "auctionAddress",
          "type": "address"
        },
        {
          "indexed": true,
          "internalType": "address",
          "name": "controllerObserverAddress",
          "type": "address"
        },
        {
          "indexed": true,
          "internalType": "address",
          "name": "controllerObserverImplementation",
          "type": "address"
        }
      ],
      "name": "ContinuousRentalAuctionDeployed",
      "type": "event"
    },
    {
      "inputs": [
        {
          "internalType": "contract ISuperToken",
          "name": "_acceptedToken",
          "type": "address"
        },
        {
          "internalType": "address",
          "name": "_controllerObserverImplementation",
          "type": "address"
        },
        {
          "internalType": "address",
          "name": "_beneficiary",
          "type": "address"
        },
        {
          "internalType": "uint96",
          "name": "_minimumBidFactorWad",
          "type": "uint96"
        },
        {
          "internalType": "int96",
          "name": "_reserveRate",
          "type": "int96"
        },
        {
          "internalType": "bytes",
          "name": "_controllerObserverExtraArgs",
          "type": "bytes"
        }
      ],
      "name": "create",
      "outputs": [
        {
          "internalType": "address",
          "name": "auctionClone",
          "type": "address"
        },
        {
          "internalType": "address",
          "name": "controllerObserverClone",
          "type": "address"
        }
      ],
      "stateMutability": "nonpayable",
      "type": "function"
    }
  ],
  "bytecode": {
    "object": "0x60e060405234801561001057600080fd5b50604051612fd7380380612fd783398101604081905261002f9161009e565b60405161003b90610075565b604051809103906000f080158015610057573d6000803e3d6000fd5b506001600160a01b0390811660805291821660a0521660c0526100d1565b6129dc806105fb83390190565b80516001600160a01b038116811461009957600080fd5b919050565b600080604083850312156100b157600080fd5b6100ba83610082565b91506100c860208401610082565b90509250929050565b60805160a05160c0516104f6610105600039600061016e01526000818160cb015261014601526000606f01526104f66000f3fe608060405234801561001057600080fd5b506004361061002b5760003560e01c8063508bea5714610030575b600080fd5b61004361003e3660046103bb565b610067565b604080516001600160a01b0393841681529290911660208301520160405180910390f35b6000806100937f00000000000000000000000000000000000000000000000000000000000000006102bc565b915061009e886102bc565b6040516379b9982960e11b81526001600160a01b03848116600483015264150000000160248301529192507f00000000000000000000000000000000000000000000000000000000000000009091169063f373305290604401600060405180830381600087803b15801561011157600080fd5b505af1158015610125573d6000803e3d6000fd5b505060405163318bf64960e21b81526001600160a01b038c811660048301527f0000000000000000000000000000000000000000000000000000000000000000811660248301527f00000000000000000000000000000000000000000000000000000000000000008116604483015284811660648301528a811660848301526bffffffffffffffffffffffff8a1660a4830152600b89900b60c48301528516925063c62fd924915060e401600060405180830381600087803b1580156101ea57600080fd5b505af11580156101fe573d6000803e3d6000fd5b505060405163cf7a1d7760e01b81526001600160a01b038416925063cf7a1d779150610234908590339089908990600401610474565b600060405180830381600087803b15801561024e57600080fd5b505af1158015610262573d6000803e3d6000fd5b50505050876001600160a01b0316816001600160a01b0316836001600160a01b03167f0750718f1dad9859b1924ddb61ff4e395f94a35cfafe5210f4121136fa8ccb2560405160405180910390a497509795505050505050565b6000763d602d80600a3d3981f3363d3d373d3d3d363d730000008260601b60e81c176000526e5af43d82803e903d91602b57fd5bf38260781b17602052603760096000f090506001600160a01b0381166103555760405162461bcd60e51b8152602060048201526016602482015275115490cc4c4d8dce8818dc99585d194819985a5b195960521b604482015260640160405180910390fd5b919050565b6001600160a01b038116811461036f57600080fd5b50565b60008083601f84011261038457600080fd5b50813567ffffffffffffffff81111561039c57600080fd5b6020830191508360208285010111156103b457600080fd5b9250929050565b600080600080600080600060c0888a0312156103d657600080fd5b87356103e18161035a565b965060208801356103f18161035a565b955060408801356104018161035a565b945060608801356bffffffffffffffffffffffff8116811461042257600080fd5b93506080880135600b81900b811461043957600080fd5b925060a088013567ffffffffffffffff81111561045557600080fd5b6104618a828b01610372565b989b979a50959850939692959293505050565b6001600160a01b0385811682528416602082015260606040820181905281018290526000828460808401376000608084840101526080601f19601f85011683010190509594505050505056fea2646970667358221220127698bfdb2d9c7cae29cb0590df294994980e7b4a89f592f0676875bc04e8b864736f6c63430008100033608060405234801561001057600080fd5b506129bc806100206000396000f3fe608060405234801561001057600080fd5b50600436106101375760003560e01c806353c11f99116100b85780638456cb591161007c5780638456cb5914610297578063884d1f401461029f578063a6dd4c66146102b2578063c62fd92414610330578063d86ed3e514610343578063f437bc591461035657600080fd5b806353c11f991461022a5780635507a9091461023d57806358d7bf80146102505780635c975abb146102705780635f9e7d771461028457600080fd5b80633047d5fb116100ff5780633047d5fb146101ca57806330d9c915146101e157806338af3eed146101f45780633f4ba83a14610207578063451c3d801461021157600080fd5b8063040e2c201461013c5780631054df8c1461016c57806321e39ee81461017f578063230dbd29146101a2578063242f17a9146101c2575b600080fd5b60035461014f906001600160a01b031681565b6040516001600160a01b0390911681526020015b60405180910390f35b60025461014f906001600160a01b031681565b61019261018d36600461218b565b610369565b6040519015158152602001610163565b6101b56101b0366004612221565b6103a8565b604051610163919061233b565b61014f6107b5565b6101d360055481565b604051908152602001610163565b6101b56101ef366004612355565b6107df565b60045461014f906001600160a01b031681565b61020f610847565b005b60005461014f906201000090046001600160a01b031681565b6101b5610238366004612221565b610938565b60075461014f906001600160a01b031681565b60085461025d90600b0b81565b604051600b9190910b8152602001610163565b60075461019290600160a01b900460ff1681565b6101b5610292366004612355565b610e27565b61020f610e8e565b6101b56102ad366004612355565b610f8d565b6102fc6102c03660046123f3565b600660205260009081526040902080546001820154600290920154600b82900b926001600160a01b03600160601b909304831692908116911684565b60408051600b9590950b85526001600160a01b03938416602086015291831691840191909152166060820152608001610163565b61020f61033e366004612410565b610ff0565b6101b5610351366004612221565b611250565b60015461014f906001600160a01b031681565b6000670de0b6b3a7640000600554836001600160601b031661038b91906124b2565b61039591906124df565b836001600160601b031611905092915050565b6000546060908a908a906001600160a01b038084166201000090920416146103e35760405163c1ab6dc160e01b815260040160405180910390fd5b6002546001600160a01b0382811691161461041157604051637f0ed44d60e11b815260040160405180910390fd5b6001546001600160a01b0316331461043b576040516282b42960e81b815260040160405180910390fd5b600754600160a01b900460ff161561046657604051631309a56360e01b815260040160405180910390fd5b84848080601f01602080910402602001604051908101604052809392919081815260200183838082843760009201829052509396506104ab92505050898b018b612501565b5060008054919250906104ce906201000090046001600160a01b03168330611625565b600854909150600b90810b9082900b12156104fc576040516353a24db360e11b815260040160405180910390fd5b600154604051631fb6491d60e11b81526000916001600160a01b031690633f6c923a9061052f908b908b9060040161252f565b600060405180830381865afa15801561054c573d6000803e3d6000fd5b505050506040513d6000823e601f3d908101601f19168201604052610574919081019061265d565b60a0015180602001905181019061058b9190612763565b6007549091506001600160a01b03166105a58385846116bd565b6007546001600160a01b038281169116146106fa576001600160a01b0380821660009081526006602052604081205490546105ee926201000090910416908390600b0b8a6117e9565b600754600054919850610616916201000090046001600160a01b03908116913091168a611912565b6007546001600160a01b039081166000908152600660205260408120546004549154939a50600b0b92610655926201000090910481169116838b61199d565b6003549098506001600160a01b0316156106cb57600354600754604051631ff0045b60e01b81526001600160a01b039182166004820152911690631ff0045b90602401600060405180830381600087803b1580156106b257600080fd5b505af11580156106c6573d6000803e3d6000fd5b505050505b6007546040516001600160a01b039182169184169060008051602061296783398151915290600090a35061075f565b806001600160a01b0316846001600160a01b03160361073e57600454600054610737916001600160a01b036201000090920482169116858a61199d565b965061075f565b60005461075c906201000090046001600160a01b031685858a61199d565b96505b604051600b84900b81526001600160a01b038516907ff107c9a55c1c8c5b73dd9e8516d71363e40fa2cd96b1063039020d13bac996b6906020015b60405180910390a25050505050509998505050505050505050565b600754600090600160a01b900460ff166107d957506007546001600160a01b031690565b50600090565b60405162461bcd60e51b815260206004820152602f60248201527f556e737570706f727465642063616c6c6261636b202d204265666f726520416760448201526e1c99595b595b9d0810dc99585d1959608a1b60648201526060906084015b60405180910390fd5b6003546001600160a01b03163314610871576040516282b42960e81b815260040160405180910390fd5b600754600160a01b900460ff1661089b5760405163bc871ce560e01b815260040160405180910390fd5b6007805460ff60a01b1981169091556001600160a01b0316801561090c576000546108d6906201000090046001600160a01b031630836119ea565b506001600160a01b03808216600090815260066020526040812054905461090a926201000090910416908390600b0b611b1e565b505b6040517fa45f47fdea8a1efdd9029a5691c7f759c32b7c698632b563573e155625d1693390600090a150565b6001546060906001600160a01b03163314610965576040516282b42960e81b815260040160405180910390fd5b6000546001600160a01b038b8116620100009092041614158061099657506002546001600160a01b038a8116911614155b156109da5782828080601f016020809104026020016040519081016040528093929190818152602001838380828437600092019190915250929350610e1a92505050565b82828080601f0160208091040260200160405190810160405280939291908181526020018383808284376000920182905250939450839250610a21915050888a018a612501565b90925090506001600160a01b03821630148015610a4b57506004546001600160a01b038281169116145b15610adc576007805460ff60a01b198116600160a01b179091556001600160a01b03168015610aab576001600160a01b038082166000908152600660205260408120549054610aa8926201000090910416908390600b0b876117e9565b93505b6040517f9e87fac88ff661f02d44f95383c817fece4bce600a3dab7a54406878b965e75290600090a1505050610e1a565b306001600160a01b03831603610b5057610af581611ba9565b6040516001600160a01b038216907fbfac3114239697072633122ba53cf5159c7204bab6e8e4a4cab49d766261b1a390600090a2600054610b47906201000090046001600160a01b0316823086611912565b92505050610e1a565b6007546001600160a01b0316610b6583611ba9565b6007546001600160a01b031680610c6e57600754600160a01b900460ff1615610bad57600054610ba6906201000090046001600160a01b0316308488611912565b9450610c45565b600454600054610bd2916001600160a01b036201000090920482169130911688611912565b6003549095506001600160a01b031615610c4557600354604051631ff0045b60e01b8152600060048201526001600160a01b0390911690631ff0045b90602401600060405180830381600087803b158015610c2c57600080fd5b505af1158015610c40573d6000803e3d6000fd5b505050505b6040516000906001600160a01b03841690600080516020612967833981519152908390a3610de1565b806001600160a01b0316826001600160a01b031614610dc057600754600160a01b900460ff1615610cbe57600054610cb7906201000090046001600160a01b0316308488611912565b9450610d8d565b600054610cdc906201000090046001600160a01b0316308388611912565b6004546001600160a01b038381166000908152600660205260408120549054939850610d19936201000090048216929190911690600b0b8861199d565b6003549095506001600160a01b031615610d8d57600354604051631ff0045b60e01b81526001600160a01b03838116600483015290911690631ff0045b90602401600060405180830381600087803b158015610d7457600080fd5b505af1158015610d88573d6000803e3d6000fd5b505050505b806001600160a01b0316826001600160a01b031660008051602061296783398151915260405160405180910390a3610de1565b600054610dde906201000090046001600160a01b0316308688611912565b94505b6040516001600160a01b038516907fbfac3114239697072633122ba53cf5159c7204bab6e8e4a4cab49d766261b1a390600090a2505050505b9998505050505050505050565b60405162461bcd60e51b815260206004820152603360248201527f556e737570706f727465642063616c6c6261636b202d20204265666f7265204160448201527219dc99595b595b9d0815195c9b5a5b985d1959606a1b606482015260609060840161083e565b6003546001600160a01b03163314610eb8576040516282b42960e81b815260040160405180910390fd5b600754600160a01b900460ff1615610ee357604051631309a56360e01b815260040160405180910390fd5b6007805460ff60a01b198116600160a01b179091556001600160a01b03168015610f6157600454600054610f2b916001600160a01b03620100009092048216913091166119ea565b506001600160a01b038082166000908152600660205260408120549054610f5f926201000090910416908390600b0b611b1e565b505b6040517f9e87fac88ff661f02d44f95383c817fece4bce600a3dab7a54406878b965e75290600090a150565b60405162461bcd60e51b815260206004820152602f60248201527f556e737570706f727465642063616c6c6261636b202d204265666f726520416760448201526e1c99595b595b9d081d5c19185d1959608a1b606482015260609060840161083e565b600054610100900460ff16158080156110105750600054600160ff909116105b8061102a5750303b15801561102a575060005460ff166001145b61108d5760405162461bcd60e51b815260206004820152602e60248201527f496e697469616c697a61626c653a20636f6e747261637420697320616c72656160448201526d191e481a5b9a5d1a585b1a5e995960921b606482015260840161083e565b6000805460ff1916600117905580156110b0576000805461ff0019166101001790555b6001600160a01b0387166110c357600080fd5b6001600160a01b0388166110d657600080fd5b6001600160a01b0384166110e957600080fd5b670de0b6b3a7640000836001600160601b0316101561110757600080fd5b600082600b0b121561111857600080fd5b6000805462010000600160b01b031916620100006001600160a01b038b811691820292909217909255600180546001600160a01b03199081168b8416179091556002805482168a8416179055600380548216898416908117909155600480549092169288169283179091556001600160601b038681166005819055600880546001600160601b0319169288169290921790915560078054600160a01b60ff60a01b1990911617905560408051918252600b87900b6020830152929391927f40d4e25e772cf84d80bbdd262d52d18567fc4f39017333ed34a4e5ea7dffa78e910160405180910390a48015611246576000805461ff0019169055604051600181527f7f26b83ff96e1f2b6a682f133852f6798a09c465da95921460cefb38474024989060200160405180910390a15b5050505050505050565b6000546060908a908a906001600160a01b0380841662010000909204161461128b5760405163c1ab6dc160e01b815260040160405180910390fd5b6002546001600160a01b038281169116146112b957604051637f0ed44d60e11b815260040160405180910390fd5b6001546001600160a01b031633146112e3576040516282b42960e81b815260040160405180910390fd5b600754600160a01b900460ff161561130e57604051631309a56360e01b815260040160405180910390fd5b84848080601f016020809104026020016040519081016040528093929190818152602001838380828437600092018290525093965061135392505050898b018b612501565b506004549091506001600160a01b0390811690821603611386576040516322fe227560e11b815260040160405180910390fd5b600080546113a4906201000090046001600160a01b03168330611625565b600854909150600b90810b9082900b12156113d2576040516353a24db360e11b815260040160405180910390fd5b600154604051631fb6491d60e11b81526000916001600160a01b031690633f6c923a90611405908b908b9060040161252f565b600060405180830381865afa158015611422573d6000803e3d6000fd5b505050506040513d6000823e601f3d908101601f1916820160405261144a919081019061265d565b60a001518060200190518101906114619190612763565b6007549091506001600160a01b031661147b838584611ca4565b6001600160a01b0382166115c5576001600160a01b0381166114c2576004546000546114bb916001600160a01b036201000090920482169116858a6117e9565b9650611521565b6004546000546114e6916001600160a01b036201000090920482169116858a61199d565b6001600160a01b03808316600090815260066020526040812054905492995061151e92620100009004909116908390600b0b8a6117e9565b96505b6003546001600160a01b03161561159257600354604051631ff0045b60e01b81526001600160a01b03868116600483015290911690631ff0045b90602401600060405180830381600087803b15801561157957600080fd5b505af115801561158d573d6000803e3d6000fd5b505050505b836001600160a01b0316816001600160a01b031660008051602061296783398151915260405160405180910390a36115e6565b6000546115e3906201000090046001600160a01b031685858a6117e9565b96505b604051600b84900b81526001600160a01b038516907f30949e21a78dbc0dc28487c7b161e2dae458d14cd0035ce167c50c64b97fe8e69060200161079a565b60008061163185611e4d565b604051631cd43d1160e31b81526001600160a01b03888116600483015287811660248301528681166044830152919350908316915063e6a1e88890606401608060405180830381865afa15801561168c573d6000803e3d6000fd5b505050506040513d601f19601f820116820180604052508101906116b09190612780565b5090979650505050505050565b6001600160a01b038083166000908152600660205260409020805460018201549192600160601b9091048116918116908416036117ce576001600160a01b0381161580159061173857508154600160601b90046001600160a01b0316600090815260066020526040902054611736908690600b0b610369565b155b15611756576040516353a24db360e11b815260040160405180910390fd5b6001600160a01b03831615801590611792575060018201546001600160a01b0316600090815260066020526040902054600b90810b9086900b12155b156117b057604051636de0c2b160e11b815260040160405180910390fd5b81546001600160601b0319166001600160601b0386161782556117e2565b6117d784611ba9565b6117e2858585611ca4565b5050505050565b60606000806117f787611fce565b91509150816001600160a01b0316634329d29382836001600160a01b03166362fc305e8b8b8b60006001600160401b038111156118365761183661255e565b6040519080825280601f01601f191660200182016040528015611860576020820181803683370190505b5060405160240161187494939291906127be565b60408051808303601f1901815291815260208201805160e094851b6001600160e01b03909116179052519185901b6001600160e01b03191682526118bf9392509089906004016127f4565b6000604051808303816000875af11580156118de573d6000803e3d6000fd5b505050506040513d6000823e601f3d908101601f191682016040526119069190810190612847565b50979650505050505050565b606060008061192087611fce565b91509150816001600160a01b0316634329d29382836001600160a01b031663b4b333c68b8b8b60006001600160401b0381111561195f5761195f61255e565b6040519080825280601f01601f191660200182016040528015611989576020820181803683370190505b5060405160240161187494939291906128aa565b60606000806119ab87611fce565b91509150816001600160a01b0316634329d29382836001600160a01b03166350209a628b8b8b60006001600160401b038111156118365761183661255e565b60008060006119f886611fce565b91509150816001600160a01b03166339255d5b82836001600160a01b031663b4b333c68a8a8a60006001600160401b03811115611a3757611a3761255e565b6040519080825280601f01601f191660200182016040528015611a61576020820181803683370190505b50604051602401611a7594939291906128aa565b60408051601f19818403018152918152602080830180516001600160e01b031660e095861b179052815160008152908101918290529286901b6001600160e01b0319169052611aca93925090602481016128de565b6000604051808303816000875af1158015611ae9573d6000803e3d6000fd5b505050506040513d6000823e601f3d908101601f19168201604052611b119190810190612914565b5060019695505050505050565b6000806000611b2c86611fce565b91509150816001600160a01b03166339255d5b82836001600160a01b03166362fc305e8a8a8a60006001600160401b03811115611b6b57611b6b61255e565b6040519080825280601f01601f191660200182016040528015611b95576020820181803683370190505b50604051602401611a7594939291906127be565b6001600160a01b03808216600090815260066020526040902080549091600160601b9091041615611c16576001808201548254600160601b90046001600160a01b03908116600090815260066020526040902090920180546001600160a01b031916929091169190911790555b60018101546001600160a01b031615611c6b57805460018201546001600160a01b03908116600090815260066020526040902080546001600160601b0316600160601b93849004909216909202179055611c95565b805460078054600160601b9092046001600160a01b03166001600160a01b03199092169190911790555b60008155600060018201555050565b60006001600160a01b038216611cd95750600780546001600160a01b038481166001600160a01b031983161790925516611d74565b6001600160a01b038216600090815260066020526040812080549091600b9190910b9003611d1a576040516367713bc560e11b815260040160405180910390fd5b80546001600160a01b03600160601b8204169250600b90810b9086900b12611d5557604051636de0c2b160e11b815260040160405180910390fd5b80546001600160601b0316600160601b6001600160a01b038616021790555b6001600160a01b03811615611de5576001600160a01b03811660009081526006602052604090208054611dab908690600b0b610369565b611dc8576040516353a24db360e11b815260040160405180910390fd5b60010180546001600160a01b0319166001600160a01b0385161790555b6001600160a01b0392831660008181526006602052604090206001810180549486166001600160a01b03199586161790556002810180549094169091179092556001600160601b039390931692909116600160601b026001600160601b031916919091179055565b7f65599bf746e17a00ea62e3610586992d88101b78eec3cf380706621fb97ea837547fb969d79d88acd02d04ed7ee7d43b949e7daf093d363abcfbbc43dfdfd1ce969a546001600160a01b038116611f9d576001600160a01b038216611f1257826001600160a01b03166320bc44256040518163ffffffff1660e01b8152600401602060405180830381865afa158015611eeb573d6000803e3d6000fd5b505050506040513d601f19601f82011682018060405250810190611f0f9190612763565b91505b604051635b69006f60e11b81527fa9214cc96615e0085d3bb077758db69497dc2dce3b2b1e97bc93c3d18d83efd360048201526001600160a01b0383169063b6d200de90602401602060405180830381865afa158015611f76573d6000803e3d6000fd5b505050506040513d601f19601f82011682018060405250810190611f9a9190612763565b90505b6001600160a01b038216611fb357611fb3612950565b6001600160a01b038116611fc957611fc9612950565b915091565b7f65599bf746e17a00ea62e3610586992d88101b78eec3cf380706621fb97ea837547fb969d79d88acd02d04ed7ee7d43b949e7daf093d363abcfbbc43dfdfd1ce969a546001600160a01b038116611f9d576001600160a01b03821661209357826001600160a01b03166320bc44256040518163ffffffff1660e01b8152600401602060405180830381865afa15801561206c573d6000803e3d6000fd5b505050506040513d601f19601f820116820180604052508101906120909190612763565b91505b604051635b69006f60e11b81527fa9214cc96615e0085d3bb077758db69497dc2dce3b2b1e97bc93c3d18d83efd360048201526001600160a01b0383169063b6d200de90602401602060405180830381865afa1580156120f7573d6000803e3d6000fd5b505050506040513d601f19601f8201168201806040525081019061211b9190612763565b9050817f65599bf746e17a00ea62e3610586992d88101b78eec3cf380706621fb97ea83755807fb969d79d88acd02d04ed7ee7d43b949e7daf093d363abcfbbc43dfdfd1ce969a556001600160a01b038216611fb357611fb3612950565b80600b0b811461218857600080fd5b50565b6000806040838503121561219e57600080fd5b82356121a981612179565b915060208301356121b981612179565b809150509250929050565b6001600160a01b038116811461218857600080fd5b60008083601f8401126121eb57600080fd5b5081356001600160401b0381111561220257600080fd5b60208301915083602082850101111561221a57600080fd5b9250929050565b600080600080600080600080600060c08a8c03121561223f57600080fd5b893561224a816121c4565b985060208a013561225a816121c4565b975060408a0135965060608a01356001600160401b038082111561227d57600080fd5b6122898d838e016121d9565b909850965060808c01359150808211156122a257600080fd5b6122ae8d838e016121d9565b909650945060a08c01359150808211156122c757600080fd5b506122d48c828d016121d9565b915080935050809150509295985092959850929598565b60005b838110156123065781810151838201526020016122ee565b50506000910152565b600081518084526123278160208601602086016122eb565b601f01601f19169290920160200192915050565b60208152600061234e602083018461230f565b9392505050565b600080600080600080600060a0888a03121561237057600080fd5b873561237b816121c4565b9650602088013561238b816121c4565b95506040880135945060608801356001600160401b03808211156123ae57600080fd5b6123ba8b838c016121d9565b909650945060808a01359150808211156123d357600080fd5b506123e08a828b016121d9565b989b979a50959850939692959293505050565b60006020828403121561240557600080fd5b813561234e816121c4565b600080600080600080600060e0888a03121561242b57600080fd5b8735612436816121c4565b96506020880135612446816121c4565b95506040880135612456816121c4565b94506060880135612466816121c4565b93506080880135612476816121c4565b925060a08801356001600160601b038116811461249257600080fd5b915060c08801356124a281612179565b8091505092959891949750929550565b60008160001904831182151516156124da57634e487b7160e01b600052601160045260246000fd5b500290565b6000826124fc57634e487b7160e01b600052601260045260246000fd5b500490565b6000806040838503121561251457600080fd5b823561251f816121c4565b915060208301356121b9816121c4565b60208152816020820152818360408301376000818301604090810191909152601f909201601f19160101919050565b634e487b7160e01b600052604160045260246000fd5b60405161016081016001600160401b03811182821017156125975761259761255e565b60405290565b805160ff811681146125ae57600080fd5b919050565b80516125ae816121c4565b80516001600160e01b0319811681146125ae57600080fd5b600082601f8301126125e757600080fd5b81516001600160401b03808211156126015761260161255e565b604051601f8301601f19908116603f011681019082821181831017156126295761262961255e565b8160405283815286602085880101111561264257600080fd5b6126538460208301602089016122eb565b9695505050505050565b60006020828403121561266f57600080fd5b81516001600160401b038082111561268657600080fd5b90830190610160828603121561269b57600080fd5b6126a3612574565b6126ac8361259d565b81526126ba6020840161259d565b6020820152604083015160408201526126d5606084016125b3565b60608201526126e6608084016125be565b608082015260a0830151828111156126fd57600080fd5b612709878286016125d6565b60a08301525060c083015160c082015260e083015160e08201526101009150818301518282015261012091506127408284016125b3565b8282015261014091506127548284016125b3565b91810191909152949350505050565b60006020828403121561277557600080fd5b815161234e816121c4565b6000806000806080858703121561279657600080fd5b8451935060208501516127a881612179565b6040860151606090960151949790965092505050565b6001600160a01b03858116825284166020820152600b83900b60408201526080606082018190526000906126539083018461230f565b6001600160a01b03841681526080602082018190526000906128189083018561230f565b8281038060408501526002825261060f60f31b602083015260408101606085015250612653604082018561230f565b6000806040838503121561285a57600080fd5b82516001600160401b038082111561287157600080fd5b61287d868387016125d6565b9350602085015191508082111561289357600080fd5b506128a0858286016125d6565b9150509250929050565b6001600160a01b0385811682528481166020830152831660408201526080606082018190526000906126539083018461230f565b6001600160a01b03841681526060602082018190526000906129029083018561230f565b8281036040840152612653818561230f565b60006020828403121561292657600080fd5b81516001600160401b0381111561293c57600080fd5b612948848285016125d6565b949350505050565b634e487b7160e01b600052600160045260246000fdfe534932c0ecc45789d37732d7a4b2d357b687ce7f35a7805bfb76df267e3dd66fa2646970667358221220ebb8af7d1b295f0c534ca97aa206f898d51c1ff2a8c4b47536401ec958d5274c64736f6c63430008100033",
    "linkReferences": {}
  },
  "methodIdentifiers": {
    "create(address,address,address,uint96,int96,bytes)": "508bea57"
  },
  "id": 106
}