{
  "abi": [
    {
      "inputs": [],
      "name": "FlowRateTooHigh",
      "type": "error"
    },
    {
      "inputs": [],
      "name": "FlowRateTooLow",
      "type": "error"
    },
    {
      "inputs": [],
      "name": "InvalidAgreement",
      "type": "error"
    },
    {
      "inputs": [],
      "name": "InvalidRight",
      "type": "error"
    },
    {
      "inputs": [],
      "name": "InvalidToken",
      "type": "error"
    },
    {
      "inputs": [],
      "name": "NotPaused",
      "type": "error"
    },
    {
      "inputs": [],
      "name": "Paused",
      "type": "error"
    },
    {
      "inputs": [],
      "name": "Unauthorized",
      "type": "error"
    },
    {
      "anonymous": false,
      "inputs": [
        {
          "indexed": true,
          "internalType": "address",
          "name": "acceptedToken",
          "type": "address"
        },
        {
          "indexed": true,
          "internalType": "address",
          "name": "controllerObserver",
          "type": "address"
        },
        {
          "indexed": true,
          "internalType": "address",
          "name": "beneficiary",
          "type": "address"
        },
        {
          "indexed": false,
          "internalType": "uint96",
          "name": "minimumBidFactorWad",
          "type": "uint96"
        },
        {
          "indexed": false,
          "internalType": "int96",
          "name": "reserveRate",
          "type": "int96"
        }
      ],
      "name": "Initialized",
      "type": "event"
    },
    {
      "anonymous": false,
      "inputs": [
        {
          "indexed": false,
          "internalType": "uint8",
          "name": "version",
          "type": "uint8"
        }
      ],
      "name": "Initialized",
      "type": "event"
    },
    {
      "anonymous": false,
      "inputs": [
        {
          "indexed": true,
          "internalType": "address",
          "name": "streamer",
          "type": "address"
        },
        {
          "indexed": false,
          "internalType": "int96",
          "name": "flowRate",
          "type": "int96"
        }
      ],
      "name": "NewInboundStream",
      "type": "event"
    },
    {
      "anonymous": false,
      "inputs": [
        {
          "indexed": true,
          "internalType": "address",
          "name": "oldRenter",
          "type": "address"
        },
        {
          "indexed": true,
          "internalType": "address",
          "name": "newRenter",
          "type": "address"
        }
      ],
      "name": "RenterChanged",
      "type": "event"
    },
    {
      "anonymous": false,
      "inputs": [
        {
          "indexed": true,
          "internalType": "address",
          "name": "streamer",
          "type": "address"
        }
      ],
      "name": "StreamTerminated",
      "type": "event"
    },
    {
      "anonymous": false,
      "inputs": [
        {
          "indexed": true,
          "internalType": "address",
          "name": "streamer",
          "type": "address"
        },
        {
          "indexed": false,
          "internalType": "int96",
          "name": "flowRate",
          "type": "int96"
        }
      ],
      "name": "StreamUpdated",
      "type": "event"
    },
    {
      "inputs": [],
      "name": "acceptedToken",
      "outputs": [
        {
          "internalType": "contract ISuperToken",
          "name": "",
          "type": "address"
        }
      ],
      "stateMutability": "view",
      "type": "function"
    },
    {
      "inputs": [
        {
          "internalType": "contract ISuperToken",
          "name": "_superToken",
          "type": "address"
        },
        {
          "internalType": "address",
          "name": "_agreementClass",
          "type": "address"
        },
        {
          "internalType": "bytes32",
          "name": "",
          "type": "bytes32"
        },
        {
          "internalType": "bytes",
          "name": "",
          "type": "bytes"
        },
        {
          "internalType": "bytes",
          "name": "",
          "type": "bytes"
        },
        {
          "internalType": "bytes",
          "name": "_ctx",
          "type": "bytes"
        }
      ],
      "name": "afterAgreementCreated",
      "outputs": [
        {
          "internalType": "bytes",
          "name": "newCtx",
          "type": "bytes"
        }
      ],
      "stateMutability": "nonpayable",
      "type": "function"
    },
    {
      "inputs": [
        {
          "internalType": "contract ISuperToken",
          "name": "_superToken",
          "type": "address"
        },
        {
          "internalType": "address",
          "name": "_agreementClass",
          "type": "address"
        },
        {
          "internalType": "bytes32",
          "name": "",
          "type": "bytes32"
        },
        {
          "internalType": "bytes",
          "name": "",
          "type": "bytes"
        },
        {
          "internalType": "bytes",
          "name": "",
          "type": "bytes"
        },
        {
          "internalType": "bytes",
          "name": "_ctx",
          "type": "bytes"
        }
      ],
      "name": "afterAgreementTerminated",
      "outputs": [
        {
          "internalType": "bytes",
          "name": "newCtx",
          "type": "bytes"
        }
      ],
      "stateMutability": "nonpayable",
      "type": "function"
    },
    {
      "inputs": [
        {
          "internalType": "contract ISuperToken",
          "name": "_superToken",
          "type": "address"
        },
        {
          "internalType": "address",
          "name": "_agreementClass",
          "type": "address"
        },
        {
          "internalType": "bytes32",
          "name": "",
          "type": "bytes32"
        },
        {
          "internalType": "bytes",
          "name": "",
          "type": "bytes"
        },
        {
          "internalType": "bytes",
          "name": "",
          "type": "bytes"
        },
        {
          "internalType": "bytes",
          "name": "_ctx",
          "type": "bytes"
        }
      ],
      "name": "afterAgreementUpdated",
      "outputs": [
        {
          "internalType": "bytes",
          "name": "newCtx",
          "type": "bytes"
        }
      ],
      "stateMutability": "nonpayable",
      "type": "function"
    },
    {
      "inputs": [
        {
          "internalType": "contract ISuperToken",
          "name": "",
          "type": "address"
        },
        {
          "internalType": "address",
          "name": "",
          "type": "address"
        },
        {
          "internalType": "bytes32",
          "name": "",
          "type": "bytes32"
        },
        {
          "internalType": "bytes",
          "name": "",
          "type": "bytes"
        },
        {
          "internalType": "bytes",
          "name": "",
          "type": "bytes"
        }
      ],
      "name": "beforeAgreementCreated",
      "outputs": [
        {
          "internalType": "bytes",
          "name": "",
          "type": "bytes"
        }
      ],
      "stateMutability": "view",
      "type": "function"
    },
    {
      "inputs": [
        {
          "internalType": "contract ISuperToken",
          "name": "",
          "type": "address"
        },
        {
          "internalType": "address",
          "name": "",
          "type": "address"
        },
        {
          "internalType": "bytes32",
          "name": "",
          "type": "bytes32"
        },
        {
          "internalType": "bytes",
          "name": "",
          "type": "bytes"
        },
        {
          "internalType": "bytes",
          "name": "",
          "type": "bytes"
        }
      ],
      "name": "beforeAgreementTerminated",
      "outputs": [
        {
          "internalType": "bytes",
          "name": "",
          "type": "bytes"
        }
      ],
      "stateMutability": "view",
      "type": "function"
    },
    {
      "inputs": [
        {
          "internalType": "contract ISuperToken",
          "name": "",
          "type": "address"
        },
        {
          "internalType": "address",
          "name": "",
          "type": "address"
        },
        {
          "internalType": "bytes32",
          "name": "",
          "type": "bytes32"
        },
        {
          "internalType": "bytes",
          "name": "",
          "type": "bytes"
        },
        {
          "internalType": "bytes",
          "name": "",
          "type": "bytes"
        }
      ],
      "name": "beforeAgreementUpdated",
      "outputs": [
        {
          "internalType": "bytes",
          "name": "",
          "type": "bytes"
        }
      ],
      "stateMutability": "view",
      "type": "function"
    },
    {
      "inputs": [],
      "name": "beneficiary",
      "outputs": [
        {
          "internalType": "address",
          "name": "",
          "type": "address"
        }
      ],
      "stateMutability": "view",
      "type": "function"
    },
    {
      "inputs": [],
      "name": "cfa",
      "outputs": [
        {
          "internalType": "contract IConstantFlowAgreementV1",
          "name": "",
          "type": "address"
        }
      ],
      "stateMutability": "view",
      "type": "function"
    },
    {
      "inputs": [],
      "name": "controllerObserver",
      "outputs": [
        {
          "internalType": "contract IRentalAuctionControllerObserver",
          "name": "",
          "type": "address"
        }
      ],
      "stateMutability": "view",
      "type": "function"
    },
    {
      "inputs": [],
      "name": "currentRenter",
      "outputs": [
        {
          "internalType": "address",
          "name": "",
          "type": "address"
        }
      ],
      "stateMutability": "view",
      "type": "function"
    },
    {
      "inputs": [],
      "name": "host",
      "outputs": [
        {
          "internalType": "contract ISuperfluid",
          "name": "",
          "type": "address"
        }
      ],
      "stateMutability": "view",
      "type": "function"
    },
    {
      "inputs": [
        {
          "internalType": "contract ISuperToken",
          "name": "_acceptedToken",
          "type": "address"
        },
        {
          "internalType": "contract ISuperfluid",
          "name": "_host",
          "type": "address"
        },
        {
          "internalType": "contract IConstantFlowAgreementV1",
          "name": "_cfa",
          "type": "address"
        },
        {
          "internalType": "contract IRentalAuctionControllerObserver",
          "name": "_controllerObserver",
          "type": "address"
        },
        {
          "internalType": "address",
          "name": "_beneficiary",
          "type": "address"
        },
        {
          "internalType": "uint96",
          "name": "_minimumBidFactorWad",
          "type": "uint96"
        },
        {
          "internalType": "int96",
          "name": "_reserveRate",
          "type": "int96"
        }
      ],
      "name": "initialize",
      "outputs": [],
      "stateMutability": "nonpayable",
      "type": "function"
    },
    {
      "inputs": [
        {
          "internalType": "int96",
          "name": "upper",
          "type": "int96"
        },
        {
          "internalType": "int96",
          "name": "lower",
          "type": "int96"
        }
      ],
      "name": "isBidHigher",
      "outputs": [
        {
          "internalType": "bool",
          "name": "",
          "type": "bool"
        }
      ],
      "stateMutability": "view",
      "type": "function"
    },
    {
      "inputs": [],
      "name": "minimumBidFactorWad",
      "outputs": [
        {
          "internalType": "uint256",
          "name": "",
          "type": "uint256"
        }
      ],
      "stateMutability": "view",
      "type": "function"
    },
    {
      "inputs": [],
      "name": "pause",
      "outputs": [],
      "stateMutability": "nonpayable",
      "type": "function"
    },
    {
      "inputs": [],
      "name": "paused",
      "outputs": [
        {
          "internalType": "bool",
          "name": "",
          "type": "bool"
        }
      ],
      "stateMutability": "view",
      "type": "function"
    },
    {
      "inputs": [],
      "name": "reserveRate",
      "outputs": [
        {
          "internalType": "int96",
          "name": "",
          "type": "int96"
        }
      ],
      "stateMutability": "view",
      "type": "function"
    },
    {
      "inputs": [
        {
          "internalType": "address",
          "name": "",
          "type": "address"
        }
      ],
      "name": "senderInfo",
      "outputs": [
        {
          "internalType": "int96",
          "name": "flowRate",
          "type": "int96"
        },
        {
          "internalType": "address",
          "name": "left",
          "type": "address"
        },
        {
          "internalType": "address",
          "name": "right",
          "type": "address"
        },
        {
          "internalType": "address",
          "name": "sender",
          "type": "address"
        }
      ],
      "stateMutability": "view",
      "type": "function"
    },
    {
      "inputs": [
        {
          "internalType": "address",
          "name": "",
          "type": "address"
        }
      ],
      "name": "senderUserData",
      "outputs": [
        {
          "internalType": "bytes",
          "name": "",
          "type": "bytes"
        }
      ],
      "stateMutability": "view",
      "type": "function"
    },
    {
      "inputs": [],
      "name": "unpause",
      "outputs": [],
      "stateMutability": "nonpayable",
      "type": "function"
    }
  ],
  "bytecode": {
    "object": "0x608060405234801561001057600080fd5b50612a64806100206000396000f3fe608060405234801561001057600080fd5b50600436106101375760003560e01c806353c11f99116100b8578063884d1f401161007c578063884d1f40146102955780638bcf819d146102a8578063a6dd4c66146102bb578063c62fd92414610339578063d86ed3e51461034c578063f437bc591461035f57600080fd5b806353c11f991461023557806358d7bf80146102485780635c975abb1461026d5780635f9e7d771461027a5780638456cb591461028d57600080fd5b80633047d5fb116100ff5780633047d5fb146101d557806330d9c915146101ec57806338af3eed146101ff5780633f4ba83a14610212578063451c3d801461021c57600080fd5b8063040e2c201461013c5780631054df8c1461016c57806321e39ee81461017f578063230dbd29146101a2578063242f17a9146101c2575b600080fd5b60035461014f906001600160a01b031681565b6040516001600160a01b0390911681526020015b60405180910390f35b60025461014f906001600160a01b031681565b61019261018d3660046120d3565b610372565b6040519015158152602001610163565b6101b56101b0366004612169565b6103b1565b6040516101639190612283565b60075461014f906001600160a01b031681565b6101de60055481565b604051908152602001610163565b6101b56101fa36600461229d565b61079c565b60045461014f906001600160a01b031681565b61021a610804565b005b60005461014f906201000090046001600160a01b031681565b6101b5610243366004612169565b6108c3565b60095461025a906101009004600b0b81565b604051600b9190910b8152602001610163565b6009546101929060ff1681565b6101b561028836600461229d565b610ce3565b61021a610d4a565b6101b56102a336600461229d565b610ddb565b6101b56102b636600461233b565b610e3e565b6103056102c936600461233b565b600660205260009081526040902080546001820154600290920154600b82900b926001600160a01b03600160601b909304831692908116911684565b60408051600b9590950b85526001600160a01b03938416602086015291831691840191909152166060820152608001610163565b61021a610347366004612358565b610ed8565b6101b561035a366004612169565b61114c565b60015461014f906001600160a01b031681565b6000670de0b6b3a7640000600554836001600160601b031661039491906123fa565b61039e9190612427565b836001600160601b031611905092915050565b6000546060908a908a906001600160a01b038084166201000090920416146103ec5760405163c1ab6dc160e01b815260040160405180910390fd5b6002546001600160a01b0382811691161461041a57604051637f0ed44d60e11b815260040160405180910390fd5b6001546001600160a01b03163314610444576040516282b42960e81b815260040160405180910390fd5b60095460ff1615610468576040516313d0ff5960e31b815260040160405180910390fd5b84848080601f0160208091040260200160405190810160405280939291908181526020018383808284376000920182905250600154604051631fb6491d60e11b815295985090946001600160a01b039091169350633f6c923a92506104d4915089908990600401612449565b600060405180830381865afa1580156104f1573d6000803e3d6000fd5b505050506040513d6000823e601f3d908101601f191682016040526105199190810190612577565b6060810151600080549293509091610541906201000090046001600160a01b03168330611513565b6009549091506101009004600b90810b9082900b1215610574576040516353a24db360e11b815260040160405180910390fd5b6000808460a0015180602001905181019061058f919061267d565b60075491935091506001600160a01b03166105ab8486856115ab565b6001600160a01b03851660009081526008602052604090206105cd8382612756565b506007546001600160a01b03828116911614610723576001600160a01b038082166000908152600660205260408120549054610617926201000090910416908390600b0b8c6116dc565b600754600054919a5061063f916201000090046001600160a01b03908116913091168c611805565b6007546001600160a01b039081166000908152600660205260408120546004549154939c50600b0b9261067e926201000090910481169116838d611890565b600354909a506001600160a01b0316156106f457600354600754604051631ff0045b60e01b81526001600160a01b039182166004820152911690631ff0045b90602401600060405180830381600087803b1580156106db57600080fd5b505af11580156106ef573d6000803e3d6000fd5b505050505b6007546040516001600160a01b0391821691841690600080516020612a0f83398151915290600090a350610744565b600054610741906201000090046001600160a01b031686868c611890565b98505b604051600b85900b81526001600160a01b038616907ff107c9a55c1c8c5b73dd9e8516d71363e40fa2cd96b1063039020d13bac996b6906020015b60405180910390a250505050505050509998505050505050505050565b60405162461bcd60e51b815260206004820152602f60248201527f556e737570706f727465642063616c6c6261636b202d204265666f726520416760448201526e1c99595b595b9d0810dc99585d1959608a1b60648201526060906084015b60405180910390fd5b6003546001600160a01b0316331461082e576040516282b42960e81b815260040160405180910390fd5b60095460ff1661085157604051636cd6020160e01b815260040160405180910390fd5b6009805460ff191690556007546001600160a01b031680156108c05760005461088a906201000090046001600160a01b031630836118dd565b506001600160a01b0380821660009081526006602052604081205490546108be926201000090910416908390600b0b611a11565b505b50565b6001546060906001600160a01b031633146108f0576040516282b42960e81b815260040160405180910390fd5b6000546001600160a01b038b8116620100009092041614158061092157506002546001600160a01b038a8116911614155b156109655782828080601f016020809104026020016040519081016040528093929190818152602001838380828437600092019190915250929350610cd692505050565b82828080601f0160208091040260200160405190810160405280939291908181526020018383808284376000920182905250600154604051631fb6491d60e11b815295965090946001600160a01b039091169350633f6c923a92506109cf91508590600401612283565b600060405180830381865afa1580156109ec573d6000803e3d6000fd5b505050506040513d6000823e601f3d908101601f19168201604052610a149190810190612577565b606001516007549091506001600160a01b0316610a3082611a9c565b6007546001600160a01b031680610b325760095460ff1615610a7157600054610a6a906201000090046001600160a01b0316308487611805565b9350610b09565b600454600054610a96916001600160a01b036201000090920482169130911687611805565b6003549094506001600160a01b031615610b0957600354604051631ff0045b60e01b8152600060048201526001600160a01b0390911690631ff0045b90602401600060405180830381600087803b158015610af057600080fd5b505af1158015610b04573d6000803e3d6000fd5b505050505b6040516000906001600160a01b03841690600080516020612a0f833981519152908390a3610c9e565b806001600160a01b0316826001600160a01b031614610c7d5760095460ff1615610b7b57600054610b74906201000090046001600160a01b0316308487611805565b9350610c4a565b600054610b99906201000090046001600160a01b0316308387611805565b6004546001600160a01b038381166000908152600660205260408120549054939750610bd6936201000090048216929190911690600b0b87611890565b6003549094506001600160a01b031615610c4a57600354604051631ff0045b60e01b81526001600160a01b03838116600483015290911690631ff0045b90602401600060405180830381600087803b158015610c3157600080fd5b505af1158015610c45573d6000803e3d6000fd5b505050505b806001600160a01b0316826001600160a01b0316600080516020612a0f83398151915260405160405180910390a3610c9e565b600054610c9b906201000090046001600160a01b0316308587611805565b93505b6040516001600160a01b038416907fbfac3114239697072633122ba53cf5159c7204bab6e8e4a4cab49d766261b1a390600090a25050505b9998505050505050505050565b60405162461bcd60e51b815260206004820152603360248201527f556e737570706f727465642063616c6c6261636b202d20204265666f7265204160448201527219dc99595b595b9d0815195c9b5a5b985d1959606a1b60648201526060906084016107fb565b6003546001600160a01b03163314610d74576040516282b42960e81b815260040160405180910390fd5b60095460ff1615610d98576040516313d0ff5960e31b815260040160405180910390fd5b6009805460ff191660011790556007546001600160a01b031680156108c05760045460005461088a916001600160a01b03620100009092048216913091166118dd565b60405162461bcd60e51b815260206004820152602f60248201527f556e737570706f727465642063616c6c6261636b202d204265666f726520416760448201526e1c99595b595b9d081d5c19185d1959608a1b60648201526060906084016107fb565b60086020526000908152604090208054610e57906126cd565b80601f0160208091040260200160405190810160405280929190818152602001828054610e83906126cd565b8015610ed05780601f10610ea557610100808354040283529160200191610ed0565b820191906000526020600020905b815481529060010190602001808311610eb357829003601f168201915b505050505081565b600054610100900460ff1615808015610ef85750600054600160ff909116105b80610f125750303b158015610f12575060005460ff166001145b610f755760405162461bcd60e51b815260206004820152602e60248201527f496e697469616c697a61626c653a20636f6e747261637420697320616c72656160448201526d191e481a5b9a5d1a585b1a5e995960921b60648201526084016107fb565b6000805460ff191660011790558015610f98576000805461ff0019166101001790555b6001600160a01b038716610fab57600080fd5b6001600160a01b038816610fbe57600080fd5b6001600160a01b038416610fd157600080fd5b6001600160a01b036001600160601b03841610610fed57600080fd5b670de0b6b3a7640000836001600160601b0316101561100b57600080fd5b600082600b0b121561101c57600080fd5b6000805462010000600160b01b031916620100006001600160a01b038b811691820292909217909255600180546001600160a01b03199081168b8416179091556002805482168a8416179055600380548216898416908117909155600480549092169288169283179091556001600160601b038681166005819055600980546cffffffffffffffffffffffff001916610100938916939093029290921790915560408051918252600b87900b6020830152929391927f40d4e25e772cf84d80bbdd262d52d18567fc4f39017333ed34a4e5ea7dffa78e910160405180910390a48015611142576000805461ff0019169055604051600181527f7f26b83ff96e1f2b6a682f133852f6798a09c465da95921460cefb38474024989060200160405180910390a15b5050505050505050565b6000546060908a908a906001600160a01b038084166201000090920416146111875760405163c1ab6dc160e01b815260040160405180910390fd5b6002546001600160a01b038281169116146111b557604051637f0ed44d60e11b815260040160405180910390fd5b6001546001600160a01b031633146111df576040516282b42960e81b815260040160405180910390fd5b60095460ff1615611203576040516313d0ff5960e31b815260040160405180910390fd5b84848080601f0160208091040260200160405190810160405280939291908181526020018383808284376000920182905250600154604051631fb6491d60e11b815295985090946001600160a01b039091169350633f6c923a925061126f915089908990600401612449565b600060405180830381865afa15801561128c573d6000803e3d6000fd5b505050506040513d6000823e601f3d908101601f191682016040526112b49190810190612577565b60608101516000805492935090916112dc906201000090046001600160a01b03168330611513565b6009549091506101009004600b90810b9082900b121561130f576040516353a24db360e11b815260040160405180910390fd5b6000808460a0015180602001905181019061132a919061267d565b60075491935091506001600160a01b0316611346848685611bea565b6001600160a01b03851660009081526008602052604090206113688382612756565b506001600160a01b0383166114b3576001600160a01b0381166113b0576004546000546113a9916001600160a01b036201000090920482169116868c6116dc565b985061140f565b6004546000546113d4916001600160a01b036201000090920482169116868c611890565b6001600160a01b038083166000908152600660205260408120549054929b5061140c92620100009004909116908390600b0b8c6116dc565b98505b6003546001600160a01b03161561148057600354604051631ff0045b60e01b81526001600160a01b03878116600483015290911690631ff0045b90602401600060405180830381600087803b15801561146757600080fd5b505af115801561147b573d6000803e3d6000fd5b505050505b846001600160a01b0316816001600160a01b0316600080516020612a0f83398151915260405160405180910390a36114d4565b6000546114d1906201000090046001600160a01b031686868c6116dc565b98505b604051600b85900b81526001600160a01b038616907f30949e21a78dbc0dc28487c7b161e2dae458d14cd0035ce167c50c64b97fe8e69060200161077f565b60008061151f85611d98565b604051631cd43d1160e31b81526001600160a01b03888116600483015287811660248301528681166044830152919350908316915063e6a1e88890606401608060405180830381865afa15801561157a573d6000803e3d6000fd5b505050506040513d601f19601f8201168201806040525081019061159e9190612815565b5090979650505050505050565b6001600160a01b038083166000908152600660205260409020805460018201549192600160601b9091048116918116908416036116c1576001600160a01b0381161580159061162657508154600160601b90046001600160a01b0316600090815260066020526040902054611624908690600b0b610372565b155b15611644576040516353a24db360e11b815260040160405180910390fd5b6001600160a01b03831615801590611680575060018201546001600160a01b0316600090815260066020526040902054600b90810b9086900b12155b1561169e57604051636de0c2b160e11b815260040160405180910390fd5b81546bffffffffffffffffffffffff19166001600160601b0386161782556116d5565b6116ca84611a9c565b6116d5858585611bea565b5050505050565b60606000806116ea87611f19565b91509150816001600160a01b0316634329d29382836001600160a01b03166362fc305e8b8b8b60006001600160401b0381111561172957611729612478565b6040519080825280601f01601f191660200182016040528015611753576020820181803683370190505b506040516024016117679493929190612853565b60408051808303601f1901815291815260208201805160e094851b6001600160e01b03909116179052519185901b6001600160e01b03191682526117b2939250908990600401612889565b6000604051808303816000875af11580156117d1573d6000803e3d6000fd5b505050506040513d6000823e601f3d908101601f191682016040526117f991908101906128dc565b50979650505050505050565b606060008061181387611f19565b91509150816001600160a01b0316634329d29382836001600160a01b031663b4b333c68b8b8b60006001600160401b0381111561185257611852612478565b6040519080825280601f01601f19166020018201604052801561187c576020820181803683370190505b506040516024016117679493929190612935565b606060008061189e87611f19565b91509150816001600160a01b0316634329d29382836001600160a01b03166350209a628b8b8b60006001600160401b0381111561172957611729612478565b60008060006118eb86611f19565b91509150816001600160a01b03166339255d5b82836001600160a01b031663b4b333c68a8a8a60006001600160401b0381111561192a5761192a612478565b6040519080825280601f01601f191660200182016040528015611954576020820181803683370190505b506040516024016119689493929190612935565b60408051601f19818403018152918152602080830180516001600160e01b031660e095861b179052815160008152908101918290529286901b6001600160e01b03191690526119bd9392509060248101612969565b6000604051808303816000875af11580156119dc573d6000803e3d6000fd5b505050506040513d6000823e601f3d908101601f19168201604052611a04919081019061299f565b5060019695505050505050565b6000806000611a1f86611f19565b91509150816001600160a01b03166339255d5b82836001600160a01b03166362fc305e8a8a8a60006001600160401b03811115611a5e57611a5e612478565b6040519080825280601f01601f191660200182016040528015611a88576020820181803683370190505b506040516024016119689493929190612853565b6001600160a01b03808216600090815260066020526040902080549091600160601b9091041615611b09576001808201548254600160601b90046001600160a01b03908116600090815260066020526040902090920180546001600160a01b031916929091169190911790555b60018101546001600160a01b031615611b5e57805460018201546001600160a01b03908116600090815260066020526040902080546001600160601b0316600160601b93849004909216909202179055611bdb565b6007546001600160a01b03838116911614611bb15760405162461bcd60e51b8152602060048201526013602482015272544f444f2052454d4f5645204445425547203160681b60448201526064016107fb565b805460078054600160601b9092046001600160a01b03166001600160a01b03199092169190911790555b60008155600060018201555050565b60006001600160a01b038216611c1f5750600780546001600160a01b038481166001600160a01b031983161790925516611cba565b6001600160a01b038216600090815260066020526040812080549091600b9190910b9003611c60576040516367713bc560e11b815260040160405180910390fd5b80546001600160a01b03600160601b8204169250600b90810b9086900b12611c9b57604051636de0c2b160e11b815260040160405180910390fd5b80546001600160601b0316600160601b6001600160a01b038616021790555b6001600160a01b03811615611d2b576001600160a01b03811660009081526006602052604090208054611cf1908690600b0b610372565b611d0e576040516353a24db360e11b815260040160405180910390fd5b60010180546001600160a01b0319166001600160a01b0385161790555b6001600160a01b0392831660008181526006602052604090206001810180549486166001600160a01b03199586161790556002810180549094169091179092556001600160601b039390931692909116600160601b026bffffffffffffffffffffffff1916919091179055565b7f65599bf746e17a00ea62e3610586992d88101b78eec3cf380706621fb97ea837547fb969d79d88acd02d04ed7ee7d43b949e7daf093d363abcfbbc43dfdfd1ce969a546001600160a01b038116611ee8576001600160a01b038216611e5d57826001600160a01b03166320bc44256040518163ffffffff1660e01b8152600401602060405180830381865afa158015611e36573d6000803e3d6000fd5b505050506040513d601f19601f82011682018060405250810190611e5a91906129db565b91505b604051635b69006f60e11b81527fa9214cc96615e0085d3bb077758db69497dc2dce3b2b1e97bc93c3d18d83efd360048201526001600160a01b0383169063b6d200de90602401602060405180830381865afa158015611ec1573d6000803e3d6000fd5b505050506040513d601f19601f82011682018060405250810190611ee591906129db565b90505b6001600160a01b038216611efe57611efe6129f8565b6001600160a01b038116611f1457611f146129f8565b915091565b7f65599bf746e17a00ea62e3610586992d88101b78eec3cf380706621fb97ea837547fb969d79d88acd02d04ed7ee7d43b949e7daf093d363abcfbbc43dfdfd1ce969a546001600160a01b038116611ee8576001600160a01b038216611fde57826001600160a01b03166320bc44256040518163ffffffff1660e01b8152600401602060405180830381865afa158015611fb7573d6000803e3d6000fd5b505050506040513d601f19601f82011682018060405250810190611fdb91906129db565b91505b604051635b69006f60e11b81527fa9214cc96615e0085d3bb077758db69497dc2dce3b2b1e97bc93c3d18d83efd360048201526001600160a01b0383169063b6d200de90602401602060405180830381865afa158015612042573d6000803e3d6000fd5b505050506040513d601f19601f8201168201806040525081019061206691906129db565b9050817f65599bf746e17a00ea62e3610586992d88101b78eec3cf380706621fb97ea83755807fb969d79d88acd02d04ed7ee7d43b949e7daf093d363abcfbbc43dfdfd1ce969a556001600160a01b038216611efe57611efe6129f8565b80600b0b81146108c057600080fd5b600080604083850312156120e657600080fd5b82356120f1816120c4565b91506020830135612101816120c4565b809150509250929050565b6001600160a01b03811681146108c057600080fd5b60008083601f84011261213357600080fd5b5081356001600160401b0381111561214a57600080fd5b60208301915083602082850101111561216257600080fd5b9250929050565b600080600080600080600080600060c08a8c03121561218757600080fd5b89356121928161210c565b985060208a01356121a28161210c565b975060408a0135965060608a01356001600160401b03808211156121c557600080fd5b6121d18d838e01612121565b909850965060808c01359150808211156121ea57600080fd5b6121f68d838e01612121565b909650945060a08c013591508082111561220f57600080fd5b5061221c8c828d01612121565b915080935050809150509295985092959850929598565b60005b8381101561224e578181015183820152602001612236565b50506000910152565b6000815180845261226f816020860160208601612233565b601f01601f19169290920160200192915050565b6020815260006122966020830184612257565b9392505050565b600080600080600080600060a0888a0312156122b857600080fd5b87356122c38161210c565b965060208801356122d38161210c565b95506040880135945060608801356001600160401b03808211156122f657600080fd5b6123028b838c01612121565b909650945060808a013591508082111561231b57600080fd5b506123288a828b01612121565b989b979a50959850939692959293505050565b60006020828403121561234d57600080fd5b81356122968161210c565b600080600080600080600060e0888a03121561237357600080fd5b873561237e8161210c565b9650602088013561238e8161210c565b9550604088013561239e8161210c565b945060608801356123ae8161210c565b935060808801356123be8161210c565b925060a08801356001600160601b03811681146123da57600080fd5b915060c08801356123ea816120c4565b8091505092959891949750929550565b600081600019048311821515161561242257634e487b7160e01b600052601160045260246000fd5b500290565b60008261244457634e487b7160e01b600052601260045260246000fd5b500490565b60208152816020820152818360408301376000818301604090810191909152601f909201601f19160101919050565b634e487b7160e01b600052604160045260246000fd5b60405161016081016001600160401b03811182821017156124b1576124b1612478565b60405290565b805160ff811681146124c857600080fd5b919050565b80516124c88161210c565b80516001600160e01b0319811681146124c857600080fd5b600082601f83011261250157600080fd5b81516001600160401b038082111561251b5761251b612478565b604051601f8301601f19908116603f0116810190828211818310171561254357612543612478565b8160405283815286602085880101111561255c57600080fd5b61256d846020830160208901612233565b9695505050505050565b60006020828403121561258957600080fd5b81516001600160401b03808211156125a057600080fd5b9083019061016082860312156125b557600080fd5b6125bd61248e565b6125c6836124b7565b81526125d4602084016124b7565b6020820152604083015160408201526125ef606084016124cd565b6060820152612600608084016124d8565b608082015260a08301518281111561261757600080fd5b612623878286016124f0565b60a08301525060c083015160c082015260e083015160e082015261010091508183015182820152610120915061265a8284016124cd565b82820152610140915061266e8284016124cd565b91810191909152949350505050565b6000806040838503121561269057600080fd5b825161269b8161210c565b60208401519092506001600160401b038111156126b757600080fd5b6126c3858286016124f0565b9150509250929050565b600181811c908216806126e157607f821691505b60208210810361270157634e487b7160e01b600052602260045260246000fd5b50919050565b601f82111561275157600081815260208120601f850160051c8101602086101561272e5750805b601f850160051c820191505b8181101561274d5782815560010161273a565b5050505b505050565b81516001600160401b0381111561276f5761276f612478565b6127838161277d84546126cd565b84612707565b602080601f8311600181146127b857600084156127a05750858301515b600019600386901b1c1916600185901b17855561274d565b600085815260208120601f198616915b828110156127e7578886015182559484019460019091019084016127c8565b50858210156128055787850151600019600388901b60f8161c191681555b5050505050600190811b01905550565b6000806000806080858703121561282b57600080fd5b84519350602085015161283d816120c4565b6040860151606090960151949790965092505050565b6001600160a01b03858116825284166020820152600b83900b604082015260806060820181905260009061256d90830184612257565b6001600160a01b03841681526080602082018190526000906128ad90830185612257565b8281038060408501526002825261060f60f31b60208301526040810160608501525061256d6040820185612257565b600080604083850312156128ef57600080fd5b82516001600160401b038082111561290657600080fd5b612912868387016124f0565b9350602085015191508082111561292857600080fd5b506126c3858286016124f0565b6001600160a01b03858116825284811660208301528316604082015260806060820181905260009061256d90830184612257565b6001600160a01b038416815260606020820181905260009061298d90830185612257565b828103604084015261256d8185612257565b6000602082840312156129b157600080fd5b81516001600160401b038111156129c757600080fd5b6129d3848285016124f0565b949350505050565b6000602082840312156129ed57600080fd5b81516122968161210c565b634e487b7160e01b600052600160045260246000fdfe534932c0ecc45789d37732d7a4b2d357b687ce7f35a7805bfb76df267e3dd66fa2646970667358221220a2e079b429becaf85c7f7dcaecdafe288760aa89681cce99afd60c42beeb587764736f6c63430008100033",
    "linkReferences": {}
  },
  "methodIdentifiers": {
    "acceptedToken()": "451c3d80",
    "afterAgreementCreated(address,address,bytes32,bytes,bytes,bytes)": "d86ed3e5",
    "afterAgreementTerminated(address,address,bytes32,bytes,bytes,bytes)": "53c11f99",
    "afterAgreementUpdated(address,address,bytes32,bytes,bytes,bytes)": "230dbd29",
    "beforeAgreementCreated(address,address,bytes32,bytes,bytes)": "30d9c915",
    "beforeAgreementTerminated(address,address,bytes32,bytes,bytes)": "5f9e7d77",
    "beforeAgreementUpdated(address,address,bytes32,bytes,bytes)": "884d1f40",
    "beneficiary()": "38af3eed",
    "cfa()": "1054df8c",
    "controllerObserver()": "040e2c20",
    "currentRenter()": "242f17a9",
    "host()": "f437bc59",
    "initialize(address,address,address,address,address,uint96,int96)": "c62fd924",
    "isBidHigher(int96,int96)": "21e39ee8",
    "minimumBidFactorWad()": "3047d5fb",
    "pause()": "8456cb59",
    "paused()": "5c975abb",
    "reserveRate()": "58d7bf80",
    "senderInfo(address)": "a6dd4c66",
    "senderUserData(address)": "8bcf819d",
    "unpause()": "3f4ba83a"
  },
  "id": 105
}