{
  "abi": [
    {
      "inputs": [
        {
          "internalType": "address",
          "name": "_host",
          "type": "address"
        },
        {
          "internalType": "address",
          "name": "_cfa",
          "type": "address"
        }
      ],
      "stateMutability": "nonpayable",
      "type": "constructor"
    },
    {
      "anonymous": false,
      "inputs": [
        {
          "indexed": true,
          "internalType": "address",
          "name": "auctionAddress",
          "type": "address"
        },
        {
          "indexed": true,
          "internalType": "address",
          "name": "controllerObserverAddress",
          "type": "address"
        },
        {
          "indexed": true,
          "internalType": "address",
          "name": "controllerObserverImplementation",
          "type": "address"
        }
      ],
      "name": "ContinuousRentalAuctionDeployed",
      "type": "event"
    },
    {
      "inputs": [
        {
          "internalType": "contract ISuperToken",
          "name": "acceptedToken",
          "type": "address"
        },
        {
          "internalType": "address",
          "name": "controllerObserverImplementation",
          "type": "address"
        },
        {
          "internalType": "uint96",
          "name": "minimumBidFactorWad",
          "type": "uint96"
        },
        {
          "internalType": "int96",
          "name": "reserveRate",
          "type": "int96"
        },
        {
          "internalType": "bytes",
          "name": "controllerObserverExtraArgs",
          "type": "bytes"
        }
      ],
      "name": "create",
      "outputs": [
        {
          "internalType": "address",
          "name": "auctionClone",
          "type": "address"
        },
        {
          "internalType": "address",
          "name": "controllerObserverClone",
          "type": "address"
        }
      ],
      "stateMutability": "nonpayable",
      "type": "function"
    }
  ],
  "bytecode": {
    "object": "0x60e060405234801561001057600080fd5b5060405161316a38038061316a83398101604081905261002f9161009e565b60405161003b90610075565b604051809103906000f080158015610057573d6000803e3d6000fd5b506001600160a01b0390811660805291821660a0521660c0526100d1565b612ba0806105ca83390190565b80516001600160a01b038116811461009957600080fd5b919050565b600080604083850312156100b157600080fd5b6100ba83610082565b91506100c860208401610082565b90509250929050565b60805160a05160c0516104c5610105600039600061016e01526000818160cb015261014601526000606f01526104c56000f3fe608060405234801561001057600080fd5b506004361061002b5760003560e01c806337e1ed4a14610030575b600080fd5b61004361003e36600461036f565b610067565b604080516001600160a01b0393841681529290911660208301520160405180910390f35b6000806100937f00000000000000000000000000000000000000000000000000000000000000006102b9565b915061009e876102b9565b6040516379b9982960e11b81526001600160a01b03848116600483015264150000000160248301529192507f00000000000000000000000000000000000000000000000000000000000000009091169063f373305290604401600060405180830381600087803b15801561011157600080fd5b505af1158015610125573d6000803e3d6000fd5b505060405163318bf64960e21b81526001600160a01b038b811660048301527f0000000000000000000000000000000000000000000000000000000000000000811660248301527f00000000000000000000000000000000000000000000000000000000000000008116604483015284811660648301523360848301526bffffffffffffffffffffffff8a1660a4830152600b89900b60c48301528516925063c62fd924915060e401600060405180830381600087803b1580156101e857600080fd5b505af11580156101fc573d6000803e3d6000fd5b505060405163cf7a1d7760e01b81526001600160a01b038416925063cf7a1d779150610232908590339089908990600401610443565b600060405180830381600087803b15801561024c57600080fd5b505af1158015610260573d6000803e3d6000fd5b50505050866001600160a01b0316816001600160a01b0316836001600160a01b03167f0750718f1dad9859b1924ddb61ff4e395f94a35cfafe5210f4121136fa8ccb2560405160405180910390a4965096945050505050565b6000763d602d80600a3d3981f3363d3d373d3d3d363d730000008260601b60e81c176000526e5af43d82803e903d91602b57fd5bf38260781b17602052603760096000f090506001600160a01b0381166103525760405162461bcd60e51b8152602060048201526016602482015275115490cc4c4d8dce8818dc99585d194819985a5b195960521b604482015260640160405180910390fd5b919050565b6001600160a01b038116811461036c57600080fd5b50565b60008060008060008060a0878903121561038857600080fd5b863561039381610357565b955060208701356103a381610357565b945060408701356bffffffffffffffffffffffff811681146103c457600080fd5b93506060870135600b81900b81146103db57600080fd5b9250608087013567ffffffffffffffff808211156103f857600080fd5b818901915089601f83011261040c57600080fd5b81358181111561041b57600080fd5b8a602082850101111561042d57600080fd5b6020830194508093505050509295509295509295565b6001600160a01b0385811682528416602082015260606040820181905281018290526000828460808401376000608084840101526080601f19601f85011683010190509594505050505056fea2646970667358221220cc40e891b54624f8d1e021ed68bbabdf1ad18d1d034898a377ca4fa2c0aaa8e664736f6c63430008100033608060405234801561001057600080fd5b50612b80806100206000396000f3fe608060405234801561001057600080fd5b50600436106101425760003560e01c806358d7bf80116100b8578063a6dd4c661161007c578063a6dd4c66146102cc578063c62fd9241461034a578063d86ed3e51461035d578063deccb16614610370578063f437bc5914610383578063f8a7689e1461039657600080fd5b806358d7bf80146102635780635c975abb1461028a5780635f9e7d771461029e5780638456cb59146102b1578063884d1f40146102b957600080fd5b80633047d5fb1161010a5780633047d5fb146101d557806330d9c9151461020757806338af3eed1461021a5780633f4ba83a1461022d578063451c3d801461023757806353c11f991461025057600080fd5b8063040e2c20146101475780631054df8c1461017757806321e39ee81461018a578063230dbd29146101ad578063242f17a9146101cd575b600080fd5b60035461015a906001600160a01b031681565b6040516001600160a01b0390911681526020015b60405180910390f35b60025461015a906001600160a01b031681565b61019d610198366004612334565b61039e565b604051901515815260200161016e565b6101c06101bb3660046123ca565b6103e9565b60405161016e91906124e4565b61015a6107fb565b6003546101ef90600160a01b90046001600160601b031681565b6040516001600160601b03909116815260200161016e565b6101c06102153660046124f7565b610827565b60045461015a906001600160a01b031681565b61023561088f565b005b60005461015a906201000090046001600160a01b031681565b6101c061025e3660046123ca565b6109df565b60045461027790600160a01b9004600b0b81565b604051600b9190910b815260200161016e565b60065461019d90600160a01b900460ff1681565b6101c06102ac3660046124f7565b610e3d565b610235610ea4565b6101c06102c73660046124f7565b611001565b6103166102da366004612595565b600560205260009081526040902080546001820154600290920154600b82900b926001600160a01b03600160601b909304831692908116911684565b60408051600b9590950b85526001600160a01b0393841660208601529183169184019190915216606082015260800161016e565b6102356103583660046125b2565b611064565b6101c061036b3660046123ca565b6112d6565b60065461015a906001600160a01b031681565b60015461015a906001600160a01b031681565b61019d61171a565b600354600090670de0b6b3a7640000906103cc906001600160601b03600160a01b9091048116908516612654565b6103d69190612681565b836001600160601b031611905092915050565b6000546060908a908a906001600160a01b038084166201000090920416146104245760405163c1ab6dc160e01b815260040160405180910390fd5b6002546001600160a01b0382811691161461045257604051637f0ed44d60e11b815260040160405180910390fd5b6001546001600160a01b0316331461047c576040516282b42960e81b815260040160405180910390fd5b600654600160a01b900460ff16156104a757604051631309a56360e01b815260040160405180910390fd5b84848080601f01602080910402602001604051908101604052809392919081815260200183838082843760009201829052509396506104ec92505050898b018b6126a3565b50600080549192509061050f906201000090046001600160a01b03168330611787565b600454909150600160a01b9004600b90810b9082900b1215610544576040516353a24db360e11b815260040160405180910390fd5b600154604051631fb6491d60e11b81526000916001600160a01b031690633f6c923a90610577908b908b906004016126d1565b600060405180830381865afa158015610594573d6000803e3d6000fd5b505050506040513d6000823e601f3d908101601f191682016040526105bc91908101906127ff565b60a001518060200190518101906105d39190612905565b6006549091506001600160a01b03166105ed83858461181f565b61060a5760405163bbc8aeff60e01b815260040160405180910390fd5b6006546001600160a01b03908116908216811461073f576001600160a01b038083166000908152600560205260408120549054610655926201000090910416908490600b0b8b611973565b600054909850610676906201000090046001600160a01b031630838b611a9c565b6001600160a01b038083166000908152600560205260408120546004549154939b50600b0b926106b2926201000090910481169116838c611b27565b600354604051631ff0045b60e01b81526001600160a01b038581166004830152929b50911690631ff0045b90602401600060405180830381600087803b1580156106fb57600080fd5b505af115801561070f573d6000803e3d6000fd5b50506040516001600160a01b03808616935086169150600080516020612b2b83398151915290600090a3506107a4565b816001600160a01b0316856001600160a01b0316036107835760045460005461077c916001600160a01b036201000090920482169116868b611b27565b97506107a4565b6000546107a1906201000090046001600160a01b031686868b611b27565b97505b604051600b85900b81526001600160a01b038616907ff107c9a55c1c8c5b73dd9e8516d71363e40fa2cd96b1063039020d13bac996b6906020015b60405180910390a2505050505050509998505050505050505050565b600654600090600160a01b900460ff1661081f57506006546001600160a01b031690565b60005b905090565b60405162461bcd60e51b815260206004820152602f60248201527f556e737570706f727465642063616c6c6261636b202d204265666f726520416760448201526e1c99595b595b9d0810dc99585d1959608a1b60648201526060906084015b60405180910390fd5b6003546001600160a01b031633146108b9576040516282b42960e81b815260040160405180910390fd5b600654600160a01b900460ff166108e35760405163bc871ce560e01b815260040160405180910390fd5b6006805460ff60a01b1981169091556001600160a01b031680156109b35760005461091e906201000090046001600160a01b03163083611b74565b506001600160a01b038082166000908152600560205260408120549054610952926201000090910416908390600b0b611ca8565b50600354604051631ff0045b60e01b81526001600160a01b03838116600483015290911690631ff0045b90602401600060405180830381600087803b15801561099a57600080fd5b505af11580156109ae573d6000803e3d6000fd5b505050505b6040517fa45f47fdea8a1efdd9029a5691c7f759c32b7c698632b563573e155625d1693390600090a150565b6001546060906001600160a01b03163314610a0c576040516282b42960e81b815260040160405180910390fd5b6000546001600160a01b038b81166201000090920416141580610a3d57506002546001600160a01b038a8116911614155b15610a815782828080601f016020809104026020016040519081016040528093929190818152602001838380828437600092019190915250929350610e3092505050565b82828080601f0160208091040260200160405190810160405280939291908181526020018383808284376000920182905250939450839250610ac8915050888a018a6126a3565b90925090506001600160a01b03821630148015610af257506004546001600160a01b038281169116145b15610b3b576004546006546001600160a01b039081166000908152600560205260408120549054610b3293620100009091048316921690600b0b86611973565b92505050610e30565b306001600160a01b03831603610b7f576001600160a01b038082166000908152600560205260408120549054610b32926201000090910416908390600b0b86611973565b6006546001600160a01b0316610b9483611d33565b610ba057505050610e30565b6006546001600160a01b031680610c9657600654600160a01b900460ff1615610be857600054610be1906201000090046001600160a01b0316308488611a9c565b9450610c6d565b600454600054610c0d916001600160a01b036201000090920482169130911688611a9c565b600354604051631ff0045b60e01b8152600060048201529196506001600160a01b031690631ff0045b90602401600060405180830381600087803b158015610c5457600080fd5b505af1158015610c68573d6000803e3d6000fd5b505050505b6040516000906001600160a01b03841690600080516020612b2b833981519152908390a3610df7565b806001600160a01b0316826001600160a01b031614610dd657600654600160a01b900460ff1615610ce657600054610cdf906201000090046001600160a01b0316308488611a9c565b9450610da3565b600054610d04906201000090046001600160a01b0316308388611a9c565b6004546001600160a01b038381166000908152600560205260408120549054939850610d41936201000090048216929190911690600b0b88611b27565b600354604051631ff0045b60e01b81526001600160a01b038481166004830152929750911690631ff0045b90602401600060405180830381600087803b158015610d8a57600080fd5b505af1158015610d9e573d6000803e3d6000fd5b505050505b806001600160a01b0316826001600160a01b0316600080516020612b2b83398151915260405160405180910390a3610df7565b600054610df4906201000090046001600160a01b0316308688611a9c565b94505b6040516001600160a01b038516907fbfac3114239697072633122ba53cf5159c7204bab6e8e4a4cab49d766261b1a390600090a2505050505b9998505050505050505050565b60405162461bcd60e51b815260206004820152603360248201527f556e737570706f727465642063616c6c6261636b202d20204265666f7265204160448201527219dc99595b595b9d0815195c9b5a5b985d1959606a1b6064820152606090608401610886565b6003546001600160a01b03163314610ece576040516282b42960e81b815260040160405180910390fd5b600654600160a01b900460ff1615610ef957604051631309a56360e01b815260040160405180910390fd5b6006805460ff60a01b198116600160a01b179091556001600160a01b03168015610fd557600454600054610f41916001600160a01b0362010000909204821691309116611b74565b506001600160a01b038082166000908152600560205260408120549054610f75926201000090910416908390600b0b611ca8565b50600354604051631ff0045b60e01b8152600060048201526001600160a01b0390911690631ff0045b90602401600060405180830381600087803b158015610fbc57600080fd5b505af1158015610fd0573d6000803e3d6000fd5b505050505b6040517f9e87fac88ff661f02d44f95383c817fece4bce600a3dab7a54406878b965e75290600090a150565b60405162461bcd60e51b815260206004820152602f60248201527f556e737570706f727465642063616c6c6261636b202d204265666f726520416760448201526e1c99595b595b9d081d5c19185d1959608a1b6064820152606090608401610886565b600054610100900460ff16158080156110845750600054600160ff909116105b8061109e5750303b15801561109e575060005460ff166001145b6111015760405162461bcd60e51b815260206004820152602e60248201527f496e697469616c697a61626c653a20636f6e747261637420697320616c72656160448201526d191e481a5b9a5d1a585b1a5e995960921b6064820152608401610886565b6000805460ff191660011790558015611124576000805461ff0019166101001790555b6001600160a01b03871661113757600080fd5b6001600160a01b03881661114a57600080fd5b6001600160a01b03841661115d57600080fd5b604051631e51d6a760e11b81526001600160a01b038581166004830152881690633ca3ad4e90602401602060405180830381865afa1580156111a3573d6000803e3d6000fd5b505050506040513d601f19601f820116820180604052508101906111c79190612922565b156111d157600080fd5b670de0b6b3a7640000836001600160601b031610156111ef57600080fd5b600082600b0b121561120057600080fd5b6000805462010000600160b01b031916620100006001600160a01b038b81169190910291909117909155600180546001600160a01b03199081168a84161790915560028054909116888316179055858116600160a01b6001600160601b038681168202929092176003559186169084168202176004556006805460ff60a01b1916909117905580156112cc576000805461ff0019169055604051600181527f7f26b83ff96e1f2b6a682f133852f6798a09c465da95921460cefb38474024989060200160405180910390a15b5050505050505050565b6000546060908a908a906001600160a01b038084166201000090920416146113115760405163c1ab6dc160e01b815260040160405180910390fd5b6002546001600160a01b0382811691161461133f57604051637f0ed44d60e11b815260040160405180910390fd5b6001546001600160a01b03163314611369576040516282b42960e81b815260040160405180910390fd5b600654600160a01b900460ff161561139457604051631309a56360e01b815260040160405180910390fd5b84848080601f01602080910402602001604051908101604052809392919081815260200183838082843760009201829052509396506113d992505050898b018b6126a3565b506004549091506001600160a01b0390811690821681900361140e576040516322fe227560e11b815260040160405180910390fd5b600154604051631e51d6a760e11b81526001600160a01b03848116600483015290911690633ca3ad4e90602401602060405180830381865afa158015611458573d6000803e3d6000fd5b505050506040513d601f19601f8201168201806040525081019061147c9190612922565b1561149a57604051635f5a76ff60e01b815260040160405180910390fd5b600080546114b8906201000090046001600160a01b03168430611787565b600454909150600160a01b9004600b90810b9082900b12156114ed576040516353a24db360e11b815260040160405180910390fd5b600154604051631fb6491d60e11b81526000916001600160a01b031690633f6c923a90611520908c908c906004016126d1565b600060405180830381865afa15801561153d573d6000803e3d6000fd5b505050506040513d6000823e601f3d908101601f1916820160405261156591908101906127ff565b60a0015180602001905181019061157c9190612905565b6006549091506001600160a01b0316611596838684611e48565b6001600160a01b0382166116ba576001600160a01b0381166115d7576000546115d0906201000090046001600160a01b031685858b611973565b9750611630565b6000546115f5906201000090046001600160a01b031685858b611b27565b6001600160a01b038083166000908152600560205260408120549054929a5061162d92620100009004909116908390600b0b8b611973565b97505b600354604051631ff0045b60e01b81526001600160a01b03878116600483015290911690631ff0045b90602401600060405180830381600087803b15801561167757600080fd5b505af115801561168b573d6000803e3d6000fd5b50506040516001600160a01b03808916935084169150600080516020612b2b83398151915290600090a36116db565b6000546116d8906201000090046001600160a01b031686858b611973565b97505b604051600b84900b81526001600160a01b038616907f30949e21a78dbc0dc28487c7b161e2dae458d14cd0035ce167c50c64b97fe8e6906020016107df565b600154604051636b4f333560e01b81523060048201526000916001600160a01b031690636b4f333590602401602060405180830381865afa158015611763573d6000803e3d6000fd5b505050506040513d601f19601f820116820180604052508101906108229190612922565b60008061179385611ff6565b604051631cd43d1160e31b81526001600160a01b03888116600483015287811660248301528681166044830152919350908316915063e6a1e88890606401608060405180830381865afa1580156117ee573d6000803e3d6000fd5b505050506040513d601f19601f820116820180604052508101906118129190612944565b5090979650505050505050565b6001600160a01b03821660009081526005602052604081208054600b0b820361184c57600091505061196c565b805460018201546001600160a01b03600160601b90920482169190811690851603611950576001600160a01b038116158015906118b557508154600160601b90046001600160a01b03166000908152600560205260409020546118b3908790600b0b61039e565b155b156118d3576040516353a24db360e11b815260040160405180910390fd5b6001600160a01b0384161580159061190f575060018201546001600160a01b0316600090815260056020526040902054600b90810b9087900b12155b1561192d57604051636de0c2b160e11b815260040160405180910390fd5b81546bffffffffffffffffffffffff19166001600160601b038716178255611965565b61195985611d33565b50611965868686611e48565b6001925050505b9392505050565b606060008061198187612177565b91509150816001600160a01b0316634329d29382836001600160a01b03166362fc305e8b8b8b60006001600160401b038111156119c0576119c0612700565b6040519080825280601f01601f1916602001820160405280156119ea576020820181803683370190505b506040516024016119fe9493929190612982565b60408051808303601f1901815291815260208201805160e094851b6001600160e01b03909116179052519185901b6001600160e01b0319168252611a499392509089906004016129b8565b6000604051808303816000875af1158015611a68573d6000803e3d6000fd5b505050506040513d6000823e601f3d908101601f19168201604052611a909190810190612a0b565b50979650505050505050565b6060600080611aaa87612177565b91509150816001600160a01b0316634329d29382836001600160a01b031663b4b333c68b8b8b60006001600160401b03811115611ae957611ae9612700565b6040519080825280601f01601f191660200182016040528015611b13576020820181803683370190505b506040516024016119fe9493929190612a6e565b6060600080611b3587612177565b91509150816001600160a01b0316634329d29382836001600160a01b03166350209a628b8b8b60006001600160401b038111156119c0576119c0612700565b6000806000611b8286612177565b91509150816001600160a01b03166339255d5b82836001600160a01b031663b4b333c68a8a8a60006001600160401b03811115611bc157611bc1612700565b6040519080825280601f01601f191660200182016040528015611beb576020820181803683370190505b50604051602401611bff9493929190612a6e565b60408051601f19818403018152918152602080830180516001600160e01b031660e095861b179052815160008152908101918290529286901b6001600160e01b0319169052611c549392509060248101612aa2565b6000604051808303816000875af1158015611c73573d6000803e3d6000fd5b505050506040513d6000823e601f3d908101601f19168201604052611c9b9190810190612ad8565b5060019695505050505050565b6000806000611cb686612177565b91509150816001600160a01b03166339255d5b82836001600160a01b03166362fc305e8a8a8a60006001600160401b03811115611cf557611cf5612700565b6040519080825280601f01601f191660200182016040528015611d1f576020820181803683370190505b50604051602401611bff9493929190612982565b6001600160a01b03811660009081526005602052604081208054600b0b8203611d5f5750600092915050565b8054600160601b90046001600160a01b031615611db8576001808201548254600160601b90046001600160a01b03908116600090815260056020526040902090920180546001600160a01b031916929091169190911790555b60018101546001600160a01b031615611e0d57805460018201546001600160a01b03908116600090815260056020526040902080546001600160601b0316600160601b93849004909216909202179055611e37565b805460068054600160601b9092046001600160a01b03166001600160a01b03199092169190911790555b600080825560019182015592915050565b60006001600160a01b038216611e7d5750600680546001600160a01b038481166001600160a01b031983161790925516611f18565b6001600160a01b038216600090815260056020526040812080549091600b9190910b9003611ebe576040516367713bc560e11b815260040160405180910390fd5b80546001600160a01b03600160601b8204169250600b90810b9086900b12611ef957604051636de0c2b160e11b815260040160405180910390fd5b80546001600160601b0316600160601b6001600160a01b038616021790555b6001600160a01b03811615611f89576001600160a01b03811660009081526005602052604090208054611f4f908690600b0b61039e565b611f6c576040516353a24db360e11b815260040160405180910390fd5b60010180546001600160a01b0319166001600160a01b0385161790555b6001600160a01b0392831660008181526005602052604090206001810180549486166001600160a01b03199586161790556002810180549094169091179092556001600160601b039390931692909116600160601b026bffffffffffffffffffffffff1916919091179055565b7f65599bf746e17a00ea62e3610586992d88101b78eec3cf380706621fb97ea837547fb969d79d88acd02d04ed7ee7d43b949e7daf093d363abcfbbc43dfdfd1ce969a546001600160a01b038116612146576001600160a01b0382166120bb57826001600160a01b03166320bc44256040518163ffffffff1660e01b8152600401602060405180830381865afa158015612094573d6000803e3d6000fd5b505050506040513d601f19601f820116820180604052508101906120b89190612905565b91505b604051635b69006f60e11b81527fa9214cc96615e0085d3bb077758db69497dc2dce3b2b1e97bc93c3d18d83efd360048201526001600160a01b0383169063b6d200de90602401602060405180830381865afa15801561211f573d6000803e3d6000fd5b505050506040513d601f19601f820116820180604052508101906121439190612905565b90505b6001600160a01b03821661215c5761215c612b14565b6001600160a01b03811661217257612172612b14565b915091565b7f65599bf746e17a00ea62e3610586992d88101b78eec3cf380706621fb97ea837547fb969d79d88acd02d04ed7ee7d43b949e7daf093d363abcfbbc43dfdfd1ce969a546001600160a01b038116612146576001600160a01b03821661223c57826001600160a01b03166320bc44256040518163ffffffff1660e01b8152600401602060405180830381865afa158015612215573d6000803e3d6000fd5b505050506040513d601f19601f820116820180604052508101906122399190612905565b91505b604051635b69006f60e11b81527fa9214cc96615e0085d3bb077758db69497dc2dce3b2b1e97bc93c3d18d83efd360048201526001600160a01b0383169063b6d200de90602401602060405180830381865afa1580156122a0573d6000803e3d6000fd5b505050506040513d601f19601f820116820180604052508101906122c49190612905565b9050817f65599bf746e17a00ea62e3610586992d88101b78eec3cf380706621fb97ea83755807fb969d79d88acd02d04ed7ee7d43b949e7daf093d363abcfbbc43dfdfd1ce969a556001600160a01b03821661215c5761215c612b14565b80600b0b811461233157600080fd5b50565b6000806040838503121561234757600080fd5b823561235281612322565b9150602083013561236281612322565b809150509250929050565b6001600160a01b038116811461233157600080fd5b60008083601f84011261239457600080fd5b5081356001600160401b038111156123ab57600080fd5b6020830191508360208285010111156123c357600080fd5b9250929050565b600080600080600080600080600060c08a8c0312156123e857600080fd5b89356123f38161236d565b985060208a01356124038161236d565b975060408a0135965060608a01356001600160401b038082111561242657600080fd5b6124328d838e01612382565b909850965060808c013591508082111561244b57600080fd5b6124578d838e01612382565b909650945060a08c013591508082111561247057600080fd5b5061247d8c828d01612382565b915080935050809150509295985092959850929598565b60005b838110156124af578181015183820152602001612497565b50506000910152565b600081518084526124d0816020860160208601612494565b601f01601f19169290920160200192915050565b60208152600061196c60208301846124b8565b600080600080600080600060a0888a03121561251257600080fd5b873561251d8161236d565b9650602088013561252d8161236d565b95506040880135945060608801356001600160401b038082111561255057600080fd5b61255c8b838c01612382565b909650945060808a013591508082111561257557600080fd5b506125828a828b01612382565b989b979a50959850939692959293505050565b6000602082840312156125a757600080fd5b813561196c8161236d565b600080600080600080600060e0888a0312156125cd57600080fd5b87356125d88161236d565b965060208801356125e88161236d565b955060408801356125f88161236d565b945060608801356126088161236d565b935060808801356126188161236d565b925060a08801356001600160601b038116811461263457600080fd5b915060c088013561264481612322565b8091505092959891949750929550565b600081600019048311821515161561267c57634e487b7160e01b600052601160045260246000fd5b500290565b60008261269e57634e487b7160e01b600052601260045260246000fd5b500490565b600080604083850312156126b657600080fd5b82356126c18161236d565b915060208301356123628161236d565b60208152816020820152818360408301376000818301604090810191909152601f909201601f19160101919050565b634e487b7160e01b600052604160045260246000fd5b60405161016081016001600160401b038111828210171561273957612739612700565b60405290565b805160ff8116811461275057600080fd5b919050565b80516127508161236d565b80516001600160e01b03198116811461275057600080fd5b600082601f83011261278957600080fd5b81516001600160401b03808211156127a3576127a3612700565b604051601f8301601f19908116603f011681019082821181831017156127cb576127cb612700565b816040528381528660208588010111156127e457600080fd5b6127f5846020830160208901612494565b9695505050505050565b60006020828403121561281157600080fd5b81516001600160401b038082111561282857600080fd5b90830190610160828603121561283d57600080fd5b612845612716565b61284e8361273f565b815261285c6020840161273f565b60208201526040830151604082015261287760608401612755565b606082015261288860808401612760565b608082015260a08301518281111561289f57600080fd5b6128ab87828601612778565b60a08301525060c083015160c082015260e083015160e08201526101009150818301518282015261012091506128e2828401612755565b8282015261014091506128f6828401612755565b91810191909152949350505050565b60006020828403121561291757600080fd5b815161196c8161236d565b60006020828403121561293457600080fd5b8151801515811461196c57600080fd5b6000806000806080858703121561295a57600080fd5b84519350602085015161296c81612322565b6040860151606090960151949790965092505050565b6001600160a01b03858116825284166020820152600b83900b60408201526080606082018190526000906127f5908301846124b8565b6001600160a01b03841681526080602082018190526000906129dc908301856124b8565b8281038060408501526002825261060f60f31b6020830152604081016060850152506127f560408201856124b8565b60008060408385031215612a1e57600080fd5b82516001600160401b0380821115612a3557600080fd5b612a4186838701612778565b93506020850151915080821115612a5757600080fd5b50612a6485828601612778565b9150509250929050565b6001600160a01b0385811682528481166020830152831660408201526080606082018190526000906127f5908301846124b8565b6001600160a01b0384168152606060208201819052600090612ac6908301856124b8565b82810360408401526127f581856124b8565b600060208284031215612aea57600080fd5b81516001600160401b03811115612b0057600080fd5b612b0c84828501612778565b949350505050565b634e487b7160e01b600052600160045260246000fdfe534932c0ecc45789d37732d7a4b2d357b687ce7f35a7805bfb76df267e3dd66fa2646970667358221220368ac3438161dd9a8a730c20edc049062f8c43fecee86b3882afb4a4eac6273564736f6c63430008100033",
    "linkReferences": {}
  },
  "methodIdentifiers": {
    "create(address,address,uint96,int96,bytes)": "37e1ed4a"
  },
  "id": 42
}