{
  "abi": [
    {
      "inputs": [],
      "name": "AlreadyInBiddingPhase",
      "type": "error"
    },
    {
      "inputs": [],
      "name": "AlreadyInRentalPhase",
      "type": "error"
    },
    {
      "inputs": [],
      "name": "BeneficiaryCannotBid",
      "type": "error"
    },
    {
      "inputs": [],
      "name": "CurrentPhaseNotEnded",
      "type": "error"
    },
    {
      "inputs": [],
      "name": "DepositAlreadyClaimed",
      "type": "error"
    },
    {
      "inputs": [],
      "name": "FlowRateTooLow",
      "type": "error"
    },
    {
      "inputs": [],
      "name": "InvalidAgreement",
      "type": "error"
    },
    {
      "inputs": [],
      "name": "InvalidFlowRate",
      "type": "error"
    },
    {
      "inputs": [],
      "name": "InvalidToken",
      "type": "error"
    },
    {
      "inputs": [],
      "name": "IsNotPaused",
      "type": "error"
    },
    {
      "inputs": [],
      "name": "IsPaused",
      "type": "error"
    },
    {
      "inputs": [],
      "name": "NotBiddingPhase",
      "type": "error"
    },
    {
      "inputs": [],
      "name": "NotRentalPhase",
      "type": "error"
    },
    {
      "inputs": [],
      "name": "SuperAppCannotBid",
      "type": "error"
    },
    {
      "inputs": [],
      "name": "TooEarlyToReclaimDeposit",
      "type": "error"
    },
    {
      "inputs": [],
      "name": "Unauthorized",
      "type": "error"
    },
    {
      "anonymous": false,
      "inputs": [
        {
          "indexed": true,
          "internalType": "address",
          "name": "renter",
          "type": "address"
        },
        {
          "indexed": false,
          "internalType": "uint256",
          "name": "amount",
          "type": "uint256"
        }
      ],
      "name": "DepositClaimed",
      "type": "event"
    },
    {
      "anonymous": false,
      "inputs": [
        {
          "indexed": false,
          "internalType": "uint8",
          "name": "version",
          "type": "uint8"
        }
      ],
      "name": "Initialized",
      "type": "event"
    },
    {
      "anonymous": false,
      "inputs": [
        {
          "indexed": true,
          "internalType": "address",
          "name": "bidder",
          "type": "address"
        },
        {
          "indexed": false,
          "internalType": "int96",
          "name": "flowRate",
          "type": "int96"
        }
      ],
      "name": "NewTopBid",
      "type": "event"
    },
    {
      "anonymous": false,
      "inputs": [
        {
          "indexed": true,
          "internalType": "address",
          "name": "topBidder",
          "type": "address"
        },
        {
          "indexed": false,
          "internalType": "int96",
          "name": "flowRate",
          "type": "int96"
        }
      ],
      "name": "Paused",
      "type": "event"
    },
    {
      "anonymous": false,
      "inputs": [
        {
          "indexed": true,
          "internalType": "address",
          "name": "topBidder",
          "type": "address"
        },
        {
          "indexed": false,
          "internalType": "int96",
          "name": "flowRate",
          "type": "int96"
        }
      ],
      "name": "TransitionToRentalPhaseFailed",
      "type": "event"
    },
    {
      "anonymous": false,
      "inputs": [],
      "name": "TransitionedToBiddingPhase",
      "type": "event"
    },
    {
      "anonymous": false,
      "inputs": [
        {
          "indexed": true,
          "internalType": "address",
          "name": "renter",
          "type": "address"
        },
        {
          "indexed": false,
          "internalType": "int96",
          "name": "flowRate",
          "type": "int96"
        }
      ],
      "name": "TransitionedToBiddingPhaseEarly",
      "type": "event"
    },
    {
      "anonymous": false,
      "inputs": [
        {
          "indexed": true,
          "internalType": "address",
          "name": "renter",
          "type": "address"
        },
        {
          "indexed": false,
          "internalType": "int96",
          "name": "flowRate",
          "type": "int96"
        }
      ],
      "name": "TransitionedToRentalPhase",
      "type": "event"
    },
    {
      "anonymous": false,
      "inputs": [],
      "name": "Unpaused",
      "type": "event"
    },
    {
      "inputs": [],
      "name": "acceptedToken",
      "outputs": [
        {
          "internalType": "contract ISuperToken",
          "name": "",
          "type": "address"
        }
      ],
      "stateMutability": "view",
      "type": "function"
    },
    {
      "inputs": [
        {
          "internalType": "contract ISuperToken",
          "name": "",
          "type": "address"
        },
        {
          "internalType": "address",
          "name": "",
          "type": "address"
        },
        {
          "internalType": "bytes32",
          "name": "",
          "type": "bytes32"
        },
        {
          "internalType": "bytes",
          "name": "",
          "type": "bytes"
        },
        {
          "internalType": "bytes",
          "name": "",
          "type": "bytes"
        },
        {
          "internalType": "bytes",
          "name": "_ctx",
          "type": "bytes"
        }
      ],
      "name": "afterAgreementCreated",
      "outputs": [
        {
          "internalType": "bytes",
          "name": "newCtx",
          "type": "bytes"
        }
      ],
      "stateMutability": "nonpayable",
      "type": "function"
    },
    {
      "inputs": [
        {
          "internalType": "contract ISuperToken",
          "name": "_superToken",
          "type": "address"
        },
        {
          "internalType": "address",
          "name": "_agreementClass",
          "type": "address"
        },
        {
          "internalType": "bytes32",
          "name": "",
          "type": "bytes32"
        },
        {
          "internalType": "bytes",
          "name": "_agreementData",
          "type": "bytes"
        },
        {
          "internalType": "bytes",
          "name": "",
          "type": "bytes"
        },
        {
          "internalType": "bytes",
          "name": "_ctx",
          "type": "bytes"
        }
      ],
      "name": "afterAgreementTerminated",
      "outputs": [
        {
          "internalType": "bytes",
          "name": "newCtx",
          "type": "bytes"
        }
      ],
      "stateMutability": "nonpayable",
      "type": "function"
    },
    {
      "inputs": [
        {
          "internalType": "contract ISuperToken",
          "name": "",
          "type": "address"
        },
        {
          "internalType": "address",
          "name": "",
          "type": "address"
        },
        {
          "internalType": "bytes32",
          "name": "",
          "type": "bytes32"
        },
        {
          "internalType": "bytes",
          "name": "",
          "type": "bytes"
        },
        {
          "internalType": "bytes",
          "name": "",
          "type": "bytes"
        },
        {
          "internalType": "bytes",
          "name": "",
          "type": "bytes"
        }
      ],
      "name": "afterAgreementUpdated",
      "outputs": [
        {
          "internalType": "bytes",
          "name": "",
          "type": "bytes"
        }
      ],
      "stateMutability": "nonpayable",
      "type": "function"
    },
    {
      "inputs": [
        {
          "internalType": "contract ISuperToken",
          "name": "",
          "type": "address"
        },
        {
          "internalType": "address",
          "name": "",
          "type": "address"
        },
        {
          "internalType": "bytes32",
          "name": "",
          "type": "bytes32"
        },
        {
          "internalType": "bytes",
          "name": "",
          "type": "bytes"
        },
        {
          "internalType": "bytes",
          "name": "",
          "type": "bytes"
        }
      ],
      "name": "beforeAgreementCreated",
      "outputs": [
        {
          "internalType": "bytes",
          "name": "",
          "type": "bytes"
        }
      ],
      "stateMutability": "view",
      "type": "function"
    },
    {
      "inputs": [
        {
          "internalType": "contract ISuperToken",
          "name": "",
          "type": "address"
        },
        {
          "internalType": "address",
          "name": "",
          "type": "address"
        },
        {
          "internalType": "bytes32",
          "name": "",
          "type": "bytes32"
        },
        {
          "internalType": "bytes",
          "name": "",
          "type": "bytes"
        },
        {
          "internalType": "bytes",
          "name": "",
          "type": "bytes"
        }
      ],
      "name": "beforeAgreementTerminated",
      "outputs": [
        {
          "internalType": "bytes",
          "name": "",
          "type": "bytes"
        }
      ],
      "stateMutability": "view",
      "type": "function"
    },
    {
      "inputs": [
        {
          "internalType": "contract ISuperToken",
          "name": "",
          "type": "address"
        },
        {
          "internalType": "address",
          "name": "",
          "type": "address"
        },
        {
          "internalType": "bytes32",
          "name": "",
          "type": "bytes32"
        },
        {
          "internalType": "bytes",
          "name": "",
          "type": "bytes"
        },
        {
          "internalType": "bytes",
          "name": "",
          "type": "bytes"
        }
      ],
      "name": "beforeAgreementUpdated",
      "outputs": [
        {
          "internalType": "bytes",
          "name": "",
          "type": "bytes"
        }
      ],
      "stateMutability": "view",
      "type": "function"
    },
    {
      "inputs": [],
      "name": "beneficiary",
      "outputs": [
        {
          "internalType": "address",
          "name": "",
          "type": "address"
        }
      ],
      "stateMutability": "view",
      "type": "function"
    },
    {
      "inputs": [],
      "name": "biddingPhaseDuration",
      "outputs": [
        {
          "internalType": "uint64",
          "name": "",
          "type": "uint64"
        }
      ],
      "stateMutability": "view",
      "type": "function"
    },
    {
      "inputs": [],
      "name": "biddingPhaseExtensionDuration",
      "outputs": [
        {
          "internalType": "uint64",
          "name": "",
          "type": "uint64"
        }
      ],
      "stateMutability": "view",
      "type": "function"
    },
    {
      "inputs": [],
      "name": "cfa",
      "outputs": [
        {
          "internalType": "contract IConstantFlowAgreementV1",
          "name": "",
          "type": "address"
        }
      ],
      "stateMutability": "view",
      "type": "function"
    },
    {
      "inputs": [],
      "name": "controllerObserver",
      "outputs": [
        {
          "internalType": "contract IRentalAuctionControllerObserver",
          "name": "",
          "type": "address"
        }
      ],
      "stateMutability": "view",
      "type": "function"
    },
    {
      "inputs": [],
      "name": "currentPhaseEndTime",
      "outputs": [
        {
          "internalType": "uint256",
          "name": "",
          "type": "uint256"
        }
      ],
      "stateMutability": "view",
      "type": "function"
    },
    {
      "inputs": [],
      "name": "currentRenter",
      "outputs": [
        {
          "internalType": "address",
          "name": "",
          "type": "address"
        }
      ],
      "stateMutability": "view",
      "type": "function"
    },
    {
      "inputs": [],
      "name": "depositClaimed",
      "outputs": [
        {
          "internalType": "bool",
          "name": "",
          "type": "bool"
        }
      ],
      "stateMutability": "view",
      "type": "function"
    },
    {
      "inputs": [],
      "name": "host",
      "outputs": [
        {
          "internalType": "contract ISuperfluid",
          "name": "",
          "type": "address"
        }
      ],
      "stateMutability": "view",
      "type": "function"
    },
    {
      "inputs": [
        {
          "internalType": "contract ISuperToken",
          "name": "_acceptedToken",
          "type": "address"
        },
        {
          "internalType": "contract ISuperfluid",
          "name": "_host",
          "type": "address"
        },
        {
          "internalType": "contract IConstantFlowAgreementV1",
          "name": "_cfa",
          "type": "address"
        },
        {
          "internalType": "contract IRentalAuctionControllerObserver",
          "name": "_controllerObserver",
          "type": "address"
        },
        {
          "internalType": "address",
          "name": "_beneficiary",
          "type": "address"
        },
        {
          "internalType": "uint96",
          "name": "_minimumBidFactorWad",
          "type": "uint96"
        },
        {
          "internalType": "int96",
          "name": "_reserveRate",
          "type": "int96"
        },
        {
          "internalType": "uint64",
          "name": "_minRentalDuration",
          "type": "uint64"
        },
        {
          "internalType": "uint64",
          "name": "_maxRentalDuration",
          "type": "uint64"
        },
        {
          "internalType": "uint64",
          "name": "_biddingPhaseDuration",
          "type": "uint64"
        },
        {
          "internalType": "uint64",
          "name": "_biddingPhaseExtensionDuration",
          "type": "uint64"
        }
      ],
      "name": "initialize",
      "outputs": [],
      "stateMutability": "nonpayable",
      "type": "function"
    },
    {
      "inputs": [
        {
          "internalType": "int96",
          "name": "upper",
          "type": "int96"
        },
        {
          "internalType": "int96",
          "name": "lower",
          "type": "int96"
        }
      ],
      "name": "isBidHigher",
      "outputs": [
        {
          "internalType": "bool",
          "name": "",
          "type": "bool"
        }
      ],
      "stateMutability": "view",
      "type": "function"
    },
    {
      "inputs": [],
      "name": "isBiddingPhase",
      "outputs": [
        {
          "internalType": "bool",
          "name": "",
          "type": "bool"
        }
      ],
      "stateMutability": "view",
      "type": "function"
    },
    {
      "inputs": [],
      "name": "isJailed",
      "outputs": [
        {
          "internalType": "bool",
          "name": "",
          "type": "bool"
        }
      ],
      "stateMutability": "view",
      "type": "function"
    },
    {
      "inputs": [],
      "name": "maxRentalDuration",
      "outputs": [
        {
          "internalType": "uint64",
          "name": "",
          "type": "uint64"
        }
      ],
      "stateMutability": "view",
      "type": "function"
    },
    {
      "inputs": [],
      "name": "minRentalDuration",
      "outputs": [
        {
          "internalType": "uint64",
          "name": "",
          "type": "uint64"
        }
      ],
      "stateMutability": "view",
      "type": "function"
    },
    {
      "inputs": [],
      "name": "minimumBidFactorWad",
      "outputs": [
        {
          "internalType": "uint256",
          "name": "",
          "type": "uint256"
        }
      ],
      "stateMutability": "view",
      "type": "function"
    },
    {
      "inputs": [],
      "name": "pause",
      "outputs": [],
      "stateMutability": "nonpayable",
      "type": "function"
    },
    {
      "inputs": [],
      "name": "paused",
      "outputs": [
        {
          "internalType": "bool",
          "name": "",
          "type": "bool"
        }
      ],
      "stateMutability": "view",
      "type": "function"
    },
    {
      "inputs": [
        {
          "internalType": "int96",
          "name": "flowRate",
          "type": "int96"
        }
      ],
      "name": "placeBid",
      "outputs": [],
      "stateMutability": "nonpayable",
      "type": "function"
    },
    {
      "inputs": [
        {
          "internalType": "int96",
          "name": "flowRate",
          "type": "int96"
        },
        {
          "internalType": "bytes",
          "name": "_ctx",
          "type": "bytes"
        }
      ],
      "name": "placeBid",
      "outputs": [
        {
          "internalType": "bytes",
          "name": "",
          "type": "bytes"
        }
      ],
      "stateMutability": "nonpayable",
      "type": "function"
    },
    {
      "inputs": [],
      "name": "reclaimDeposit",
      "outputs": [],
      "stateMutability": "nonpayable",
      "type": "function"
    },
    {
      "inputs": [],
      "name": "reserveRate",
      "outputs": [
        {
          "internalType": "int96",
          "name": "",
          "type": "int96"
        }
      ],
      "stateMutability": "view",
      "type": "function"
    },
    {
      "inputs": [],
      "name": "topBidder",
      "outputs": [
        {
          "internalType": "address",
          "name": "",
          "type": "address"
        }
      ],
      "stateMutability": "view",
      "type": "function"
    },
    {
      "inputs": [],
      "name": "topFlowRate",
      "outputs": [
        {
          "internalType": "int96",
          "name": "",
          "type": "int96"
        }
      ],
      "stateMutability": "view",
      "type": "function"
    },
    {
      "inputs": [],
      "name": "transitionToBiddingPhase",
      "outputs": [],
      "stateMutability": "nonpayable",
      "type": "function"
    },
    {
      "inputs": [],
      "name": "transitionToRentalPhase",
      "outputs": [],
      "stateMutability": "nonpayable",
      "type": "function"
    },
    {
      "inputs": [],
      "name": "unpause",
      "outputs": [],
      "stateMutability": "nonpayable",
      "type": "function"
    }
  ],
  "bytecode": {
    "object": "0x608060405234801561001057600080fd5b50612d0b806100206000396000f3fe608060405234801561001057600080fd5b50600436106102065760003560e01c806353c11f991161011a5780638456cb59116100ad578063ac99adf01161007c578063ac99adf014610471578063b0dd16341461048b578063d86ed3e514610494578063f437bc59146104a7578063f8a7689e146104ba57600080fd5b80638456cb5914610434578063884d1f401461043c57806396f6fe911461044f5780639abb8a5f1461046957600080fd5b80635f9e7d77116100e95780635f9e7d77146103ec5780636ecea2ec146103ff5780637ce4026f1461040757806383e98bc31461042157600080fd5b806353c11f99146103a057806356898a4e146103b357806358d7bf80146103c65780635c975abb146103da57600080fd5b8063230dbd291161019d57806334f1a8d31161016c57806334f1a8d31461032e57806338af3eed146103595780633ed58ed11461036c5780633f4ba83a1461037f578063451c3d801461038757600080fd5b8063230dbd29146102dc578063242f17a9146102fc5780633047d5fb1461030457806330d9c9151461031b57600080fd5b806317ddfb48116101d957806317ddfb48146102885780631e319aee146102ac5780631f3ff68d146102c157806321e39ee8146102c957600080fd5b806301333f061461020b578063016c2d9a1461023b578063040e2c20146102625780631054df8c14610275575b600080fd5b60075461021e906001600160a01b031681565b6040516001600160a01b0390911681526020015b60405180910390f35b60075461024f90600160a01b9004600b0b81565b604051600b9190910b8152602001610232565b60035461021e906001600160a01b031681565b60025461021e906001600160a01b031681565b60085461029c906301000000900460ff1681565b6040519015158152602001610232565b6102bf6102ba3660046123f6565b6104c2565b005b6102bf61053d565b61029c6102d7366004612418565b610726565b6102ef6102ea3660046124a8565b610766565b60405161023291906125c2565b61021e6107cd565b61030d60055481565b604051908152602001610232565b6102ef6103293660046125d5565b6107f8565b600654610341906001600160401b031681565b6040516001600160401b039091168152602001610232565b60045461021e906001600160a01b031681565b6102ef61037a366004612673565b61085b565b6102bf6109be565b60005461021e906201000090046001600160a01b031681565b6102ef6103ae3660046124a8565b610a46565b6102bf6103c13660046126dc565b610ee1565b60045461024f90600160a01b9004600b0b81565b60085461029c90610100900460ff1681565b6102ef6103fa3660046125d5565b6111cc565b6102bf611233565b60065461034190600160401b90046001600160401b031681565b60085461029c9062010000900460ff1681565b6102bf61146e565b6102ef61044a3660046125d5565b61164b565b60065461034190600160801b90046001600160401b031681565b6102bf6116ae565b60065461034190600160c01b90046001600160401b031681565b61030d60095481565b6102ef6104a23660046124a8565b611904565b60015461021e906001600160a01b031681565b61029c611b2c565b60085462010000900460ff1615806104e9575060006009541180156104e957506009544210155b15610507576040516353df604760e11b815260040160405180910390fd5b600854610100900460ff161561053057604051631309a56360e01b815260040160405180910390fd5b61053a3382611b99565b50565b60085462010000900460ff161561056757604051635d1a12e560e01b815260040160405180910390fd5b6007546001600160a01b0316338114610592576040516282b42960e81b815260040160405180910390fd5b6008546301000000900460ff16156105bd57604051630662741160e01b815260040160405180910390fd5b6006546009546000916105e191600160401b9091046001600160401b0316906127d6565b6006549091506105fa906001600160401b0316826127e9565b42101561061a576040516355267b7960e01b815260040160405180910390fd5b6008805463ff0000001916630100000017905560065460075460009161065c916001600160401b03909116906001600160601b03600160a01b909104166127fc565b60005460405163a9059cbb60e01b81526001600160a01b03868116600483015260248201849052929350620100009091049091169063a9059cbb906044016020604051808303816000875af11580156106b9573d6000803e3d6000fd5b505050506040513d601f19601f820116820180604052508101906106dd919061281b565b50826001600160a01b03167fe800e3ea37ded367af4fce9aa5ecaa72b693f315a2c3b6c7a3d07c84196515fb8260405161071991815260200190565b60405180910390a2505050565b6000670de0b6b3a7640000600554836001600160601b031661074891906127fc565b610752919061283d565b836001600160601b03161190505b92915050565b60405162461bcd60e51b815260206004820152602e60248201527f556e737570706f727465642063616c6c6261636b202d2041667465722041677260448201526d19595b595b9d08155c19185d195960921b60648201526060906084015b60405180910390fd5b60085460009062010000900460ff166107f057506007546001600160a01b031690565b60005b905090565b60405162461bcd60e51b815260206004820152602f60248201527f556e737570706f727465642063616c6c6261636b202d204265666f726520416760448201526e1c99595b595b9d0810dc99585d1959608a1b60648201526060906084016107c4565b6001546060906001600160a01b03163314610888576040516282b42960e81b815260040160405180910390fd5b60085462010000900460ff1615806108af575060006009541180156108af57506009544210155b156108cd576040516353df604760e11b815260040160405180910390fd5b600854610100900460ff16156108f657604051631309a56360e01b815260040160405180910390fd5b600154604051631fb6491d60e11b81526000916001600160a01b031690633f6c923a90610929908790879060040161285f565b600060405180830381865afa158015610946573d6000803e3d6000fd5b505050506040513d6000823e601f3d908101601f1916820160405261096e9190810190612988565b60600151905061097e8186611b99565b83838080601f0160208091040260200160405190810160405280939291908181526020018383808284376000920191909152509298975050505050505050565b6003546001600160a01b031633146109e8576040516282b42960e81b815260040160405180910390fd5b600854610100900460ff16610a105760405163bc871ce560e01b815260040160405180910390fd5b6008805461ff00191690556040517fa45f47fdea8a1efdd9029a5691c7f759c32b7c698632b563573e155625d1693390600090a1565b6001546060906001600160a01b03163314610a73576040516282b42960e81b815260040160405180910390fd5b6000546001600160a01b038b81166201000090920416141580610aa457506002546001600160a01b038a8116911614155b15610ae85782828080601f016020809104026020016040519081016040528093929190818152602001838380828437600092019190915250929350610ed492505050565b82828080601f01602080910402602001604051908101604052809392919081815260200183838082843760009201829052506007549495506001600160a01b03851694600160a01b9004600b0b93509150819050610b488a8c018c612a8e565b60045491935091506001600160a01b0390811690821603610b9257600454600054610b87916001600160a01b0362010000909204821691168588611f30565b945050505050610ed4565b60085462010000900460ff16158015610bbc5750836001600160a01b0316826001600160a01b0316145b15610ecf576008546301000000900460ff16610de15760095460065460009190610bf690600160401b90046001600160401b0316426127e9565b610c0091906127d6565b610c13906001600160601b0386166127fc565b600654909150600090610c38906001600160401b03166001600160601b0387166127fc565b9050808210610cc55760005460405163a9059cbb60e01b81526001600160a01b03868116600483015260248201849052620100009092049091169063a9059cbb906044016020604051808303816000875af1158015610c9b573d6000803e3d6000fd5b505050506040513d601f19601f82011682018060405250810190610cbf919061281b565b50610dde565b6000546004546001600160a01b036201000090920482169163a9059cbb9116610cee85856127d6565b6040516001600160e01b031960e085901b1681526001600160a01b03909216600483015260248201526044016020604051808303816000875af1158015610d39573d6000803e3d6000fd5b505050506040513d601f19601f82011682018060405250810190610d5d919061281b565b5060005460405163a9059cbb60e01b81526001600160a01b03868116600483015260248201859052620100009092049091169063a9059cbb906044016020604051808303816000875af1158015610db8573d6000803e3d6000fd5b505050506040513d601f19601f82011682018060405250810190610ddc919061281b565b505b50505b6008805460006009819055600780546001600160a01b0390811690915563ffff0000199092166201000017909255600354604051631ff0045b60e01b815260048101939093521690631ff0045b90602401600060405180830381600087803b158015610e4c57600080fd5b505af1158015610e60573d6000803e3d6000fd5b5050600454600054610e8993506201000090046001600160a01b03908116925030911688612059565b604051600b85900b81529095506001600160a01b038516907fc1e73fbcc0647788c9303b3c4ce3dcec2c36c97db01d1984b0a40a94906b59ca9060200160405180910390a25b505050505b9998505050505050505050565b600054610100900460ff1615808015610f015750600054600160ff909116105b80610f1b5750303b158015610f1b575060005460ff166001145b610f7e5760405162461bcd60e51b815260206004820152602e60248201527f496e697469616c697a61626c653a20636f6e747261637420697320616c72656160448201526d191e481a5b9a5d1a585b1a5e995960921b60648201526084016107c4565b6000805460ff191660011790558015610fa1576000805461ff0019166101001790555b6001600160a01b038c16610fb457600080fd5b6001600160a01b038b16610fc757600080fd5b6001600160a01b038a16610fda57600080fd5b6001600160a01b038816610fed57600080fd5b670de0b6b3a7640000876001600160601b0316101561100b57600080fd5b600086600b0b121561101c57600080fd5b6000856001600160401b03161161103257600080fd5b846001600160401b0316846001600160401b0316101561105157600080fd5b6000826001600160401b03161161106757600080fd5b816001600160401b0316836001600160401b0316101561108657600080fd5b6000805462010000600160b01b031916620100006001600160a01b038f81169190910291909117909155600180546001600160a01b03199081168e8416179091556002805482168d8416179055600380549091168b83161790556001600160601b03888116600555908916600160a01b9188169190910217600455600680546001600160401b038781166fffffffffffffffffffffffffffffffff1990921691909117600160401b87831602176fffffffffffffffffffffffffffffffff16600160801b868316026001600160c01b031617600160c01b918516919091021790556008805462ffffff19166201010117905580156111be576000805461ff0019169055604051600181527f7f26b83ff96e1f2b6a682f133852f6798a09c465da95921460cefb38474024989060200160405180910390a15b505050505050505050505050565b60405162461bcd60e51b815260206004820152603360248201527f556e737570706f727465642063616c6c6261636b202d20204265666f7265204160448201527219dc99595b595b9d0815195c9b5a5b985d1959606a1b60648201526060906084016107c4565b600854610100900460ff161561125c57604051631309a56360e01b815260040160405180910390fd5b60085462010000900460ff16156112865760405163a3ddecbd60e01b815260040160405180910390fd5b6009544210156112a95760405163635237c760e11b815260040160405180910390fd5b6007546008546001600160a01b03909116906301000000900460ff1661137f57600054600654600754620100009092046001600160a01b03169163a9059cbb91849161130e916001600160401b031690600160a01b90046001600160601b03166127fc565b6040516001600160e01b031960e085901b1681526001600160a01b03909216600483015260248201526044016020604051808303816000875af1158015611359573d6000803e3d6000fd5b505050506040513d601f19601f8201168201806040525081019061137d919061281b565b505b6008805463ffff000019166201000017905560006009819055600780546001600160a01b03908116909155600354604051631ff0045b60e01b815260048101939093521690631ff0045b90602401600060405180830381600087803b1580156113e757600080fd5b505af11580156113fb573d6000803e3d6000fd5b505060045460005461142393506201000090046001600160a01b0390811692503091166120e4565b50600054611441906201000090046001600160a01b031682306120e4565b506040517f3f634313ae3ffeb092439678c6f527c6095d0da8edc8bb709fefb98f9905485290600090a150565b6003546001600160a01b03163314611498576040516282b42960e81b815260040160405180910390fd5b600854610100900460ff16156114c157604051631309a56360e01b815260040160405180910390fd5b60085462010000900460ff1615806114e8575060006009541180156114e857506009544210155b15611506576040516353df604760e11b815260040160405180910390fd5b6008805461ff0019166101001790556007546001600160a01b03811690600160a01b9004600b0b60008113156115e257600054600654620100009091046001600160a01b03169063a9059cbb908490611571906001600160401b03166001600160601b0386166127fc565b6040516001600160e01b031960e085901b1681526001600160a01b03909216600483015260248201526044016020604051808303816000875af11580156115bc573d6000803e3d6000fd5b505050506040513d601f19601f820116820180604052508101906115e0919061281b565b505b6008805463ffff00001916620100001790556000600955600780546001600160a01b03908116909155604051600b83900b8152908316907f141dc4240f18a393e25ff69722e390fbba795f4f73f89bb1612dfdd041238841906020015b60405180910390a25050565b60405162461bcd60e51b815260206004820152602f60248201527f556e737570706f727465642063616c6c6261636b202d204265666f726520416760448201526e1c99595b595b9d081d5c19185d1959608a1b60648201526060906084016107c4565b60085462010000900460ff166116d757604051631b37398160e11b815260040160405180910390fd5b60095415806116e7575060095442105b156117055760405163635237c760e11b815260040160405180910390fd5b6007546001546002546000805460408051928352602083019052600160a01b8504600b0b946001600160a01b03908116948116936339255d5b939082169283926394229ecb926117689262010000900490911690889030908b9060448101612ac7565b60408051601f19818403018152918152602080830180516001600160e01b031660e095861b179052815160008152908101918290529286901b6001600160e01b03191690526117bd9392509060248101612b10565b6000604051808303816000875af19250505080156117fd57506040513d6000823e601f3d908101601f191682016040526117fa9190810190612b46565b60015b6118ff576000546004546006546001600160a01b036201000090930483169263a9059cbb921690611840906001600160401b03166001600160601b0387166127fc565b6040516001600160e01b031960e085901b1681526001600160a01b03909216600483015260248201526044016020604051808303816000875af115801561188b573d6000803e3d6000fd5b505050506040513d601f19601f820116820180604052508101906118af919061281b565b50600780546001600160a01b039081169091556000600955604051600b84900b8152908216907f42d967e995cf8754bd8d1c4edabe66753b6c0e6b03f4bef06bf5a3eb5fe360e49060200161163f565b505050565b6001546060906001600160a01b03163314611931576040516282b42960e81b815260040160405180910390fd5b600154604051631fb6491d60e11b815230916001600160a01b031690633f6c923a90611963908790879060040161285f565b600060405180830381865afa158015611980573d6000803e3d6000fd5b505050506040513d6000823e601f3d908101601f191682016040526119a89190810190612988565b606001516001600160a01b0316146119d2576040516282b42960e81b815260040160405180910390fd5b6007546008805462ff0000191690556006546001600160a01b03821691600160a01b9004600b0b90611a1490600160401b90046001600160401b0316426127e9565b600955600354604051631ff0045b60e01b81526001600160a01b03848116600483015290911690631ff0045b90602401600060405180830381600087803b158015611a5e57600080fd5b505af1158015611a72573d6000803e3d6000fd5b5050600454604080516020601f8a01819004810282018101909252888152611ad894506001600160a01b03909216925084919089908990819084018382808284376000920182905250546201000090046001600160a01b03169594939250611f30915050565b604051600b83900b81529093506001600160a01b038316907f80b4922304eae1fa64e628db175f18ee543a12528075e254adfeb0160838f3ab9060200160405180910390a250509998505050505050505050565b600154604051636b4f333560e01b81523060048201526000916001600160a01b031690636b4f333590602401602060405180830381865afa158015611b75573d6000803e3d6000fd5b505050506040513d601f19601f820116820180604052508101906107f3919061281b565b600081600b0b13611bbd57604051637f133f2160e11b815260040160405180910390fd5b600754611bd5908290600160a01b9004600b0b610726565b1580611bf15750600454600160a01b9004600b90810b9082900b125b15611c0f576040516353a24db360e11b815260040160405180910390fd5b6004546001600160a01b0390811690831603611c3e576040516322fe227560e11b815260040160405180910390fd5b600154604051631e51d6a760e11b81526001600160a01b03848116600483015290911690633ca3ad4e90602401602060405180830381865afa158015611c88573d6000803e3d6000fd5b505050506040513d601f19601f82011682018060405250810190611cac919061281b565b15611cca57604051635f5a76ff60e01b815260040160405180910390fd5b600780546001600160a01b038481166001600160601b038516600160a01b9081026001600160a01b0319811692909217909455600954938304600b0b93908216919092161790600003611d3c57600654611d3490600160801b90046001600160401b0316426127e9565b600955611d86565b600654600954600160c01b9091046001600160401b031690611d5f9042906127d6565b1015611d8657600654611d8290600160c01b90046001600160401b0316426127e9565b6009555b600654600090611da8906001600160401b03166001600160601b0386166127fc565b6000546040516323b872dd60e01b81526001600160a01b0388811660048301523060248301526044820184905292935062010000909104909116906323b872dd906064016020604051808303816000875af1158015611e0b573d6000803e3d6000fd5b505050506040513d601f19601f82011682018060405250810190611e2f919061281b565b5082600b0b600014611ee757600054600654620100009091046001600160a01b03169063a9059cbb908490611e76906001600160401b03166001600160601b0388166127fc565b6040516001600160e01b031960e085901b1681526001600160a01b03909216600483015260248201526044016020604051808303816000875af1158015611ec1573d6000803e3d6000fd5b505050506040513d601f19601f82011682018060405250810190611ee5919061281b565b505b604051600b85900b81526001600160a01b038616907f441c29b7058c97d0ec2d7e8ef68437ba13a4911a56cf882c490b1cb5d2917b639060200160405180910390a25050505050565b6060600080611f3e87612218565b91509150816001600160a01b0316634329d29382836001600160a01b03166362fc305e8b8b8b60006001600160401b03811115611f7d57611f7d61288e565b6040519080825280601f01601f191660200182016040528015611fa7576020820181803683370190505b50604051602401611fbb9493929190612b82565b60408051808303601f1901815291815260208201805160e094851b6001600160e01b03909116179052519185901b6001600160e01b0319168252612006939250908990600401612bb8565b6000604051808303816000875af1158015612025573d6000803e3d6000fd5b505050506040513d6000823e601f3d908101601f1916820160405261204d9190810190612c0b565b50979650505050505050565b606060008061206787612218565b91509150816001600160a01b0316634329d29382836001600160a01b031663b4b333c68b8b8b60006001600160401b038111156120a6576120a661288e565b6040519080825280601f01601f1916602001820160405280156120d0576020820181803683370190505b50604051602401611fbb9493929190612c6e565b60008060006120f286612218565b91509150816001600160a01b03166339255d5b82836001600160a01b031663b4b333c68a8a8a60006001600160401b038111156121315761213161288e565b6040519080825280601f01601f19166020018201604052801561215b576020820181803683370190505b5060405160240161216f9493929190612c6e565b60408051601f19818403018152918152602080830180516001600160e01b031660e095861b179052815160008152908101918290529286901b6001600160e01b03191690526121c49392509060248101612b10565b6000604051808303816000875af11580156121e3573d6000803e3d6000fd5b505050506040513d6000823e601f3d908101601f1916820160405261220b9190810190612b46565b5060019695505050505050565b7f65599bf746e17a00ea62e3610586992d88101b78eec3cf380706621fb97ea837547fb969d79d88acd02d04ed7ee7d43b949e7daf093d363abcfbbc43dfdfd1ce969a546001600160a01b0381166123ae576001600160a01b0382166122dd57826001600160a01b03166320bc44256040518163ffffffff1660e01b8152600401602060405180830381865afa1580156122b6573d6000803e3d6000fd5b505050506040513d601f19601f820116820180604052508101906122da9190612ca2565b91505b604051635b69006f60e11b81527fa9214cc96615e0085d3bb077758db69497dc2dce3b2b1e97bc93c3d18d83efd360048201526001600160a01b0383169063b6d200de90602401602060405180830381865afa158015612341573d6000803e3d6000fd5b505050506040513d601f19601f820116820180604052508101906123659190612ca2565b9050817f65599bf746e17a00ea62e3610586992d88101b78eec3cf380706621fb97ea83755807fb969d79d88acd02d04ed7ee7d43b949e7daf093d363abcfbbc43dfdfd1ce969a555b6001600160a01b0382166123c4576123c4612cbf565b6001600160a01b0381166123da576123da612cbf565b915091565b8035600b81900b81146123f157600080fd5b919050565b60006020828403121561240857600080fd5b612411826123df565b9392505050565b6000806040838503121561242b57600080fd5b612434836123df565b9150612442602084016123df565b90509250929050565b6001600160a01b038116811461053a57600080fd5b60008083601f84011261247257600080fd5b5081356001600160401b0381111561248957600080fd5b6020830191508360208285010111156124a157600080fd5b9250929050565b600080600080600080600080600060c08a8c0312156124c657600080fd5b89356124d18161244b565b985060208a01356124e18161244b565b975060408a0135965060608a01356001600160401b038082111561250457600080fd5b6125108d838e01612460565b909850965060808c013591508082111561252957600080fd5b6125358d838e01612460565b909650945060a08c013591508082111561254e57600080fd5b5061255b8c828d01612460565b915080935050809150509295985092959850929598565b60005b8381101561258d578181015183820152602001612575565b50506000910152565b600081518084526125ae816020860160208601612572565b601f01601f19169290920160200192915050565b6020815260006124116020830184612596565b600080600080600080600060a0888a0312156125f057600080fd5b87356125fb8161244b565b9650602088013561260b8161244b565b95506040880135945060608801356001600160401b038082111561262e57600080fd5b61263a8b838c01612460565b909650945060808a013591508082111561265357600080fd5b506126608a828b01612460565b989b979a50959850939692959293505050565b60008060006040848603121561268857600080fd5b612691846123df565b925060208401356001600160401b038111156126ac57600080fd5b6126b886828701612460565b9497909650939450505050565b80356001600160401b03811681146123f157600080fd5b60008060008060008060008060008060006101608c8e0312156126fe57600080fd5b8b356127098161244b565b9a5060208c01356127198161244b565b995060408c01356127298161244b565b985060608c01356127398161244b565b975060808c01356127498161244b565b965060a08c01356001600160601b038116811461276557600080fd5b955061277360c08d016123df565b945061278160e08d016126c5565b93506127906101008d016126c5565b925061279f6101208d016126c5565b91506127ae6101408d016126c5565b90509295989b509295989b9093969950565b634e487b7160e01b600052601160045260246000fd5b81810381811115610760576107606127c0565b80820180821115610760576107606127c0565b6000816000190483118215151615612816576128166127c0565b500290565b60006020828403121561282d57600080fd5b8151801515811461241157600080fd5b60008261285a57634e487b7160e01b600052601260045260246000fd5b500490565b60208152816020820152818360408301376000818301604090810191909152601f909201601f19160101919050565b634e487b7160e01b600052604160045260246000fd5b60405161016081016001600160401b03811182821017156128c7576128c761288e565b60405290565b805160ff811681146123f157600080fd5b80516123f18161244b565b80516001600160e01b0319811681146123f157600080fd5b600082601f83011261291257600080fd5b81516001600160401b038082111561292c5761292c61288e565b604051601f8301601f19908116603f011681019082821181831017156129545761295461288e565b8160405283815286602085880101111561296d57600080fd5b61297e846020830160208901612572565b9695505050505050565b60006020828403121561299a57600080fd5b81516001600160401b03808211156129b157600080fd5b9083019061016082860312156129c657600080fd5b6129ce6128a4565b6129d7836128cd565b81526129e5602084016128cd565b602082015260408301516040820152612a00606084016128de565b6060820152612a11608084016128e9565b608082015260a083015182811115612a2857600080fd5b612a3487828601612901565b60a08301525060c083015160c082015260e083015160e0820152610100915081830151828201526101209150612a6b8284016128de565b828201526101409150612a7f8284016128de565b91810191909152949350505050565b60008060408385031215612aa157600080fd5b8235612aac8161244b565b91506020830135612abc8161244b565b809150509250929050565b6001600160a01b038681168252858116602083015284166040820152600b83900b606082015260a060808201819052600090612b0590830184612596565b979650505050505050565b6001600160a01b0384168152606060208201819052600090612b3490830185612596565b828103604084015261297e8185612596565b600060208284031215612b5857600080fd5b81516001600160401b03811115612b6e57600080fd5b612b7a84828501612901565b949350505050565b6001600160a01b03858116825284166020820152600b83900b604082015260806060820181905260009061297e90830184612596565b6001600160a01b0384168152608060208201819052600090612bdc90830185612596565b8281038060408501526002825261060f60f31b60208301526040810160608501525061297e6040820185612596565b60008060408385031215612c1e57600080fd5b82516001600160401b0380821115612c3557600080fd5b612c4186838701612901565b93506020850151915080821115612c5757600080fd5b50612c6485828601612901565b9150509250929050565b6001600160a01b03858116825284811660208301528316604082015260806060820181905260009061297e90830184612596565b600060208284031215612cb457600080fd5b81516124118161244b565b634e487b7160e01b600052600160045260246000fdfea2646970667358221220933aefc006fd8e4f6b043d655d11a39a771d259f6e76910f44d889cfd9ce831064736f6c63430008100033",
    "linkReferences": {}
  },
  "methodIdentifiers": {
    "acceptedToken()": "451c3d80",
    "afterAgreementCreated(address,address,bytes32,bytes,bytes,bytes)": "d86ed3e5",
    "afterAgreementTerminated(address,address,bytes32,bytes,bytes,bytes)": "53c11f99",
    "afterAgreementUpdated(address,address,bytes32,bytes,bytes,bytes)": "230dbd29",
    "beforeAgreementCreated(address,address,bytes32,bytes,bytes)": "30d9c915",
    "beforeAgreementTerminated(address,address,bytes32,bytes,bytes)": "5f9e7d77",
    "beforeAgreementUpdated(address,address,bytes32,bytes,bytes)": "884d1f40",
    "beneficiary()": "38af3eed",
    "biddingPhaseDuration()": "96f6fe91",
    "biddingPhaseExtensionDuration()": "ac99adf0",
    "cfa()": "1054df8c",
    "controllerObserver()": "040e2c20",
    "currentPhaseEndTime()": "b0dd1634",
    "currentRenter()": "242f17a9",
    "depositClaimed()": "17ddfb48",
    "host()": "f437bc59",
    "initialize(address,address,address,address,address,uint96,int96,uint64,uint64,uint64,uint64)": "56898a4e",
    "isBidHigher(int96,int96)": "21e39ee8",
    "isBiddingPhase()": "83e98bc3",
    "isJailed()": "f8a7689e",
    "maxRentalDuration()": "7ce4026f",
    "minRentalDuration()": "34f1a8d3",
    "minimumBidFactorWad()": "3047d5fb",
    "pause()": "8456cb59",
    "paused()": "5c975abb",
    "placeBid(int96)": "1e319aee",
    "placeBid(int96,bytes)": "3ed58ed1",
    "reclaimDeposit()": "1f3ff68d",
    "reserveRate()": "58d7bf80",
    "topBidder()": "01333f06",
    "topFlowRate()": "016c2d9a",
    "transitionToBiddingPhase()": "6ecea2ec",
    "transitionToRentalPhase()": "9abb8a5f",
    "unpause()": "3f4ba83a"
  },
  "id": 114
}