{
  "abi": [
    {
      "inputs": [],
      "name": "AlreadyInBiddingPhase",
      "type": "error"
    },
    {
      "inputs": [],
      "name": "AlreadyInRentalPhase",
      "type": "error"
    },
    {
      "inputs": [],
      "name": "CurrentPhaseNotEnded",
      "type": "error"
    },
    {
      "inputs": [],
      "name": "DepositAlreadyClaimed",
      "type": "error"
    },
    {
      "inputs": [],
      "name": "FlowRateTooLow",
      "type": "error"
    },
    {
      "inputs": [],
      "name": "InvalidAgreement",
      "type": "error"
    },
    {
      "inputs": [],
      "name": "InvalidFlowRate",
      "type": "error"
    },
    {
      "inputs": [],
      "name": "InvalidToken",
      "type": "error"
    },
    {
      "inputs": [],
      "name": "NotBiddingPhase",
      "type": "error"
    },
    {
      "inputs": [],
      "name": "NotPaused",
      "type": "error"
    },
    {
      "inputs": [],
      "name": "NotRentalPhase",
      "type": "error"
    },
    {
      "inputs": [],
      "name": "Paused",
      "type": "error"
    },
    {
      "inputs": [],
      "name": "TooEarlyToReclaimDeposit",
      "type": "error"
    },
    {
      "inputs": [],
      "name": "Unauthorized",
      "type": "error"
    },
    {
      "inputs": [],
      "name": "Unknown",
      "type": "error"
    },
    {
      "anonymous": false,
      "inputs": [
        {
          "indexed": true,
          "internalType": "address",
          "name": "renter",
          "type": "address"
        },
        {
          "indexed": false,
          "internalType": "uint256",
          "name": "amount",
          "type": "uint256"
        }
      ],
      "name": "DepositClaimed",
      "type": "event"
    },
    {
      "anonymous": false,
      "inputs": [
        {
          "indexed": false,
          "internalType": "address",
          "name": "acceptedToken",
          "type": "address"
        },
        {
          "indexed": false,
          "internalType": "address",
          "name": "controllerObserver",
          "type": "address"
        },
        {
          "indexed": false,
          "internalType": "address",
          "name": "beneficiary",
          "type": "address"
        },
        {
          "indexed": false,
          "internalType": "uint96",
          "name": "minimumBidFactorWad",
          "type": "uint96"
        },
        {
          "indexed": false,
          "internalType": "int96",
          "name": "reserveRate",
          "type": "int96"
        },
        {
          "indexed": false,
          "internalType": "uint64",
          "name": "minRentalDuration",
          "type": "uint64"
        },
        {
          "indexed": false,
          "internalType": "uint64",
          "name": "maxRentalDuration",
          "type": "uint64"
        },
        {
          "indexed": false,
          "internalType": "uint64",
          "name": "biddingPhaseDuration",
          "type": "uint64"
        },
        {
          "indexed": false,
          "internalType": "uint64",
          "name": "biddingPhaseExtensionDuration",
          "type": "uint64"
        }
      ],
      "name": "Initialized",
      "type": "event"
    },
    {
      "anonymous": false,
      "inputs": [
        {
          "indexed": false,
          "internalType": "uint8",
          "name": "version",
          "type": "uint8"
        }
      ],
      "name": "Initialized",
      "type": "event"
    },
    {
      "anonymous": false,
      "inputs": [
        {
          "indexed": true,
          "internalType": "address",
          "name": "bidder",
          "type": "address"
        },
        {
          "indexed": false,
          "internalType": "int96",
          "name": "flowRate",
          "type": "int96"
        }
      ],
      "name": "NewTopBid",
      "type": "event"
    },
    {
      "anonymous": false,
      "inputs": [
        {
          "indexed": true,
          "internalType": "address",
          "name": "topBidder",
          "type": "address"
        },
        {
          "indexed": false,
          "internalType": "int96",
          "name": "flowRate",
          "type": "int96"
        }
      ],
      "name": "PausedAuction",
      "type": "event"
    },
    {
      "anonymous": false,
      "inputs": [
        {
          "indexed": true,
          "internalType": "address",
          "name": "topBidder",
          "type": "address"
        },
        {
          "indexed": false,
          "internalType": "int96",
          "name": "flowRate",
          "type": "int96"
        }
      ],
      "name": "TransitionToRentalPhaseFailed",
      "type": "event"
    },
    {
      "anonymous": false,
      "inputs": [],
      "name": "TransitionedToBiddingPhase",
      "type": "event"
    },
    {
      "anonymous": false,
      "inputs": [
        {
          "indexed": true,
          "internalType": "address",
          "name": "renter",
          "type": "address"
        },
        {
          "indexed": false,
          "internalType": "int96",
          "name": "flowRate",
          "type": "int96"
        }
      ],
      "name": "TransitionedToBiddingPhaseEarly",
      "type": "event"
    },
    {
      "anonymous": false,
      "inputs": [
        {
          "indexed": true,
          "internalType": "address",
          "name": "renter",
          "type": "address"
        },
        {
          "indexed": false,
          "internalType": "int96",
          "name": "flowRate",
          "type": "int96"
        }
      ],
      "name": "TransitionedToRentalPhase",
      "type": "event"
    },
    {
      "anonymous": false,
      "inputs": [],
      "name": "UnpausedAuction",
      "type": "event"
    },
    {
      "inputs": [],
      "name": "acceptedToken",
      "outputs": [
        {
          "internalType": "contract ISuperToken",
          "name": "",
          "type": "address"
        }
      ],
      "stateMutability": "view",
      "type": "function"
    },
    {
      "inputs": [
        {
          "internalType": "contract ISuperToken",
          "name": "",
          "type": "address"
        },
        {
          "internalType": "address",
          "name": "",
          "type": "address"
        },
        {
          "internalType": "bytes32",
          "name": "",
          "type": "bytes32"
        },
        {
          "internalType": "bytes",
          "name": "",
          "type": "bytes"
        },
        {
          "internalType": "bytes",
          "name": "",
          "type": "bytes"
        },
        {
          "internalType": "bytes",
          "name": "_ctx",
          "type": "bytes"
        }
      ],
      "name": "afterAgreementCreated",
      "outputs": [
        {
          "internalType": "bytes",
          "name": "newCtx",
          "type": "bytes"
        }
      ],
      "stateMutability": "nonpayable",
      "type": "function"
    },
    {
      "inputs": [
        {
          "internalType": "contract ISuperToken",
          "name": "_superToken",
          "type": "address"
        },
        {
          "internalType": "address",
          "name": "_agreementClass",
          "type": "address"
        },
        {
          "internalType": "bytes32",
          "name": "",
          "type": "bytes32"
        },
        {
          "internalType": "bytes",
          "name": "",
          "type": "bytes"
        },
        {
          "internalType": "bytes",
          "name": "",
          "type": "bytes"
        },
        {
          "internalType": "bytes",
          "name": "_ctx",
          "type": "bytes"
        }
      ],
      "name": "afterAgreementTerminated",
      "outputs": [
        {
          "internalType": "bytes",
          "name": "newCtx",
          "type": "bytes"
        }
      ],
      "stateMutability": "nonpayable",
      "type": "function"
    },
    {
      "inputs": [
        {
          "internalType": "contract ISuperToken",
          "name": "",
          "type": "address"
        },
        {
          "internalType": "address",
          "name": "",
          "type": "address"
        },
        {
          "internalType": "bytes32",
          "name": "",
          "type": "bytes32"
        },
        {
          "internalType": "bytes",
          "name": "",
          "type": "bytes"
        },
        {
          "internalType": "bytes",
          "name": "",
          "type": "bytes"
        },
        {
          "internalType": "bytes",
          "name": "",
          "type": "bytes"
        }
      ],
      "name": "afterAgreementUpdated",
      "outputs": [
        {
          "internalType": "bytes",
          "name": "",
          "type": "bytes"
        }
      ],
      "stateMutability": "nonpayable",
      "type": "function"
    },
    {
      "inputs": [
        {
          "internalType": "contract ISuperToken",
          "name": "",
          "type": "address"
        },
        {
          "internalType": "address",
          "name": "",
          "type": "address"
        },
        {
          "internalType": "bytes32",
          "name": "",
          "type": "bytes32"
        },
        {
          "internalType": "bytes",
          "name": "",
          "type": "bytes"
        },
        {
          "internalType": "bytes",
          "name": "",
          "type": "bytes"
        }
      ],
      "name": "beforeAgreementCreated",
      "outputs": [
        {
          "internalType": "bytes",
          "name": "",
          "type": "bytes"
        }
      ],
      "stateMutability": "view",
      "type": "function"
    },
    {
      "inputs": [
        {
          "internalType": "contract ISuperToken",
          "name": "",
          "type": "address"
        },
        {
          "internalType": "address",
          "name": "",
          "type": "address"
        },
        {
          "internalType": "bytes32",
          "name": "",
          "type": "bytes32"
        },
        {
          "internalType": "bytes",
          "name": "",
          "type": "bytes"
        },
        {
          "internalType": "bytes",
          "name": "",
          "type": "bytes"
        }
      ],
      "name": "beforeAgreementTerminated",
      "outputs": [
        {
          "internalType": "bytes",
          "name": "",
          "type": "bytes"
        }
      ],
      "stateMutability": "view",
      "type": "function"
    },
    {
      "inputs": [
        {
          "internalType": "contract ISuperToken",
          "name": "",
          "type": "address"
        },
        {
          "internalType": "address",
          "name": "",
          "type": "address"
        },
        {
          "internalType": "bytes32",
          "name": "",
          "type": "bytes32"
        },
        {
          "internalType": "bytes",
          "name": "",
          "type": "bytes"
        },
        {
          "internalType": "bytes",
          "name": "",
          "type": "bytes"
        }
      ],
      "name": "beforeAgreementUpdated",
      "outputs": [
        {
          "internalType": "bytes",
          "name": "",
          "type": "bytes"
        }
      ],
      "stateMutability": "view",
      "type": "function"
    },
    {
      "inputs": [],
      "name": "beneficiary",
      "outputs": [
        {
          "internalType": "address",
          "name": "",
          "type": "address"
        }
      ],
      "stateMutability": "view",
      "type": "function"
    },
    {
      "inputs": [],
      "name": "biddingPhaseDuration",
      "outputs": [
        {
          "internalType": "uint64",
          "name": "",
          "type": "uint64"
        }
      ],
      "stateMutability": "view",
      "type": "function"
    },
    {
      "inputs": [],
      "name": "biddingPhaseExtensionDuration",
      "outputs": [
        {
          "internalType": "uint64",
          "name": "",
          "type": "uint64"
        }
      ],
      "stateMutability": "view",
      "type": "function"
    },
    {
      "inputs": [],
      "name": "cfa",
      "outputs": [
        {
          "internalType": "contract IConstantFlowAgreementV1",
          "name": "",
          "type": "address"
        }
      ],
      "stateMutability": "view",
      "type": "function"
    },
    {
      "inputs": [],
      "name": "controllerObserver",
      "outputs": [
        {
          "internalType": "contract IRentalAuctionControllerObserver",
          "name": "",
          "type": "address"
        }
      ],
      "stateMutability": "view",
      "type": "function"
    },
    {
      "inputs": [],
      "name": "currentPhaseEndTime",
      "outputs": [
        {
          "internalType": "uint256",
          "name": "",
          "type": "uint256"
        }
      ],
      "stateMutability": "view",
      "type": "function"
    },
    {
      "inputs": [],
      "name": "currentRenter",
      "outputs": [
        {
          "internalType": "address",
          "name": "",
          "type": "address"
        }
      ],
      "stateMutability": "view",
      "type": "function"
    },
    {
      "inputs": [],
      "name": "depositClaimed",
      "outputs": [
        {
          "internalType": "bool",
          "name": "",
          "type": "bool"
        }
      ],
      "stateMutability": "view",
      "type": "function"
    },
    {
      "inputs": [],
      "name": "host",
      "outputs": [
        {
          "internalType": "contract ISuperfluid",
          "name": "",
          "type": "address"
        }
      ],
      "stateMutability": "view",
      "type": "function"
    },
    {
      "inputs": [
        {
          "internalType": "contract ISuperToken",
          "name": "_acceptedToken",
          "type": "address"
        },
        {
          "internalType": "contract ISuperfluid",
          "name": "_host",
          "type": "address"
        },
        {
          "internalType": "contract IConstantFlowAgreementV1",
          "name": "_cfa",
          "type": "address"
        },
        {
          "internalType": "contract IRentalAuctionControllerObserver",
          "name": "_controllerObserver",
          "type": "address"
        },
        {
          "internalType": "address",
          "name": "_beneficiary",
          "type": "address"
        },
        {
          "internalType": "uint96",
          "name": "_minimumBidFactorWad",
          "type": "uint96"
        },
        {
          "internalType": "int96",
          "name": "_reserveRate",
          "type": "int96"
        },
        {
          "internalType": "uint64",
          "name": "_minRentalDuration",
          "type": "uint64"
        },
        {
          "internalType": "uint64",
          "name": "_maxRentalDuration",
          "type": "uint64"
        },
        {
          "internalType": "uint64",
          "name": "_biddingPhaseDuration",
          "type": "uint64"
        },
        {
          "internalType": "uint64",
          "name": "_biddingPhaseExtensionDuration",
          "type": "uint64"
        }
      ],
      "name": "initialize",
      "outputs": [],
      "stateMutability": "nonpayable",
      "type": "function"
    },
    {
      "inputs": [
        {
          "internalType": "int96",
          "name": "upper",
          "type": "int96"
        },
        {
          "internalType": "int96",
          "name": "lower",
          "type": "int96"
        }
      ],
      "name": "isBidHigher",
      "outputs": [
        {
          "internalType": "bool",
          "name": "",
          "type": "bool"
        }
      ],
      "stateMutability": "view",
      "type": "function"
    },
    {
      "inputs": [],
      "name": "isBiddingPhase",
      "outputs": [
        {
          "internalType": "bool",
          "name": "",
          "type": "bool"
        }
      ],
      "stateMutability": "view",
      "type": "function"
    },
    {
      "inputs": [],
      "name": "isRentalPhase",
      "outputs": [
        {
          "internalType": "bool",
          "name": "",
          "type": "bool"
        }
      ],
      "stateMutability": "view",
      "type": "function"
    },
    {
      "inputs": [],
      "name": "maxRentalDuration",
      "outputs": [
        {
          "internalType": "uint64",
          "name": "",
          "type": "uint64"
        }
      ],
      "stateMutability": "view",
      "type": "function"
    },
    {
      "inputs": [],
      "name": "minRentalDuration",
      "outputs": [
        {
          "internalType": "uint64",
          "name": "",
          "type": "uint64"
        }
      ],
      "stateMutability": "view",
      "type": "function"
    },
    {
      "inputs": [],
      "name": "minimumBidFactorWad",
      "outputs": [
        {
          "internalType": "uint256",
          "name": "",
          "type": "uint256"
        }
      ],
      "stateMutability": "view",
      "type": "function"
    },
    {
      "inputs": [],
      "name": "pause",
      "outputs": [],
      "stateMutability": "nonpayable",
      "type": "function"
    },
    {
      "inputs": [],
      "name": "paused",
      "outputs": [
        {
          "internalType": "bool",
          "name": "",
          "type": "bool"
        }
      ],
      "stateMutability": "view",
      "type": "function"
    },
    {
      "inputs": [
        {
          "internalType": "int96",
          "name": "flowRate",
          "type": "int96"
        }
      ],
      "name": "placeBid",
      "outputs": [],
      "stateMutability": "nonpayable",
      "type": "function"
    },
    {
      "inputs": [
        {
          "internalType": "int96",
          "name": "flowRate",
          "type": "int96"
        },
        {
          "internalType": "bytes",
          "name": "_ctx",
          "type": "bytes"
        }
      ],
      "name": "placeBid",
      "outputs": [
        {
          "internalType": "bytes",
          "name": "",
          "type": "bytes"
        }
      ],
      "stateMutability": "nonpayable",
      "type": "function"
    },
    {
      "inputs": [],
      "name": "reclaimDeposit",
      "outputs": [],
      "stateMutability": "nonpayable",
      "type": "function"
    },
    {
      "inputs": [],
      "name": "reserveRate",
      "outputs": [
        {
          "internalType": "int96",
          "name": "",
          "type": "int96"
        }
      ],
      "stateMutability": "view",
      "type": "function"
    },
    {
      "inputs": [
        {
          "internalType": "address",
          "name": "",
          "type": "address"
        }
      ],
      "name": "senderUserData",
      "outputs": [
        {
          "internalType": "bytes",
          "name": "",
          "type": "bytes"
        }
      ],
      "stateMutability": "view",
      "type": "function"
    },
    {
      "inputs": [],
      "name": "topBidder",
      "outputs": [
        {
          "internalType": "address",
          "name": "",
          "type": "address"
        }
      ],
      "stateMutability": "view",
      "type": "function"
    },
    {
      "inputs": [],
      "name": "topFlowRate",
      "outputs": [
        {
          "internalType": "int96",
          "name": "",
          "type": "int96"
        }
      ],
      "stateMutability": "view",
      "type": "function"
    },
    {
      "inputs": [],
      "name": "transitionToBiddingPhase",
      "outputs": [],
      "stateMutability": "nonpayable",
      "type": "function"
    },
    {
      "inputs": [],
      "name": "transitionToRentalPhase",
      "outputs": [],
      "stateMutability": "nonpayable",
      "type": "function"
    },
    {
      "inputs": [],
      "name": "unpause",
      "outputs": [],
      "stateMutability": "nonpayable",
      "type": "function"
    }
  ],
  "bytecode": {
    "object": "0x608060405234801561001057600080fd5b50612f1d806100206000396000f3fe608060405234801561001057600080fd5b50600436106102115760003560e01c8063451c3d80116101255780638456cb59116100ad5780639abb8a5f1161007c5780639abb8a5f14610499578063ac99adf0146104a1578063b0dd1634146104bb578063d86ed3e5146104c4578063f437bc59146104d757600080fd5b80638456cb5914610451578063884d1f40146104595780638bcf819d1461046c57806396f6fe911461047f57600080fd5b80635c975abb116100f45780635c975abb146103f75780635f9e7d77146104095780636ecea2ec1461041c5780637ce4026f1461042457806383e98bc31461043e57600080fd5b8063451c3d80146103a457806353c11f99146103bd57806356898a4e146103d057806358d7bf80146103e357600080fd5b8063230dbd29116101a857806334f1a8d31161017757806334f1a8d31461033957806338aa103c1461036457806338af3eed146103765780633ed58ed1146103895780633f4ba83a1461039c57600080fd5b8063230dbd29146102e7578063242f17a9146103075780633047d5fb1461030f57806330d9c9151461032657600080fd5b806317ddfb48116101e457806317ddfb48146102935780631e319aee146102b75780631f3ff68d146102cc57806321e39ee8146102d457600080fd5b806301333f0614610216578063016c2d9a14610246578063040e2c201461026d5780631054df8c14610280575b600080fd5b600754610229906001600160a01b031681565b6040516001600160a01b0390911681526020015b60405180910390f35b60075461025a90600160a01b9004600b0b81565b604051600b9190910b815260200161023d565b600354610229906001600160a01b031681565b600254610229906001600160a01b031681565b6009546102a7906301000000900460ff1681565b604051901515815260200161023d565b6102ca6102c53660046125ea565b6104ea565b005b6102ca610565565b6102a76102e236600461260c565b610777565b6102fa6102f536600461269c565b6107b7565b60405161023d91906127b6565b61022961081e565b61031860055481565b60405190815260200161023d565b6102fa6103343660046127c9565b610847565b60065461034c906001600160401b031681565b6040516001600160401b03909116815260200161023d565b60095462010000900460ff16156102a7565b600454610229906001600160a01b031681565b6102fa610397366004612867565b6108aa565b6102ca610a0d565b600054610229906201000090046001600160a01b031681565b6102fa6103cb36600461269c565b610a95565b6102ca6103de3660046128d0565b610f9d565b60045461025a90600160a01b9004600b0b81565b6009546102a790610100900460ff1681565b6102fa6104173660046127c9565b611309565b6102ca611370565b60065461034c90600160401b90046001600160401b031681565b6009546102a79062010000900460ff1681565b6102ca611652565b6102fa6104673660046127c9565b61182f565b6102fa61047a3660046129b4565b611892565b60065461034c90600160801b90046001600160401b031681565b6102ca61192c565b60065461034c90600160c01b90046001600160401b031681565b610318600a5481565b6102fa6104d236600461269c565b611bab565b600154610229906001600160a01b031681565b60095462010000900460ff16158061051157506000600a541180156105115750600a544210155b1561052f576040516353df604760e11b815260040160405180910390fd5b600954610100900460ff1615610558576040516313d0ff5960e31b815260040160405180910390fd5b6105623382611de4565b50565b600954610100900460ff161561058e576040516313d0ff5960e31b815260040160405180910390fd5b60095462010000900460ff16156105b857604051635d1a12e560e01b815260040160405180910390fd5b6007546001600160a01b03163381146105e3576040516282b42960e81b815260040160405180910390fd5b6009546301000000900460ff161561060e57604051630662741160e01b815260040160405180910390fd5b600654600a5460009161063291600160401b9091046001600160401b0316906129e7565b60065490915061064b906001600160401b0316826129fa565b42101561066b576040516355267b7960e01b815260040160405180910390fd5b6009805463ff000000191663010000001790556006546007546000916106ad916001600160401b03909116906001600160601b03600160a01b90910416612a0d565b60005460405163a9059cbb60e01b81526001600160a01b03868116600483015260248201849052929350620100009091049091169063a9059cbb906044016020604051808303816000875af115801561070a573d6000803e3d6000fd5b505050506040513d601f19601f8201168201806040525081019061072e9190612a2c565b50826001600160a01b03167fe800e3ea37ded367af4fce9aa5ecaa72b693f315a2c3b6c7a3d07c84196515fb8260405161076a91815260200190565b60405180910390a2505050565b6000670de0b6b3a7640000600554836001600160601b03166107999190612a0d565b6107a39190612a4e565b836001600160601b03161190505b92915050565b60405162461bcd60e51b815260206004820152602e60248201527f556e737570706f727465642063616c6c6261636b202d2041667465722041677260448201526d19595b595b9d08155c19185d195960921b60648201526060906084015b60405180910390fd5b60095460009062010000900460ff1661084157506007546001600160a01b031690565b50600090565b60405162461bcd60e51b815260206004820152602f60248201527f556e737570706f727465642063616c6c6261636b202d204265666f726520416760448201526e1c99595b595b9d0810dc99585d1959608a1b6064820152606090608401610815565b6001546060906001600160a01b031633146108d7576040516282b42960e81b815260040160405180910390fd5b60095462010000900460ff1615806108fe57506000600a541180156108fe5750600a544210155b1561091c576040516353df604760e11b815260040160405180910390fd5b600954610100900460ff1615610945576040516313d0ff5960e31b815260040160405180910390fd5b600154604051631fb6491d60e11b81526000916001600160a01b031690633f6c923a906109789087908790600401612a70565b600060405180830381865afa158015610995573d6000803e3d6000fd5b505050506040513d6000823e601f3d908101601f191682016040526109bd9190810190612b99565b6060015190506109cd8186611de4565b83838080601f0160208091040260200160405190810160405280939291908181526020018383808284376000920191909152509298975050505050505050565b6003546001600160a01b03163314610a37576040516282b42960e81b815260040160405180910390fd5b600954610100900460ff16610a5f57604051636cd6020160e01b815260040160405180910390fd5b6009805461ff00191690556040517fccb628cfdf07f722839fc340242e45d26aee18985ead41688de611d7e08b17bf90600090a1565b6001546060906001600160a01b03163314610ac2576040516282b42960e81b815260040160405180910390fd5b610b006040518060400160405280601881526020017f616674657241677265656d656e745465726d696e6174656400000000000000008152506120c0565b6000546001600160a01b038b81166201000090920416141580610b3157506002546001600160a01b038a8116911614155b15610b755782828080601f016020809104026020016040519081016040528093929190818152602001838380828437600092019190915250929350610f9092505050565b82828080601f0160208091040260200160405190810160405280939291908181526020018383808284376000920182905250600754600154604051631fb6491d60e11b81529697506001600160a01b0380831697600160a01b909304600b0b96509294509091169150633f6c923a90610bf29087906004016127b6565b600060405180830381865afa158015610c0f573d6000803e3d6000fd5b505050506040513d6000823e601f3d908101601f19168201604052610c379190810190612b99565b6060015160095490915062010000900460ff16158015610c685750826001600160a01b0316816001600160a01b0316145b15610f8c57600454600054610c92916001600160a01b036201000090920482169130911687612103565b6009549094506301000000900460ff16610eb557600a5460065460009190610cca90600160401b90046001600160401b0316426129fa565b610cd491906129e7565b610ce7906001600160601b038516612a0d565b600654909150600090610d0c906001600160401b03166001600160601b038616612a0d565b9050808210610d995760005460405163a9059cbb60e01b81526001600160a01b03858116600483015260248201849052620100009092049091169063a9059cbb906044016020604051808303816000875af1158015610d6f573d6000803e3d6000fd5b505050506040513d601f19601f82011682018060405250810190610d939190612a2c565b50610eb2565b6000546004546001600160a01b036201000090920482169163a9059cbb9116610dc285856129e7565b6040516001600160e01b031960e085901b1681526001600160a01b03909216600483015260248201526044016020604051808303816000875af1158015610e0d573d6000803e3d6000fd5b505050506040513d601f19601f82011682018060405250810190610e319190612a2c565b5060005460405163a9059cbb60e01b81526001600160a01b03858116600483015260248201859052620100009092049091169063a9059cbb906044016020604051808303816000875af1158015610e8c573d6000803e3d6000fd5b505050506040513d601f19601f82011682018060405250810190610eb09190612a2c565b505b50505b600980546000600a55600780546001600160a01b0390811690915563ffff00001990911662010000179091556003541615610f4957600354604051631ff0045b60e01b8152600060048201526001600160a01b0390911690631ff0045b90602401600060405180830381600087803b158015610f3057600080fd5b505af1158015610f44573d6000803e3d6000fd5b505050505b604051600b83900b81526001600160a01b038416907fc1e73fbcc0647788c9303b3c4ce3dcec2c36c97db01d1984b0a40a94906b59ca9060200160405180910390a25b5050505b9998505050505050505050565b600054610100900460ff1615808015610fbd5750600054600160ff909116105b80610fd75750303b158015610fd7575060005460ff166001145b61103a5760405162461bcd60e51b815260206004820152602e60248201527f496e697469616c697a61626c653a20636f6e747261637420697320616c72656160448201526d191e481a5b9a5d1a585b1a5e995960921b6064820152608401610815565b6000805460ff19166001179055801561105d576000805461ff0019166101001790555b6001600160a01b038c1661107057600080fd5b6001600160a01b038b1661108357600080fd5b6001600160a01b038a1661109657600080fd5b6001600160a01b0388166110a957600080fd5b670de0b6b3a7640000876001600160601b031610156110c757600080fd5b600086600b0b12156110d857600080fd5b6000856001600160401b0316116110ee57600080fd5b846001600160401b0316846001600160401b0316101561110d57600080fd5b6000826001600160401b03161161112357600080fd5b816001600160401b0316836001600160401b0316101561114257600080fd5b6000805462010000600160b01b031916620100006001600160a01b038f811691820292909217909255600180546001600160a01b03199081168f8416179091556002805482168e8416179055600380549091168c83169081179091556001600160601b038a81166005819055928c16600160a01b918b16919091028117600455600680546001600160401b038b81166fffffffffffffffffffffffffffffffff199092168217600160401b8c8316908102919091176fffffffffffffffffffffffffffffffff16600160801b8c84169081026001600160c01b031691909117600160c01b938c16938402179094556009805462ff00ff191662010001179055604080519889526020890196909652948701939093526060860194909452600b8b900b608086015260a085019390935260c084019190915260e08301919091526101008201527fb27e28c76352ad714ebb48ca18fcca0a1ec6847139d08a3a246d4eba5507ee32906101200160405180910390a180156112fb576000805461ff0019169055604051600181527f7f26b83ff96e1f2b6a682f133852f6798a09c465da95921460cefb38474024989060200160405180910390a15b505050505050505050505050565b60405162461bcd60e51b815260206004820152603360248201527f556e737570706f727465642063616c6c6261636b202d20204265666f7265204160448201527219dc99595b595b9d0815195c9b5a5b985d1959606a1b6064820152606090608401610815565b600954610100900460ff1615611399576040516313d0ff5960e31b815260040160405180910390fd5b60095462010000900460ff16156113c35760405163a3ddecbd60e01b815260040160405180910390fd5b600a544210156113e65760405163635237c760e11b815260040160405180910390fd5b60045460005461140a916001600160a01b036201000090920482169130911661222c565b506009546301000000900460ff166114d657600054600754600654620100009092046001600160a01b039081169263a9059cbb9291821691611465916001600160401b031690600160a01b90046001600160601b0316612a0d565b6040516001600160e01b031960e085901b1681526001600160a01b03909216600483015260248201526044016020604051808303816000875af11580156114b0573d6000803e3d6000fd5b505050506040513d601f19601f820116820180604052508101906114d49190612a2c565b505b6009805463ffff00001916620100009081179091556000600a819055600780546001600160a01b0390811691829055600154600254845460408051968752602087019052918316956339255d5b9591841694859463b4b333c694611544949390041691309060448101612c9f565b60408051601f19818403018152918152602080830180516001600160e01b031660e095861b179052815160008152908101918290529286901b6001600160e01b03191690526115999392509060248101612cd3565b6000604051808303816000875af19250505080156115d957506040513d6000823e601f3d908101601f191682016040526115d69190810190612d09565b60015b156115e057505b6003546001600160a01b03161561165057600354604051631ff0045b60e01b8152600060048201526001600160a01b0390911690631ff0045b90602401600060405180830381600087803b15801561163757600080fd5b505af115801561164b573d6000803e3d6000fd5b505050505b565b6003546001600160a01b0316331461167c576040516282b42960e81b815260040160405180910390fd5b600954610100900460ff16156116a5576040516313d0ff5960e31b815260040160405180910390fd5b60095462010000900460ff1615806116cc57506000600a541180156116cc5750600a544210155b156116ea576040516353df604760e11b815260040160405180910390fd5b6009805461ff0019166101001790556007546001600160a01b03811690600160a01b9004600b0b60008113156117c657600054600654620100009091046001600160a01b03169063a9059cbb908490611755906001600160401b03166001600160601b038616612a0d565b6040516001600160e01b031960e085901b1681526001600160a01b03909216600483015260248201526044016020604051808303816000875af11580156117a0573d6000803e3d6000fd5b505050506040513d601f19601f820116820180604052508101906117c49190612a2c565b505b6009805463ffff00001916620100001790556000600a55600780546001600160a01b03908116909155604051600b83900b8152908316907f158e92cedeab5bf2cc4468c81568db06a563a372f96439402e9a92b4198adc03906020015b60405180910390a25050565b60405162461bcd60e51b815260206004820152602f60248201527f556e737570706f727465642063616c6c6261636b202d204265666f726520416760448201526e1c99595b595b9d081d5c19185d1959608a1b6064820152606090608401610815565b600860205260009081526040902080546118ab90612d45565b80601f01602080910402602001604051908101604052809291908181526020018280546118d790612d45565b80156119245780601f106118f957610100808354040283529160200191611924565b820191906000526020600020905b81548152906001019060200180831161190757829003601f168201915b505050505081565b600954610100900460ff1615611955576040516313d0ff5960e31b815260040160405180910390fd5b60095462010000900460ff1661197e57604051631b37398160e11b815260040160405180910390fd5b600a54158061198e5750600a5442105b156119ac5760405163635237c760e11b815260040160405180910390fd5b6007546001546002546000805460408051928352602083019052600160a01b8504600b0b946001600160a01b03908116948116936339255d5b939082169283926394229ecb92611a0f9262010000900490911690889030908b9060448101612d7f565b60408051601f19818403018152918152602080830180516001600160e01b031660e095861b179052815160008152908101918290529286901b6001600160e01b0319169052611a649392509060248101612cd3565b6000604051808303816000875af1925050508015611aa457506040513d6000823e601f3d908101601f19168201604052611aa19190810190612d09565b60015b611ba6576000546004546006546001600160a01b036201000090930483169263a9059cbb921690611ae7906001600160401b03166001600160601b038716612a0d565b6040516001600160e01b031960e085901b1681526001600160a01b03909216600483015260248201526044016020604051808303816000875af1158015611b32573d6000803e3d6000fd5b505050506040513d601f19601f82011682018060405250810190611b569190612a2c565b50600780546001600160a01b039081169091556000600a55604051600b84900b8152908216907f42d967e995cf8754bd8d1c4edabe66753b6c0e6b03f4bef06bf5a3eb5fe360e490602001611823565b505050565b6001546060906001600160a01b03163314611bd8576040516282b42960e81b815260040160405180910390fd5b600154604051631fb6491d60e11b815230916001600160a01b031690633f6c923a90611c0a9087908790600401612a70565b600060405180830381865afa158015611c27573d6000803e3d6000fd5b505050506040513d6000823e601f3d908101601f19168201604052611c4f9190810190612b99565b606001516001600160a01b031614611c7a5760405163019ec8b360e31b815260040160405180910390fd5b6007546009805462ff0000191690556006546001600160a01b03821691600160a01b9004600b0b90611cbc90600160401b90046001600160401b0316426129fa565b600a55600454604080516020601f8801819004810282018101909252868152611d1f926001600160a01b03169184919089908990819084018382808284376000920182905250546201000090046001600160a01b03169594939250612360915050565b6003549093506001600160a01b031615611d9357600354604051631ff0045b60e01b81526001600160a01b03848116600483015290911690631ff0045b90602401600060405180830381600087803b158015611d7a57600080fd5b505af1158015611d8e573d6000803e3d6000fd5b505050505b604051600b82900b81526001600160a01b038316907f80b4922304eae1fa64e628db175f18ee543a12528075e254adfeb0160838f3ab9060200160405180910390a250509998505050505050505050565b600081600b0b13611e0857604051637f133f2160e11b815260040160405180910390fd5b600754611e20908290600160a01b9004600b0b610777565b1580611e3c5750600454600160a01b9004600b90810b9082900b125b15611e5a576040516353a24db360e11b815260040160405180910390fd5b600780546001600160a01b038481166001600160601b038516600160a01b9081026001600160a01b0319811692909217909455600a54938304600b0b93908216919092161790600003611ecc57600654611ec490600160801b90046001600160401b0316426129fa565b600a55611f16565b600654600a54600160c01b9091046001600160401b031690611eef9042906129e7565b1015611f1657600654611f1290600160c01b90046001600160401b0316426129fa565b600a555b600654600090611f38906001600160401b03166001600160601b038616612a0d565b6000546040516323b872dd60e01b81526001600160a01b0388811660048301523060248301526044820184905292935062010000909104909116906323b872dd906064016020604051808303816000875af1158015611f9b573d6000803e3d6000fd5b505050506040513d601f19601f82011682018060405250810190611fbf9190612a2c565b5082600b0b60001461207757600054600654620100009091046001600160a01b03169063a9059cbb908490612006906001600160401b03166001600160601b038816612a0d565b6040516001600160e01b031960e085901b1681526001600160a01b03909216600483015260248201526044016020604051808303816000875af1158015612051573d6000803e3d6000fd5b505050506040513d601f19601f820116820180604052508101906120759190612a2c565b505b604051600b85900b81526001600160a01b038616907f441c29b7058c97d0ec2d7e8ef68437ba13a4911a56cf882c490b1cb5d2917b639060200160405180910390a25050505050565b610562816040516024016120d491906127b6565b60408051601f198184030181529190526020810180516001600160e01b031663104c13eb60e21b1790526123eb565b60606000806121118761240c565b91509150816001600160a01b0316634329d29382836001600160a01b031663b4b333c68b8b8b60006001600160401b0381111561215057612150612a9f565b6040519080825280601f01601f19166020018201604052801561217a576020820181803683370190505b5060405160240161218e9493929190612c9f565b60408051808303601f1901815291815260208201805160e094851b6001600160e01b03909116179052519185901b6001600160e01b03191682526121d9939250908990600401612dc8565b6000604051808303816000875af11580156121f8573d6000803e3d6000fd5b505050506040513d6000823e601f3d908101601f191682016040526122209190810190612e1b565b50979650505050505050565b600080600061223a8661240c565b91509150816001600160a01b03166339255d5b82836001600160a01b031663b4b333c68a8a8a60006001600160401b0381111561227957612279612a9f565b6040519080825280601f01601f1916602001820160405280156122a3576020820181803683370190505b506040516024016122b79493929190612c9f565b60408051601f19818403018152918152602080830180516001600160e01b031660e095861b179052815160008152908101918290529286901b6001600160e01b031916905261230c9392509060248101612cd3565b6000604051808303816000875af115801561232b573d6000803e3d6000fd5b505050506040513d6000823e601f3d908101601f191682016040526123539190810190612d09565b5060019695505050505050565b606060008061236e8761240c565b91509150816001600160a01b0316634329d29382836001600160a01b03166362fc305e8b8b8b60006001600160401b038111156123ad576123ad612a9f565b6040519080825280601f01601f1916602001820160405280156123d7576020820181803683370190505b5060405160240161218e9493929190612e7e565b80516a636f6e736f6c652e6c6f67602083016000808483855afa5050505050565b7f65599bf746e17a00ea62e3610586992d88101b78eec3cf380706621fb97ea837547fb969d79d88acd02d04ed7ee7d43b949e7daf093d363abcfbbc43dfdfd1ce969a546001600160a01b0381166125a2576001600160a01b0382166124d157826001600160a01b03166320bc44256040518163ffffffff1660e01b8152600401602060405180830381865afa1580156124aa573d6000803e3d6000fd5b505050506040513d601f19601f820116820180604052508101906124ce9190612eb4565b91505b604051635b69006f60e11b81527fa9214cc96615e0085d3bb077758db69497dc2dce3b2b1e97bc93c3d18d83efd360048201526001600160a01b0383169063b6d200de90602401602060405180830381865afa158015612535573d6000803e3d6000fd5b505050506040513d601f19601f820116820180604052508101906125599190612eb4565b9050817f65599bf746e17a00ea62e3610586992d88101b78eec3cf380706621fb97ea83755807fb969d79d88acd02d04ed7ee7d43b949e7daf093d363abcfbbc43dfdfd1ce969a555b6001600160a01b0382166125b8576125b8612ed1565b6001600160a01b0381166125ce576125ce612ed1565b915091565b8035600b81900b81146125e557600080fd5b919050565b6000602082840312156125fc57600080fd5b612605826125d3565b9392505050565b6000806040838503121561261f57600080fd5b612628836125d3565b9150612636602084016125d3565b90509250929050565b6001600160a01b038116811461056257600080fd5b60008083601f84011261266657600080fd5b5081356001600160401b0381111561267d57600080fd5b60208301915083602082850101111561269557600080fd5b9250929050565b600080600080600080600080600060c08a8c0312156126ba57600080fd5b89356126c58161263f565b985060208a01356126d58161263f565b975060408a0135965060608a01356001600160401b03808211156126f857600080fd5b6127048d838e01612654565b909850965060808c013591508082111561271d57600080fd5b6127298d838e01612654565b909650945060a08c013591508082111561274257600080fd5b5061274f8c828d01612654565b915080935050809150509295985092959850929598565b60005b83811015612781578181015183820152602001612769565b50506000910152565b600081518084526127a2816020860160208601612766565b601f01601f19169290920160200192915050565b602081526000612605602083018461278a565b600080600080600080600060a0888a0312156127e457600080fd5b87356127ef8161263f565b965060208801356127ff8161263f565b95506040880135945060608801356001600160401b038082111561282257600080fd5b61282e8b838c01612654565b909650945060808a013591508082111561284757600080fd5b506128548a828b01612654565b989b979a50959850939692959293505050565b60008060006040848603121561287c57600080fd5b612885846125d3565b925060208401356001600160401b038111156128a057600080fd5b6128ac86828701612654565b9497909650939450505050565b80356001600160401b03811681146125e557600080fd5b60008060008060008060008060008060006101608c8e0312156128f257600080fd5b8b356128fd8161263f565b9a5060208c013561290d8161263f565b995060408c013561291d8161263f565b985060608c013561292d8161263f565b975060808c013561293d8161263f565b965060a08c01356001600160601b038116811461295957600080fd5b955061296760c08d016125d3565b945061297560e08d016128b9565b93506129846101008d016128b9565b92506129936101208d016128b9565b91506129a26101408d016128b9565b90509295989b509295989b9093969950565b6000602082840312156129c657600080fd5b81356126058161263f565b634e487b7160e01b600052601160045260246000fd5b818103818111156107b1576107b16129d1565b808201808211156107b1576107b16129d1565b6000816000190483118215151615612a2757612a276129d1565b500290565b600060208284031215612a3e57600080fd5b8151801515811461260557600080fd5b600082612a6b57634e487b7160e01b600052601260045260246000fd5b500490565b60208152816020820152818360408301376000818301604090810191909152601f909201601f19160101919050565b634e487b7160e01b600052604160045260246000fd5b60405161016081016001600160401b0381118282101715612ad857612ad8612a9f565b60405290565b805160ff811681146125e557600080fd5b80516125e58161263f565b80516001600160e01b0319811681146125e557600080fd5b600082601f830112612b2357600080fd5b81516001600160401b0380821115612b3d57612b3d612a9f565b604051601f8301601f19908116603f01168101908282118183101715612b6557612b65612a9f565b81604052838152866020858801011115612b7e57600080fd5b612b8f846020830160208901612766565b9695505050505050565b600060208284031215612bab57600080fd5b81516001600160401b0380821115612bc257600080fd5b908301906101608286031215612bd757600080fd5b612bdf612ab5565b612be883612ade565b8152612bf660208401612ade565b602082015260408301516040820152612c1160608401612aef565b6060820152612c2260808401612afa565b608082015260a083015182811115612c3957600080fd5b612c4587828601612b12565b60a08301525060c083015160c082015260e083015160e0820152610100915081830151828201526101209150612c7c828401612aef565b828201526101409150612c90828401612aef565b91810191909152949350505050565b6001600160a01b038581168252848116602083015283166040820152608060608201819052600090612b8f9083018461278a565b6001600160a01b0384168152606060208201819052600090612cf79083018561278a565b8281036040840152612b8f818561278a565b600060208284031215612d1b57600080fd5b81516001600160401b03811115612d3157600080fd5b612d3d84828501612b12565b949350505050565b600181811c90821680612d5957607f821691505b602082108103612d7957634e487b7160e01b600052602260045260246000fd5b50919050565b6001600160a01b038681168252858116602083015284166040820152600b83900b606082015260a060808201819052600090612dbd9083018461278a565b979650505050505050565b6001600160a01b0384168152608060208201819052600090612dec9083018561278a565b8281038060408501526002825261060f60f31b602083015260408101606085015250612b8f604082018561278a565b60008060408385031215612e2e57600080fd5b82516001600160401b0380821115612e4557600080fd5b612e5186838701612b12565b93506020850151915080821115612e6757600080fd5b50612e7485828601612b12565b9150509250929050565b6001600160a01b03858116825284166020820152600b83900b6040820152608060608201819052600090612b8f9083018461278a565b600060208284031215612ec657600080fd5b81516126058161263f565b634e487b7160e01b600052600160045260246000fdfea2646970667358221220d263e830178f1a6464155b32d9227b9d089fae5f7856188686882f19e05cb63064736f6c63430008100033",
    "linkReferences": {}
  },
  "methodIdentifiers": {
    "acceptedToken()": "451c3d80",
    "afterAgreementCreated(address,address,bytes32,bytes,bytes,bytes)": "d86ed3e5",
    "afterAgreementTerminated(address,address,bytes32,bytes,bytes,bytes)": "53c11f99",
    "afterAgreementUpdated(address,address,bytes32,bytes,bytes,bytes)": "230dbd29",
    "beforeAgreementCreated(address,address,bytes32,bytes,bytes)": "30d9c915",
    "beforeAgreementTerminated(address,address,bytes32,bytes,bytes)": "5f9e7d77",
    "beforeAgreementUpdated(address,address,bytes32,bytes,bytes)": "884d1f40",
    "beneficiary()": "38af3eed",
    "biddingPhaseDuration()": "96f6fe91",
    "biddingPhaseExtensionDuration()": "ac99adf0",
    "cfa()": "1054df8c",
    "controllerObserver()": "040e2c20",
    "currentPhaseEndTime()": "b0dd1634",
    "currentRenter()": "242f17a9",
    "depositClaimed()": "17ddfb48",
    "host()": "f437bc59",
    "initialize(address,address,address,address,address,uint96,int96,uint64,uint64,uint64,uint64)": "56898a4e",
    "isBidHigher(int96,int96)": "21e39ee8",
    "isBiddingPhase()": "83e98bc3",
    "isRentalPhase()": "38aa103c",
    "maxRentalDuration()": "7ce4026f",
    "minRentalDuration()": "34f1a8d3",
    "minimumBidFactorWad()": "3047d5fb",
    "pause()": "8456cb59",
    "paused()": "5c975abb",
    "placeBid(int96)": "1e319aee",
    "placeBid(int96,bytes)": "3ed58ed1",
    "reclaimDeposit()": "1f3ff68d",
    "reserveRate()": "58d7bf80",
    "senderUserData(address)": "8bcf819d",
    "topBidder()": "01333f06",
    "topFlowRate()": "016c2d9a",
    "transitionToBiddingPhase()": "6ecea2ec",
    "transitionToRentalPhase()": "9abb8a5f",
    "unpause()": "3f4ba83a"
  },
  "id": 104
}