{
  "abi": [
    {
      "inputs": [
        {
          "internalType": "address",
          "name": "_host",
          "type": "address"
        },
        {
          "internalType": "address",
          "name": "_cfa",
          "type": "address"
        }
      ],
      "stateMutability": "nonpayable",
      "type": "constructor"
    },
    {
      "anonymous": false,
      "inputs": [
        {
          "indexed": true,
          "internalType": "address",
          "name": "auctionAddress",
          "type": "address"
        },
        {
          "indexed": true,
          "internalType": "address",
          "name": "controllerObserverAddress",
          "type": "address"
        },
        {
          "indexed": true,
          "internalType": "address",
          "name": "controllerObserverImplementation",
          "type": "address"
        }
      ],
      "name": "EnglishRentalAuctionDeployed",
      "type": "event"
    },
    {
      "inputs": [
        {
          "components": [
            {
              "internalType": "contract ISuperToken",
              "name": "acceptedToken",
              "type": "address"
            },
            {
              "internalType": "address",
              "name": "controllerObserverImplementation",
              "type": "address"
            },
            {
              "internalType": "uint96",
              "name": "minimumBidFactorWad",
              "type": "uint96"
            },
            {
              "internalType": "int96",
              "name": "reserveRate",
              "type": "int96"
            },
            {
              "internalType": "uint64",
              "name": "minRentalDuration",
              "type": "uint64"
            },
            {
              "internalType": "uint64",
              "name": "maxRentalDuration",
              "type": "uint64"
            },
            {
              "internalType": "uint64",
              "name": "biddingPhaseDuration",
              "type": "uint64"
            },
            {
              "internalType": "uint64",
              "name": "biddingPhaseExtensionDuration",
              "type": "uint64"
            },
            {
              "internalType": "bytes",
              "name": "controllerObserverExtraArgs",
              "type": "bytes"
            }
          ],
          "internalType": "struct EnglishRentalAuctionFactory.CreateParams",
          "name": "params",
          "type": "tuple"
        }
      ],
      "name": "create",
      "outputs": [
        {
          "internalType": "address",
          "name": "auctionClone",
          "type": "address"
        },
        {
          "internalType": "address",
          "name": "controllerObserverClone",
          "type": "address"
        }
      ],
      "stateMutability": "nonpayable",
      "type": "function"
    }
  ],
  "bytecode": {
    "object": "0x60e060405234801561001057600080fd5b5060405161349838038061349883398101604081905261002f9161009e565b60405161003b90610075565b604051809103906000f080158015610057573d6000803e3d6000fd5b506001600160a01b0390811660805291821660a0521660c0526100d1565b612d9f806106f983390190565b80516001600160a01b038116811461009957600080fd5b919050565b600080604083850312156100b157600080fd5b6100ba83610082565b91506100c860208401610082565b90509250929050565b60805160a05160c0516105f4610105600039600061017801526000818160da015261015701526000606f01526105f46000f3fe608060405234801561001057600080fd5b506004361061002b5760003560e01c80635bd8b4a214610030575b600080fd5b61004361003e366004610431565b610067565b604080516001600160a01b0393841681529290911660208301520160405180910390f35b6000806100937f0000000000000000000000000000000000000000000000000000000000000000610393565b91506100ad6100a8604085016020860161048c565b610393565b6040516379b9982960e11b81526001600160a01b03848116600483015264190000000160248301529192507f00000000000000000000000000000000000000000000000000000000000000009091169063f373305290604401600060405180830381600087803b15801561012057600080fd5b505af1158015610134573d6000803e3d6000fd5b5050506001600160a01b03831690506356898a4e610155602086018661048c565b7f00000000000000000000000000000000000000000000000000000000000000007f000000000000000000000000000000000000000000000000000000000000000085336101a960608b0160408c016104a9565b6101b960808c0160608d016104d7565b6101c960a08d0160808e016104fa565b6101d960c08e0160a08f016104fa565b8d60c00160208101906101ec91906104fa565b8e60e00160208101906101ff91906104fa565b6040516001600160e01b031960e08e901b1681526001600160a01b039b8c166004820152998b1660248b0152978a1660448a015295891660648901529790931660848701526bffffffffffffffffffffffff90911660a4860152600b0b60c485015267ffffffffffffffff90811660e485015293841661010484015283166101248301529190911661014482015261016401600060405180830381600087803b1580156102ab57600080fd5b505af11580156102bf573d6000803e3d6000fd5b5050506001600160a01b038216905063cf7a1d7783336102e3610100880188610524565b6040518563ffffffff1660e01b81526004016103029493929190610572565b600060405180830381600087803b15801561031c57600080fd5b505af1158015610330573d6000803e3d6000fd5b5061034592505050604084016020850161048c565b6001600160a01b0316816001600160a01b0316836001600160a01b03167fef554cc30e9b1bcd56ed39df2908283673ff837d08886b597df42ebc8c58812760405160405180910390a4915091565b6000763d602d80600a3d3981f3363d3d373d3d3d363d730000008260601b60e81c176000526e5af43d82803e903d91602b57fd5bf38260781b17602052603760096000f090506001600160a01b03811661042c5760405162461bcd60e51b8152602060048201526016602482015275115490cc4c4d8dce8818dc99585d194819985a5b195960521b604482015260640160405180910390fd5b919050565b60006020828403121561044357600080fd5b813567ffffffffffffffff81111561045a57600080fd5b8201610120818503121561046d57600080fd5b9392505050565b6001600160a01b038116811461048957600080fd5b50565b60006020828403121561049e57600080fd5b813561046d81610474565b6000602082840312156104bb57600080fd5b81356bffffffffffffffffffffffff8116811461046d57600080fd5b6000602082840312156104e957600080fd5b813580600b0b811461046d57600080fd5b60006020828403121561050c57600080fd5b813567ffffffffffffffff8116811461046d57600080fd5b6000808335601e1984360301811261053b57600080fd5b83018035915067ffffffffffffffff82111561055657600080fd5b60200191503681900382131561056b57600080fd5b9250929050565b6001600160a01b0385811682528416602082015260606040820181905281018290526000828460808401376000608084840101526080601f19601f85011683010190509594505050505056fea2646970667358221220a5cb4ad0195b35d8bc5e214415c59e6cac308cd5ff4d8f91c5bc0b52247df4d664736f6c63430008100033608060405234801561001057600080fd5b50612d7f806100206000396000f3fe608060405234801561001057600080fd5b50600436106102065760003560e01c806353c11f991161011a5780638456cb59116100ad578063ac99adf01161007c578063ac99adf014610471578063b0dd16341461048b578063d86ed3e514610494578063f437bc59146104a7578063f8a7689e146104ba57600080fd5b80638456cb5914610434578063884d1f401461043c57806396f6fe911461044f5780639abb8a5f1461046957600080fd5b80635f9e7d77116100e95780635f9e7d77146103ec5780636ecea2ec146103ff5780637ce4026f1461040757806383e98bc31461042157600080fd5b806353c11f99146103a057806356898a4e146103b357806358d7bf80146103c65780635c975abb146103da57600080fd5b8063230dbd291161019d57806334f1a8d31161016c57806334f1a8d31461032e57806338af3eed146103595780633ed58ed11461036c5780633f4ba83a1461037f578063451c3d801461038757600080fd5b8063230dbd29146102dc578063242f17a9146102fc5780633047d5fb1461030457806330d9c9151461031b57600080fd5b806317ddfb48116101d957806317ddfb48146102885780631e319aee146102ac5780631f3ff68d146102c157806321e39ee8146102c957600080fd5b806301333f061461020b578063016c2d9a1461023b578063040e2c20146102625780631054df8c14610275575b600080fd5b60075461021e906001600160a01b031681565b6040516001600160a01b0390911681526020015b60405180910390f35b60075461024f90600160a01b9004600b0b81565b604051600b9190910b8152602001610232565b60035461021e906001600160a01b031681565b60025461021e906001600160a01b031681565b60085461029c906301000000900460ff1681565b6040519015158152602001610232565b6102bf6102ba36600461246a565b6104c2565b005b6102bf61053d565b61029c6102d736600461248c565b610726565b6102ef6102ea36600461251c565b610766565b6040516102329190612636565b61021e6107cd565b61030d60055481565b604051908152602001610232565b6102ef610329366004612649565b6107f8565b600654610341906001600160401b031681565b6040516001600160401b039091168152602001610232565b60045461021e906001600160a01b031681565b6102ef61037a3660046126e7565b61085b565b6102bf6109be565b60005461021e906201000090046001600160a01b031681565b6102ef6103ae36600461251c565b610a46565b6102bf6103c1366004612750565b610ee1565b60045461024f90600160a01b9004600b0b81565b60085461029c90610100900460ff1681565b6102ef6103fa366004612649565b611240565b6102bf6112a7565b60065461034190600160401b90046001600160401b031681565b60085461029c9062010000900460ff1681565b6102bf6114e2565b6102ef61044a366004612649565b6116bf565b60065461034190600160801b90046001600160401b031681565b6102bf611722565b60065461034190600160c01b90046001600160401b031681565b61030d60095481565b6102ef6104a236600461251c565b611978565b60015461021e906001600160a01b031681565b61029c611ba0565b60085462010000900460ff1615806104e9575060006009541180156104e957506009544210155b15610507576040516353df604760e11b815260040160405180910390fd5b600854610100900460ff161561053057604051631309a56360e01b815260040160405180910390fd5b61053a3382611c0d565b50565b60085462010000900460ff161561056757604051635d1a12e560e01b815260040160405180910390fd5b6007546001600160a01b0316338114610592576040516282b42960e81b815260040160405180910390fd5b6008546301000000900460ff16156105bd57604051630662741160e01b815260040160405180910390fd5b6006546009546000916105e191600160401b9091046001600160401b03169061284a565b6006549091506105fa906001600160401b03168261285d565b42101561061a576040516355267b7960e01b815260040160405180910390fd5b6008805463ff0000001916630100000017905560065460075460009161065c916001600160401b03909116906001600160601b03600160a01b90910416612870565b60005460405163a9059cbb60e01b81526001600160a01b03868116600483015260248201849052929350620100009091049091169063a9059cbb906044016020604051808303816000875af11580156106b9573d6000803e3d6000fd5b505050506040513d601f19601f820116820180604052508101906106dd919061288f565b50826001600160a01b03167fe800e3ea37ded367af4fce9aa5ecaa72b693f315a2c3b6c7a3d07c84196515fb8260405161071991815260200190565b60405180910390a2505050565b6000670de0b6b3a7640000600554836001600160601b03166107489190612870565b61075291906128b1565b836001600160601b03161190505b92915050565b60405162461bcd60e51b815260206004820152602e60248201527f556e737570706f727465642063616c6c6261636b202d2041667465722041677260448201526d19595b595b9d08155c19185d195960921b60648201526060906084015b60405180910390fd5b60085460009062010000900460ff166107f057506007546001600160a01b031690565b60005b905090565b60405162461bcd60e51b815260206004820152602f60248201527f556e737570706f727465642063616c6c6261636b202d204265666f726520416760448201526e1c99595b595b9d0810dc99585d1959608a1b60648201526060906084016107c4565b6001546060906001600160a01b03163314610888576040516282b42960e81b815260040160405180910390fd5b60085462010000900460ff1615806108af575060006009541180156108af57506009544210155b156108cd576040516353df604760e11b815260040160405180910390fd5b600854610100900460ff16156108f657604051631309a56360e01b815260040160405180910390fd5b600154604051631fb6491d60e11b81526000916001600160a01b031690633f6c923a9061092990879087906004016128d3565b600060405180830381865afa158015610946573d6000803e3d6000fd5b505050506040513d6000823e601f3d908101601f1916820160405261096e91908101906129fc565b60600151905061097e8186611c0d565b83838080601f0160208091040260200160405190810160405280939291908181526020018383808284376000920191909152509298975050505050505050565b6003546001600160a01b031633146109e8576040516282b42960e81b815260040160405180910390fd5b600854610100900460ff16610a105760405163bc871ce560e01b815260040160405180910390fd5b6008805461ff00191690556040517fa45f47fdea8a1efdd9029a5691c7f759c32b7c698632b563573e155625d1693390600090a1565b6001546060906001600160a01b03163314610a73576040516282b42960e81b815260040160405180910390fd5b6000546001600160a01b038b81166201000090920416141580610aa457506002546001600160a01b038a8116911614155b15610ae85782828080601f016020809104026020016040519081016040528093929190818152602001838380828437600092019190915250929350610ed492505050565b82828080601f01602080910402602001604051908101604052809392919081815260200183838082843760009201829052506007549495506001600160a01b03851694600160a01b9004600b0b93509150819050610b488a8c018c612b02565b60045491935091506001600160a01b0390811690821603610b9257600454600054610b87916001600160a01b0362010000909204821691168588611fa4565b945050505050610ed4565b60085462010000900460ff16158015610bbc5750836001600160a01b0316826001600160a01b0316145b15610ecf576008546301000000900460ff16610de15760095460065460009190610bf690600160401b90046001600160401b03164261285d565b610c00919061284a565b610c13906001600160601b038616612870565b600654909150600090610c38906001600160401b03166001600160601b038716612870565b9050808210610cc55760005460405163a9059cbb60e01b81526001600160a01b03868116600483015260248201849052620100009092049091169063a9059cbb906044016020604051808303816000875af1158015610c9b573d6000803e3d6000fd5b505050506040513d601f19601f82011682018060405250810190610cbf919061288f565b50610dde565b6000546004546001600160a01b036201000090920482169163a9059cbb9116610cee858561284a565b6040516001600160e01b031960e085901b1681526001600160a01b03909216600483015260248201526044016020604051808303816000875af1158015610d39573d6000803e3d6000fd5b505050506040513d601f19601f82011682018060405250810190610d5d919061288f565b5060005460405163a9059cbb60e01b81526001600160a01b03868116600483015260248201859052620100009092049091169063a9059cbb906044016020604051808303816000875af1158015610db8573d6000803e3d6000fd5b505050506040513d601f19601f82011682018060405250810190610ddc919061288f565b505b50505b6008805460006009819055600780546001600160a01b0390811690915563ffff0000199092166201000017909255600354604051631ff0045b60e01b815260048101939093521690631ff0045b90602401600060405180830381600087803b158015610e4c57600080fd5b505af1158015610e60573d6000803e3d6000fd5b5050600454600054610e8993506201000090046001600160a01b039081169250309116886120cd565b604051600b85900b81529095506001600160a01b038516907fc1e73fbcc0647788c9303b3c4ce3dcec2c36c97db01d1984b0a40a94906b59ca9060200160405180910390a25b505050505b9998505050505050505050565b600054610100900460ff1615808015610f015750600054600160ff909116105b80610f1b5750303b158015610f1b575060005460ff166001145b610f7e5760405162461bcd60e51b815260206004820152602e60248201527f496e697469616c697a61626c653a20636f6e747261637420697320616c72656160448201526d191e481a5b9a5d1a585b1a5e995960921b60648201526084016107c4565b6000805460ff191660011790558015610fa1576000805461ff0019166101001790555b6001600160a01b038c16610fb457600080fd5b6001600160a01b038b16610fc757600080fd5b6001600160a01b038a16610fda57600080fd5b6001600160a01b038816610fed57600080fd5b604051631e51d6a760e11b81526001600160a01b0389811660048301528c1690633ca3ad4e90602401602060405180830381865afa158015611033573d6000803e3d6000fd5b505050506040513d601f19601f82011682018060405250810190611057919061288f565b1561106157600080fd5b670de0b6b3a7640000876001600160601b0316101561107f57600080fd5b600086600b0b121561109057600080fd5b6000856001600160401b0316116110a657600080fd5b846001600160401b0316846001600160401b031610156110c557600080fd5b6000826001600160401b0316116110db57600080fd5b816001600160401b0316836001600160401b031610156110fa57600080fd5b6000805462010000600160b01b031916620100006001600160a01b038f81169190910291909117909155600180546001600160a01b03199081168e8416179091556002805482168d8416179055600380549091168b83161790556001600160601b03888116600555908916600160a01b9188169190910217600455600680546001600160401b038781166fffffffffffffffffffffffffffffffff1990921691909117600160401b87831602176fffffffffffffffffffffffffffffffff16600160801b868316026001600160c01b031617600160c01b918516919091021790556008805462ffffff1916620101011790558015611232576000805461ff0019169055604051600181527f7f26b83ff96e1f2b6a682f133852f6798a09c465da95921460cefb38474024989060200160405180910390a15b505050505050505050505050565b60405162461bcd60e51b815260206004820152603360248201527f556e737570706f727465642063616c6c6261636b202d20204265666f7265204160448201527219dc99595b595b9d0815195c9b5a5b985d1959606a1b60648201526060906084016107c4565b600854610100900460ff16156112d057604051631309a56360e01b815260040160405180910390fd5b60085462010000900460ff16156112fa5760405163a3ddecbd60e01b815260040160405180910390fd5b60095442101561131d5760405163635237c760e11b815260040160405180910390fd5b6007546008546001600160a01b03909116906301000000900460ff166113f357600054600654600754620100009092046001600160a01b03169163a9059cbb918491611382916001600160401b031690600160a01b90046001600160601b0316612870565b6040516001600160e01b031960e085901b1681526001600160a01b03909216600483015260248201526044016020604051808303816000875af11580156113cd573d6000803e3d6000fd5b505050506040513d601f19601f820116820180604052508101906113f1919061288f565b505b6008805463ffff000019166201000017905560006009819055600780546001600160a01b03908116909155600354604051631ff0045b60e01b815260048101939093521690631ff0045b90602401600060405180830381600087803b15801561145b57600080fd5b505af115801561146f573d6000803e3d6000fd5b505060045460005461149793506201000090046001600160a01b039081169250309116612158565b506000546114b5906201000090046001600160a01b03168230612158565b506040517f3f634313ae3ffeb092439678c6f527c6095d0da8edc8bb709fefb98f9905485290600090a150565b6003546001600160a01b0316331461150c576040516282b42960e81b815260040160405180910390fd5b600854610100900460ff161561153557604051631309a56360e01b815260040160405180910390fd5b60085462010000900460ff16158061155c5750600060095411801561155c57506009544210155b1561157a576040516353df604760e11b815260040160405180910390fd5b6008805461ff0019166101001790556007546001600160a01b03811690600160a01b9004600b0b600081131561165657600054600654620100009091046001600160a01b03169063a9059cbb9084906115e5906001600160401b03166001600160601b038616612870565b6040516001600160e01b031960e085901b1681526001600160a01b03909216600483015260248201526044016020604051808303816000875af1158015611630573d6000803e3d6000fd5b505050506040513d601f19601f82011682018060405250810190611654919061288f565b505b6008805463ffff00001916620100001790556000600955600780546001600160a01b03908116909155604051600b83900b8152908316907f141dc4240f18a393e25ff69722e390fbba795f4f73f89bb1612dfdd041238841906020015b60405180910390a25050565b60405162461bcd60e51b815260206004820152602f60248201527f556e737570706f727465642063616c6c6261636b202d204265666f726520416760448201526e1c99595b595b9d081d5c19185d1959608a1b60648201526060906084016107c4565b60085462010000900460ff1661174b57604051631b37398160e11b815260040160405180910390fd5b600954158061175b575060095442105b156117795760405163635237c760e11b815260040160405180910390fd5b6007546001546002546000805460408051928352602083019052600160a01b8504600b0b946001600160a01b03908116948116936339255d5b939082169283926394229ecb926117dc9262010000900490911690889030908b9060448101612b3b565b60408051601f19818403018152918152602080830180516001600160e01b031660e095861b179052815160008152908101918290529286901b6001600160e01b03191690526118319392509060248101612b84565b6000604051808303816000875af192505050801561187157506040513d6000823e601f3d908101601f1916820160405261186e9190810190612bba565b60015b611973576000546004546006546001600160a01b036201000090930483169263a9059cbb9216906118b4906001600160401b03166001600160601b038716612870565b6040516001600160e01b031960e085901b1681526001600160a01b03909216600483015260248201526044016020604051808303816000875af11580156118ff573d6000803e3d6000fd5b505050506040513d601f19601f82011682018060405250810190611923919061288f565b50600780546001600160a01b039081169091556000600955604051600b84900b8152908216907f42d967e995cf8754bd8d1c4edabe66753b6c0e6b03f4bef06bf5a3eb5fe360e4906020016116b3565b505050565b6001546060906001600160a01b031633146119a5576040516282b42960e81b815260040160405180910390fd5b600154604051631fb6491d60e11b815230916001600160a01b031690633f6c923a906119d790879087906004016128d3565b600060405180830381865afa1580156119f4573d6000803e3d6000fd5b505050506040513d6000823e601f3d908101601f19168201604052611a1c91908101906129fc565b606001516001600160a01b031614611a46576040516282b42960e81b815260040160405180910390fd5b6007546008805462ff0000191690556006546001600160a01b03821691600160a01b9004600b0b90611a8890600160401b90046001600160401b03164261285d565b600955600354604051631ff0045b60e01b81526001600160a01b03848116600483015290911690631ff0045b90602401600060405180830381600087803b158015611ad257600080fd5b505af1158015611ae6573d6000803e3d6000fd5b5050600454604080516020601f8a01819004810282018101909252888152611b4c94506001600160a01b03909216925084919089908990819084018382808284376000920182905250546201000090046001600160a01b03169594939250611fa4915050565b604051600b83900b81529093506001600160a01b038316907f80b4922304eae1fa64e628db175f18ee543a12528075e254adfeb0160838f3ab9060200160405180910390a250509998505050505050505050565b600154604051636b4f333560e01b81523060048201526000916001600160a01b031690636b4f333590602401602060405180830381865afa158015611be9573d6000803e3d6000fd5b505050506040513d601f19601f820116820180604052508101906107f3919061288f565b600081600b0b13611c3157604051637f133f2160e11b815260040160405180910390fd5b600754611c49908290600160a01b9004600b0b610726565b1580611c655750600454600160a01b9004600b90810b9082900b125b15611c83576040516353a24db360e11b815260040160405180910390fd5b6004546001600160a01b0390811690831603611cb2576040516322fe227560e11b815260040160405180910390fd5b600154604051631e51d6a760e11b81526001600160a01b03848116600483015290911690633ca3ad4e90602401602060405180830381865afa158015611cfc573d6000803e3d6000fd5b505050506040513d601f19601f82011682018060405250810190611d20919061288f565b15611d3e57604051635f5a76ff60e01b815260040160405180910390fd5b600780546001600160a01b038481166001600160601b038516600160a01b9081026001600160a01b0319811692909217909455600954938304600b0b93908216919092161790600003611db057600654611da890600160801b90046001600160401b03164261285d565b600955611dfa565b600654600954600160c01b9091046001600160401b031690611dd390429061284a565b1015611dfa57600654611df690600160c01b90046001600160401b03164261285d565b6009555b600654600090611e1c906001600160401b03166001600160601b038616612870565b6000546040516323b872dd60e01b81526001600160a01b0388811660048301523060248301526044820184905292935062010000909104909116906323b872dd906064016020604051808303816000875af1158015611e7f573d6000803e3d6000fd5b505050506040513d601f19601f82011682018060405250810190611ea3919061288f565b5082600b0b600014611f5b57600054600654620100009091046001600160a01b03169063a9059cbb908490611eea906001600160401b03166001600160601b038816612870565b6040516001600160e01b031960e085901b1681526001600160a01b03909216600483015260248201526044016020604051808303816000875af1158015611f35573d6000803e3d6000fd5b505050506040513d601f19601f82011682018060405250810190611f59919061288f565b505b604051600b85900b81526001600160a01b038616907f441c29b7058c97d0ec2d7e8ef68437ba13a4911a56cf882c490b1cb5d2917b639060200160405180910390a25050505050565b6060600080611fb28761228c565b91509150816001600160a01b0316634329d29382836001600160a01b03166362fc305e8b8b8b60006001600160401b03811115611ff157611ff1612902565b6040519080825280601f01601f19166020018201604052801561201b576020820181803683370190505b5060405160240161202f9493929190612bf6565b60408051808303601f1901815291815260208201805160e094851b6001600160e01b03909116179052519185901b6001600160e01b031916825261207a939250908990600401612c2c565b6000604051808303816000875af1158015612099573d6000803e3d6000fd5b505050506040513d6000823e601f3d908101601f191682016040526120c19190810190612c7f565b50979650505050505050565b60606000806120db8761228c565b91509150816001600160a01b0316634329d29382836001600160a01b031663b4b333c68b8b8b60006001600160401b0381111561211a5761211a612902565b6040519080825280601f01601f191660200182016040528015612144576020820181803683370190505b5060405160240161202f9493929190612ce2565b60008060006121668661228c565b91509150816001600160a01b03166339255d5b82836001600160a01b031663b4b333c68a8a8a60006001600160401b038111156121a5576121a5612902565b6040519080825280601f01601f1916602001820160405280156121cf576020820181803683370190505b506040516024016121e39493929190612ce2565b60408051601f19818403018152918152602080830180516001600160e01b031660e095861b179052815160008152908101918290529286901b6001600160e01b03191690526122389392509060248101612b84565b6000604051808303816000875af1158015612257573d6000803e3d6000fd5b505050506040513d6000823e601f3d908101601f1916820160405261227f9190810190612bba565b5060019695505050505050565b7f65599bf746e17a00ea62e3610586992d88101b78eec3cf380706621fb97ea837547fb969d79d88acd02d04ed7ee7d43b949e7daf093d363abcfbbc43dfdfd1ce969a546001600160a01b038116612422576001600160a01b03821661235157826001600160a01b03166320bc44256040518163ffffffff1660e01b8152600401602060405180830381865afa15801561232a573d6000803e3d6000fd5b505050506040513d601f19601f8201168201806040525081019061234e9190612d16565b91505b604051635b69006f60e11b81527fa9214cc96615e0085d3bb077758db69497dc2dce3b2b1e97bc93c3d18d83efd360048201526001600160a01b0383169063b6d200de90602401602060405180830381865afa1580156123b5573d6000803e3d6000fd5b505050506040513d601f19601f820116820180604052508101906123d99190612d16565b9050817f65599bf746e17a00ea62e3610586992d88101b78eec3cf380706621fb97ea83755807fb969d79d88acd02d04ed7ee7d43b949e7daf093d363abcfbbc43dfdfd1ce969a555b6001600160a01b03821661243857612438612d33565b6001600160a01b03811661244e5761244e612d33565b915091565b8035600b81900b811461246557600080fd5b919050565b60006020828403121561247c57600080fd5b61248582612453565b9392505050565b6000806040838503121561249f57600080fd5b6124a883612453565b91506124b660208401612453565b90509250929050565b6001600160a01b038116811461053a57600080fd5b60008083601f8401126124e657600080fd5b5081356001600160401b038111156124fd57600080fd5b60208301915083602082850101111561251557600080fd5b9250929050565b600080600080600080600080600060c08a8c03121561253a57600080fd5b8935612545816124bf565b985060208a0135612555816124bf565b975060408a0135965060608a01356001600160401b038082111561257857600080fd5b6125848d838e016124d4565b909850965060808c013591508082111561259d57600080fd5b6125a98d838e016124d4565b909650945060a08c01359150808211156125c257600080fd5b506125cf8c828d016124d4565b915080935050809150509295985092959850929598565b60005b838110156126015781810151838201526020016125e9565b50506000910152565b600081518084526126228160208601602086016125e6565b601f01601f19169290920160200192915050565b602081526000612485602083018461260a565b600080600080600080600060a0888a03121561266457600080fd5b873561266f816124bf565b9650602088013561267f816124bf565b95506040880135945060608801356001600160401b03808211156126a257600080fd5b6126ae8b838c016124d4565b909650945060808a01359150808211156126c757600080fd5b506126d48a828b016124d4565b989b979a50959850939692959293505050565b6000806000604084860312156126fc57600080fd5b61270584612453565b925060208401356001600160401b0381111561272057600080fd5b61272c868287016124d4565b9497909650939450505050565b80356001600160401b038116811461246557600080fd5b60008060008060008060008060008060006101608c8e03121561277257600080fd5b8b3561277d816124bf565b9a5060208c013561278d816124bf565b995060408c013561279d816124bf565b985060608c01356127ad816124bf565b975060808c01356127bd816124bf565b965060a08c01356001600160601b03811681146127d957600080fd5b95506127e760c08d01612453565b94506127f560e08d01612739565b93506128046101008d01612739565b92506128136101208d01612739565b91506128226101408d01612739565b90509295989b509295989b9093969950565b634e487b7160e01b600052601160045260246000fd5b8181038181111561076057610760612834565b8082018082111561076057610760612834565b600081600019048311821515161561288a5761288a612834565b500290565b6000602082840312156128a157600080fd5b8151801515811461248557600080fd5b6000826128ce57634e487b7160e01b600052601260045260246000fd5b500490565b60208152816020820152818360408301376000818301604090810191909152601f909201601f19160101919050565b634e487b7160e01b600052604160045260246000fd5b60405161016081016001600160401b038111828210171561293b5761293b612902565b60405290565b805160ff8116811461246557600080fd5b8051612465816124bf565b80516001600160e01b03198116811461246557600080fd5b600082601f83011261298657600080fd5b81516001600160401b03808211156129a0576129a0612902565b604051601f8301601f19908116603f011681019082821181831017156129c8576129c8612902565b816040528381528660208588010111156129e157600080fd5b6129f28460208301602089016125e6565b9695505050505050565b600060208284031215612a0e57600080fd5b81516001600160401b0380821115612a2557600080fd5b908301906101608286031215612a3a57600080fd5b612a42612918565b612a4b83612941565b8152612a5960208401612941565b602082015260408301516040820152612a7460608401612952565b6060820152612a856080840161295d565b608082015260a083015182811115612a9c57600080fd5b612aa887828601612975565b60a08301525060c083015160c082015260e083015160e0820152610100915081830151828201526101209150612adf828401612952565b828201526101409150612af3828401612952565b91810191909152949350505050565b60008060408385031215612b1557600080fd5b8235612b20816124bf565b91506020830135612b30816124bf565b809150509250929050565b6001600160a01b038681168252858116602083015284166040820152600b83900b606082015260a060808201819052600090612b799083018461260a565b979650505050505050565b6001600160a01b0384168152606060208201819052600090612ba89083018561260a565b82810360408401526129f2818561260a565b600060208284031215612bcc57600080fd5b81516001600160401b03811115612be257600080fd5b612bee84828501612975565b949350505050565b6001600160a01b03858116825284166020820152600b83900b60408201526080606082018190526000906129f29083018461260a565b6001600160a01b0384168152608060208201819052600090612c509083018561260a565b8281038060408501526002825261060f60f31b6020830152604081016060850152506129f2604082018561260a565b60008060408385031215612c9257600080fd5b82516001600160401b0380821115612ca957600080fd5b612cb586838701612975565b93506020850151915080821115612ccb57600080fd5b50612cd885828601612975565b9150509250929050565b6001600160a01b0385811682528481166020830152831660408201526080606082018190526000906129f29083018461260a565b600060208284031215612d2857600080fd5b8151612485816124bf565b634e487b7160e01b600052600160045260246000fdfea26469706673582212203129171fee74410f90e9fce6de0c1eb45571d6b1b2e5b61335fe1667f6b3158064736f6c63430008100033",
    "linkReferences": {}
  },
  "methodIdentifiers": {
    "create((address,address,uint96,int96,uint64,uint64,uint64,uint64,bytes))": "5bd8b4a2"
  },
  "id": 43
}