{
  "abi": [
    {
      "inputs": [
        {
          "internalType": "address",
          "name": "_host",
          "type": "address"
        },
        {
          "internalType": "address",
          "name": "_cfa",
          "type": "address"
        }
      ],
      "stateMutability": "nonpayable",
      "type": "constructor"
    },
    {
      "anonymous": false,
      "inputs": [
        {
          "indexed": true,
          "internalType": "address",
          "name": "auctionAddress",
          "type": "address"
        },
        {
          "indexed": true,
          "internalType": "address",
          "name": "controllerObserverAddress",
          "type": "address"
        },
        {
          "indexed": true,
          "internalType": "address",
          "name": "controllerObserverImplementation",
          "type": "address"
        }
      ],
      "name": "EnglishRentalAuctionDeployed",
      "type": "event"
    },
    {
      "inputs": [
        {
          "components": [
            {
              "internalType": "contract ISuperToken",
              "name": "acceptedToken",
              "type": "address"
            },
            {
              "internalType": "address",
              "name": "controllerObserverImplementation",
              "type": "address"
            },
            {
              "internalType": "address",
              "name": "beneficiary",
              "type": "address"
            },
            {
              "internalType": "uint96",
              "name": "minimumBidFactorWad",
              "type": "uint96"
            },
            {
              "internalType": "int96",
              "name": "reserveRate",
              "type": "int96"
            },
            {
              "internalType": "uint64",
              "name": "minRentalDuration",
              "type": "uint64"
            },
            {
              "internalType": "uint64",
              "name": "maxRentalDuration",
              "type": "uint64"
            },
            {
              "internalType": "uint64",
              "name": "biddingPhaseDuration",
              "type": "uint64"
            },
            {
              "internalType": "uint64",
              "name": "biddingPhaseExtensionDuration",
              "type": "uint64"
            },
            {
              "internalType": "bytes",
              "name": "controllerObserverExtraArgs",
              "type": "bytes"
            }
          ],
          "internalType": "struct EnglishRentalAuctionFactory.CreateParams",
          "name": "params",
          "type": "tuple"
        }
      ],
      "name": "create",
      "outputs": [
        {
          "internalType": "address",
          "name": "auctionClone",
          "type": "address"
        },
        {
          "internalType": "address",
          "name": "controllerObserverClone",
          "type": "address"
        }
      ],
      "stateMutability": "nonpayable",
      "type": "function"
    }
  ],
  "bytecode": {
    "object": "0x60e060405234801561001057600080fd5b506040516135c53803806135c583398101604081905261002f9161009e565b60405161003b90610075565b604051809103906000f080158015610057573d6000803e3d6000fd5b506001600160a01b0390811660805291821660a0521660c0526100d1565b612ebc8061070983390190565b80516001600160a01b038116811461009957600080fd5b919050565b600080604083850312156100b157600080fd5b6100ba83610082565b91506100c860208401610082565b90509250929050565b60805160a05160c051610604610105600039600061017801526000818160da015261015701526000606f01526106046000f3fe608060405234801561001057600080fd5b506004361061002b5760003560e01c8063d23711d414610030575b600080fd5b61004361003e366004610441565b610067565b604080516001600160a01b0393841681529290911660208301520160405180910390f35b6000806100937f00000000000000000000000000000000000000000000000000000000000000006103a3565b91506100ad6100a8604085016020860161049c565b6103a3565b6040516379b9982960e11b81526001600160a01b03848116600483015264190000000160248301529192507f00000000000000000000000000000000000000000000000000000000000000009091169063f373305290604401600060405180830381600087803b15801561012057600080fd5b505af1158015610134573d6000803e3d6000fd5b5050506001600160a01b03831690506356898a4e610155602086018661049c565b7f00000000000000000000000000000000000000000000000000000000000000007f0000000000000000000000000000000000000000000000000000000000000000856101a860608a0160408b0161049c565b6101b860808b0160608c016104b9565b6101c860a08c0160808d016104e7565b6101d860c08d0160a08e0161050a565b6101e860e08e0160c08f0161050a565b8d60e00160208101906101fb919061050a565b8e61010001602081019061020f919061050a565b6040516001600160e01b031960e08e901b1681526001600160a01b039b8c166004820152998b1660248b0152978a1660448a015295891660648901529790931660848701526bffffffffffffffffffffffff90911660a4860152600b0b60c485015267ffffffffffffffff90811660e485015293841661010484015283166101248301529190911661014482015261016401600060405180830381600087803b1580156102bb57600080fd5b505af11580156102cf573d6000803e3d6000fd5b5050506001600160a01b038216905063cf7a1d7783336102f3610120880188610534565b6040518563ffffffff1660e01b81526004016103129493929190610582565b600060405180830381600087803b15801561032c57600080fd5b505af1158015610340573d6000803e3d6000fd5b5061035592505050604084016020850161049c565b6001600160a01b0316816001600160a01b0316836001600160a01b03167fef554cc30e9b1bcd56ed39df2908283673ff837d08886b597df42ebc8c58812760405160405180910390a4915091565b6000763d602d80600a3d3981f3363d3d373d3d3d363d730000008260601b60e81c176000526e5af43d82803e903d91602b57fd5bf38260781b17602052603760096000f090506001600160a01b03811661043c5760405162461bcd60e51b8152602060048201526016602482015275115490cc4c4d8dce8818dc99585d194819985a5b195960521b604482015260640160405180910390fd5b919050565b60006020828403121561045357600080fd5b813567ffffffffffffffff81111561046a57600080fd5b8201610140818503121561047d57600080fd5b9392505050565b6001600160a01b038116811461049957600080fd5b50565b6000602082840312156104ae57600080fd5b813561047d81610484565b6000602082840312156104cb57600080fd5b81356bffffffffffffffffffffffff8116811461047d57600080fd5b6000602082840312156104f957600080fd5b813580600b0b811461047d57600080fd5b60006020828403121561051c57600080fd5b813567ffffffffffffffff8116811461047d57600080fd5b6000808335601e1984360301811261054b57600080fd5b83018035915067ffffffffffffffff82111561056657600080fd5b60200191503681900382131561057b57600080fd5b9250929050565b6001600160a01b0385811682528416602082015260606040820181905281018290526000828460808401376000608084840101526080601f19601f85011683010190509594505050505056fea2646970667358221220b0d275abf4ce7d30600479e55de0786da6119e50e6001181d53c4a9d2d1f6f2964736f6c63430008100033608060405234801561001057600080fd5b50612e9c806100206000396000f3fe608060405234801561001057600080fd5b50600436106102115760003560e01c8063451c3d80116101255780638456cb59116100ad5780639abb8a5f1161007c5780639abb8a5f14610499578063ac99adf0146104a1578063b0dd1634146104bb578063d86ed3e5146104c4578063f437bc59146104d757600080fd5b80638456cb5914610451578063884d1f40146104595780638bcf819d1461046c57806396f6fe911461047f57600080fd5b80635c975abb116100f45780635c975abb146103f75780635f9e7d77146104095780636ecea2ec1461041c5780637ce4026f1461042457806383e98bc31461043e57600080fd5b8063451c3d80146103a457806353c11f99146103bd57806356898a4e146103d057806358d7bf80146103e357600080fd5b8063230dbd29116101a857806334f1a8d31161017757806334f1a8d31461033957806338aa103c1461036457806338af3eed146103765780633ed58ed1146103895780633f4ba83a1461039c57600080fd5b8063230dbd29146102e7578063242f17a9146103075780633047d5fb1461030f57806330d9c9151461032657600080fd5b806317ddfb48116101e457806317ddfb48146102935780631e319aee146102b75780631f3ff68d146102cc57806321e39ee8146102d457600080fd5b806301333f0614610216578063016c2d9a14610246578063040e2c201461026d5780631054df8c14610280575b600080fd5b600754610229906001600160a01b031681565b6040516001600160a01b0390911681526020015b60405180910390f35b60075461025a90600160a01b9004600b0b81565b604051600b9190910b815260200161023d565b600354610229906001600160a01b031681565b600254610229906001600160a01b031681565b6009546102a7906301000000900460ff1681565b604051901515815260200161023d565b6102ca6102c5366004612569565b6104ea565b005b6102ca610565565b6102a76102e236600461258b565b610777565b6102fa6102f536600461261b565b6107b7565b60405161023d9190612735565b61022961081e565b61031860055481565b60405190815260200161023d565b6102fa610334366004612748565b610847565b60065461034c906001600160401b031681565b6040516001600160401b03909116815260200161023d565b60095462010000900460ff16156102a7565b600454610229906001600160a01b031681565b6102fa6103973660046127e6565b6108aa565b6102ca610a0d565b600054610229906201000090046001600160a01b031681565b6102fa6103cb36600461261b565b610a95565b6102ca6103de36600461284f565b610f9d565b60045461025a90600160a01b9004600b0b81565b6009546102a790610100900460ff1681565b6102fa610417366004612748565b611288565b6102ca6112ef565b60065461034c90600160401b90046001600160401b031681565b6009546102a79062010000900460ff1681565b6102ca6115d1565b6102fa610467366004612748565b6117ae565b6102fa61047a366004612933565b611811565b60065461034c90600160801b90046001600160401b031681565b6102ca6118ab565b60065461034c90600160c01b90046001600160401b031681565b610318600a5481565b6102fa6104d236600461261b565b611b2a565b600154610229906001600160a01b031681565b60095462010000900460ff16158061051157506000600a541180156105115750600a544210155b1561052f576040516353df604760e11b815260040160405180910390fd5b600954610100900460ff1615610558576040516313d0ff5960e31b815260040160405180910390fd5b6105623382611d63565b50565b600954610100900460ff161561058e576040516313d0ff5960e31b815260040160405180910390fd5b60095462010000900460ff16156105b857604051635d1a12e560e01b815260040160405180910390fd5b6007546001600160a01b03163381146105e3576040516282b42960e81b815260040160405180910390fd5b6009546301000000900460ff161561060e57604051630662741160e01b815260040160405180910390fd5b600654600a5460009161063291600160401b9091046001600160401b031690612966565b60065490915061064b906001600160401b031682612979565b42101561066b576040516355267b7960e01b815260040160405180910390fd5b6009805463ff000000191663010000001790556006546007546000916106ad916001600160401b03909116906001600160601b03600160a01b9091041661298c565b60005460405163a9059cbb60e01b81526001600160a01b03868116600483015260248201849052929350620100009091049091169063a9059cbb906044016020604051808303816000875af115801561070a573d6000803e3d6000fd5b505050506040513d601f19601f8201168201806040525081019061072e91906129ab565b50826001600160a01b03167fe800e3ea37ded367af4fce9aa5ecaa72b693f315a2c3b6c7a3d07c84196515fb8260405161076a91815260200190565b60405180910390a2505050565b6000670de0b6b3a7640000600554836001600160601b0316610799919061298c565b6107a391906129cd565b836001600160601b03161190505b92915050565b60405162461bcd60e51b815260206004820152602e60248201527f556e737570706f727465642063616c6c6261636b202d2041667465722041677260448201526d19595b595b9d08155c19185d195960921b60648201526060906084015b60405180910390fd5b60095460009062010000900460ff1661084157506007546001600160a01b031690565b50600090565b60405162461bcd60e51b815260206004820152602f60248201527f556e737570706f727465642063616c6c6261636b202d204265666f726520416760448201526e1c99595b595b9d0810dc99585d1959608a1b6064820152606090608401610815565b6001546060906001600160a01b031633146108d7576040516282b42960e81b815260040160405180910390fd5b60095462010000900460ff1615806108fe57506000600a541180156108fe5750600a544210155b1561091c576040516353df604760e11b815260040160405180910390fd5b600954610100900460ff1615610945576040516313d0ff5960e31b815260040160405180910390fd5b600154604051631fb6491d60e11b81526000916001600160a01b031690633f6c923a9061097890879087906004016129ef565b600060405180830381865afa158015610995573d6000803e3d6000fd5b505050506040513d6000823e601f3d908101601f191682016040526109bd9190810190612b18565b6060015190506109cd8186611d63565b83838080601f0160208091040260200160405190810160405280939291908181526020018383808284376000920191909152509298975050505050505050565b6003546001600160a01b03163314610a37576040516282b42960e81b815260040160405180910390fd5b600954610100900460ff16610a5f57604051636cd6020160e01b815260040160405180910390fd5b6009805461ff00191690556040517fccb628cfdf07f722839fc340242e45d26aee18985ead41688de611d7e08b17bf90600090a1565b6001546060906001600160a01b03163314610ac2576040516282b42960e81b815260040160405180910390fd5b610b006040518060400160405280601881526020017f616674657241677265656d656e745465726d696e61746564000000000000000081525061203f565b6000546001600160a01b038b81166201000090920416141580610b3157506002546001600160a01b038a8116911614155b15610b755782828080601f016020809104026020016040519081016040528093929190818152602001838380828437600092019190915250929350610f9092505050565b82828080601f0160208091040260200160405190810160405280939291908181526020018383808284376000920182905250600754600154604051631fb6491d60e11b81529697506001600160a01b0380831697600160a01b909304600b0b96509294509091169150633f6c923a90610bf2908790600401612735565b600060405180830381865afa158015610c0f573d6000803e3d6000fd5b505050506040513d6000823e601f3d908101601f19168201604052610c379190810190612b18565b6060015160095490915062010000900460ff16158015610c685750826001600160a01b0316816001600160a01b0316145b15610f8c57600454600054610c92916001600160a01b036201000090920482169130911687612082565b6009549094506301000000900460ff16610eb557600a5460065460009190610cca90600160401b90046001600160401b031642612979565b610cd49190612966565b610ce7906001600160601b03851661298c565b600654909150600090610d0c906001600160401b03166001600160601b03861661298c565b9050808210610d995760005460405163a9059cbb60e01b81526001600160a01b03858116600483015260248201849052620100009092049091169063a9059cbb906044016020604051808303816000875af1158015610d6f573d6000803e3d6000fd5b505050506040513d601f19601f82011682018060405250810190610d9391906129ab565b50610eb2565b6000546004546001600160a01b036201000090920482169163a9059cbb9116610dc28585612966565b6040516001600160e01b031960e085901b1681526001600160a01b03909216600483015260248201526044016020604051808303816000875af1158015610e0d573d6000803e3d6000fd5b505050506040513d601f19601f82011682018060405250810190610e3191906129ab565b5060005460405163a9059cbb60e01b81526001600160a01b03858116600483015260248201859052620100009092049091169063a9059cbb906044016020604051808303816000875af1158015610e8c573d6000803e3d6000fd5b505050506040513d601f19601f82011682018060405250810190610eb091906129ab565b505b50505b600980546000600a55600780546001600160a01b0390811690915563ffff00001990911662010000179091556003541615610f4957600354604051631ff0045b60e01b8152600060048201526001600160a01b0390911690631ff0045b90602401600060405180830381600087803b158015610f3057600080fd5b505af1158015610f44573d6000803e3d6000fd5b505050505b604051600b83900b81526001600160a01b038416907fc1e73fbcc0647788c9303b3c4ce3dcec2c36c97db01d1984b0a40a94906b59ca9060200160405180910390a25b5050505b9998505050505050505050565b600054610100900460ff1615808015610fbd5750600054600160ff909116105b80610fd75750303b158015610fd7575060005460ff166001145b61103a5760405162461bcd60e51b815260206004820152602e60248201527f496e697469616c697a61626c653a20636f6e747261637420697320616c72656160448201526d191e481a5b9a5d1a585b1a5e995960921b6064820152608401610815565b6000805460ff19166001179055801561105d576000805461ff0019166101001790555b6001600160a01b038c1661107057600080fd5b6001600160a01b038b1661108357600080fd5b6001600160a01b038a1661109657600080fd5b6001600160a01b0388166110a957600080fd5b670de0b6b3a7640000876001600160601b031610156110c757600080fd5b600086600b0b12156110d857600080fd5b6000856001600160401b0316116110ee57600080fd5b846001600160401b0316846001600160401b0316101561110d57600080fd5b6000826001600160401b03161161112357600080fd5b816001600160401b0316836001600160401b0316101561114257600080fd5b6000805462010000600160b01b031916620100006001600160a01b038f81169190910291909117909155600180546001600160a01b03199081168e8416179091556002805482168d8416179055600380549091168b83161790556001600160601b03888116600555908916600160a01b9188169190910217600455600680546001600160401b038781166fffffffffffffffffffffffffffffffff1990921691909117600160401b87831602176fffffffffffffffffffffffffffffffff16600160801b868316026001600160c01b031617600160c01b918516919091021790556009805462ff00ff191662010001179055801561127a576000805461ff0019169055604051600181527f7f26b83ff96e1f2b6a682f133852f6798a09c465da95921460cefb38474024989060200160405180910390a15b505050505050505050505050565b60405162461bcd60e51b815260206004820152603360248201527f556e737570706f727465642063616c6c6261636b202d20204265666f7265204160448201527219dc99595b595b9d0815195c9b5a5b985d1959606a1b6064820152606090608401610815565b600954610100900460ff1615611318576040516313d0ff5960e31b815260040160405180910390fd5b60095462010000900460ff16156113425760405163a3ddecbd60e01b815260040160405180910390fd5b600a544210156113655760405163635237c760e11b815260040160405180910390fd5b600454600054611389916001600160a01b03620100009092048216913091166121ab565b506009546301000000900460ff1661145557600054600754600654620100009092046001600160a01b039081169263a9059cbb92918216916113e4916001600160401b031690600160a01b90046001600160601b031661298c565b6040516001600160e01b031960e085901b1681526001600160a01b03909216600483015260248201526044016020604051808303816000875af115801561142f573d6000803e3d6000fd5b505050506040513d601f19601f8201168201806040525081019061145391906129ab565b505b6009805463ffff00001916620100009081179091556000600a819055600780546001600160a01b0390811691829055600154600254845460408051968752602087019052918316956339255d5b9591841694859463b4b333c6946114c3949390041691309060448101612c1e565b60408051601f19818403018152918152602080830180516001600160e01b031660e095861b179052815160008152908101918290529286901b6001600160e01b03191690526115189392509060248101612c52565b6000604051808303816000875af192505050801561155857506040513d6000823e601f3d908101601f191682016040526115559190810190612c88565b60015b1561155f57505b6003546001600160a01b0316156115cf57600354604051631ff0045b60e01b8152600060048201526001600160a01b0390911690631ff0045b90602401600060405180830381600087803b1580156115b657600080fd5b505af11580156115ca573d6000803e3d6000fd5b505050505b565b6003546001600160a01b031633146115fb576040516282b42960e81b815260040160405180910390fd5b600954610100900460ff1615611624576040516313d0ff5960e31b815260040160405180910390fd5b60095462010000900460ff16158061164b57506000600a5411801561164b5750600a544210155b15611669576040516353df604760e11b815260040160405180910390fd5b6009805461ff0019166101001790556007546001600160a01b03811690600160a01b9004600b0b600081131561174557600054600654620100009091046001600160a01b03169063a9059cbb9084906116d4906001600160401b03166001600160601b03861661298c565b6040516001600160e01b031960e085901b1681526001600160a01b03909216600483015260248201526044016020604051808303816000875af115801561171f573d6000803e3d6000fd5b505050506040513d601f19601f8201168201806040525081019061174391906129ab565b505b6009805463ffff00001916620100001790556000600a55600780546001600160a01b03908116909155604051600b83900b8152908316907f158e92cedeab5bf2cc4468c81568db06a563a372f96439402e9a92b4198adc03906020015b60405180910390a25050565b60405162461bcd60e51b815260206004820152602f60248201527f556e737570706f727465642063616c6c6261636b202d204265666f726520416760448201526e1c99595b595b9d081d5c19185d1959608a1b6064820152606090608401610815565b6008602052600090815260409020805461182a90612cc4565b80601f016020809104026020016040519081016040528092919081815260200182805461185690612cc4565b80156118a35780601f10611878576101008083540402835291602001916118a3565b820191906000526020600020905b81548152906001019060200180831161188657829003601f168201915b505050505081565b600954610100900460ff16156118d4576040516313d0ff5960e31b815260040160405180910390fd5b60095462010000900460ff166118fd57604051631b37398160e11b815260040160405180910390fd5b600a54158061190d5750600a5442105b1561192b5760405163635237c760e11b815260040160405180910390fd5b6007546001546002546000805460408051928352602083019052600160a01b8504600b0b946001600160a01b03908116948116936339255d5b939082169283926394229ecb9261198e9262010000900490911690889030908b9060448101612cfe565b60408051601f19818403018152918152602080830180516001600160e01b031660e095861b179052815160008152908101918290529286901b6001600160e01b03191690526119e39392509060248101612c52565b6000604051808303816000875af1925050508015611a2357506040513d6000823e601f3d908101601f19168201604052611a209190810190612c88565b60015b611b25576000546004546006546001600160a01b036201000090930483169263a9059cbb921690611a66906001600160401b03166001600160601b03871661298c565b6040516001600160e01b031960e085901b1681526001600160a01b03909216600483015260248201526044016020604051808303816000875af1158015611ab1573d6000803e3d6000fd5b505050506040513d601f19601f82011682018060405250810190611ad591906129ab565b50600780546001600160a01b039081169091556000600a55604051600b84900b8152908216907f42d967e995cf8754bd8d1c4edabe66753b6c0e6b03f4bef06bf5a3eb5fe360e4906020016117a2565b505050565b6001546060906001600160a01b03163314611b57576040516282b42960e81b815260040160405180910390fd5b600154604051631fb6491d60e11b815230916001600160a01b031690633f6c923a90611b8990879087906004016129ef565b600060405180830381865afa158015611ba6573d6000803e3d6000fd5b505050506040513d6000823e601f3d908101601f19168201604052611bce9190810190612b18565b606001516001600160a01b031614611bf95760405163019ec8b360e31b815260040160405180910390fd5b6007546009805462ff0000191690556006546001600160a01b03821691600160a01b9004600b0b90611c3b90600160401b90046001600160401b031642612979565b600a55600454604080516020601f8801819004810282018101909252868152611c9e926001600160a01b03169184919089908990819084018382808284376000920182905250546201000090046001600160a01b031695949392506122df915050565b6003549093506001600160a01b031615611d1257600354604051631ff0045b60e01b81526001600160a01b03848116600483015290911690631ff0045b90602401600060405180830381600087803b158015611cf957600080fd5b505af1158015611d0d573d6000803e3d6000fd5b505050505b604051600b82900b81526001600160a01b038316907f80b4922304eae1fa64e628db175f18ee543a12528075e254adfeb0160838f3ab9060200160405180910390a250509998505050505050505050565b600081600b0b13611d8757604051637f133f2160e11b815260040160405180910390fd5b600754611d9f908290600160a01b9004600b0b610777565b1580611dbb5750600454600160a01b9004600b90810b9082900b125b15611dd9576040516353a24db360e11b815260040160405180910390fd5b600780546001600160a01b038481166001600160601b038516600160a01b9081026001600160a01b0319811692909217909455600a54938304600b0b93908216919092161790600003611e4b57600654611e4390600160801b90046001600160401b031642612979565b600a55611e95565b600654600a54600160c01b9091046001600160401b031690611e6e904290612966565b1015611e9557600654611e9190600160c01b90046001600160401b031642612979565b600a555b600654600090611eb7906001600160401b03166001600160601b03861661298c565b6000546040516323b872dd60e01b81526001600160a01b0388811660048301523060248301526044820184905292935062010000909104909116906323b872dd906064016020604051808303816000875af1158015611f1a573d6000803e3d6000fd5b505050506040513d601f19601f82011682018060405250810190611f3e91906129ab565b5082600b0b600014611ff657600054600654620100009091046001600160a01b03169063a9059cbb908490611f85906001600160401b03166001600160601b03881661298c565b6040516001600160e01b031960e085901b1681526001600160a01b03909216600483015260248201526044016020604051808303816000875af1158015611fd0573d6000803e3d6000fd5b505050506040513d601f19601f82011682018060405250810190611ff491906129ab565b505b604051600b85900b81526001600160a01b038616907f441c29b7058c97d0ec2d7e8ef68437ba13a4911a56cf882c490b1cb5d2917b639060200160405180910390a25050505050565b610562816040516024016120539190612735565b60408051601f198184030181529190526020810180516001600160e01b031663104c13eb60e21b17905261236a565b60606000806120908761238b565b91509150816001600160a01b0316634329d29382836001600160a01b031663b4b333c68b8b8b60006001600160401b038111156120cf576120cf612a1e565b6040519080825280601f01601f1916602001820160405280156120f9576020820181803683370190505b5060405160240161210d9493929190612c1e565b60408051808303601f1901815291815260208201805160e094851b6001600160e01b03909116179052519185901b6001600160e01b0319168252612158939250908990600401612d47565b6000604051808303816000875af1158015612177573d6000803e3d6000fd5b505050506040513d6000823e601f3d908101601f1916820160405261219f9190810190612d9a565b50979650505050505050565b60008060006121b98661238b565b91509150816001600160a01b03166339255d5b82836001600160a01b031663b4b333c68a8a8a60006001600160401b038111156121f8576121f8612a1e565b6040519080825280601f01601f191660200182016040528015612222576020820181803683370190505b506040516024016122369493929190612c1e565b60408051601f19818403018152918152602080830180516001600160e01b031660e095861b179052815160008152908101918290529286901b6001600160e01b031916905261228b9392509060248101612c52565b6000604051808303816000875af11580156122aa573d6000803e3d6000fd5b505050506040513d6000823e601f3d908101601f191682016040526122d29190810190612c88565b5060019695505050505050565b60606000806122ed8761238b565b91509150816001600160a01b0316634329d29382836001600160a01b03166362fc305e8b8b8b60006001600160401b0381111561232c5761232c612a1e565b6040519080825280601f01601f191660200182016040528015612356576020820181803683370190505b5060405160240161210d9493929190612dfd565b80516a636f6e736f6c652e6c6f67602083016000808483855afa5050505050565b7f65599bf746e17a00ea62e3610586992d88101b78eec3cf380706621fb97ea837547fb969d79d88acd02d04ed7ee7d43b949e7daf093d363abcfbbc43dfdfd1ce969a546001600160a01b038116612521576001600160a01b03821661245057826001600160a01b03166320bc44256040518163ffffffff1660e01b8152600401602060405180830381865afa158015612429573d6000803e3d6000fd5b505050506040513d601f19601f8201168201806040525081019061244d9190612e33565b91505b604051635b69006f60e11b81527fa9214cc96615e0085d3bb077758db69497dc2dce3b2b1e97bc93c3d18d83efd360048201526001600160a01b0383169063b6d200de90602401602060405180830381865afa1580156124b4573d6000803e3d6000fd5b505050506040513d601f19601f820116820180604052508101906124d89190612e33565b9050817f65599bf746e17a00ea62e3610586992d88101b78eec3cf380706621fb97ea83755807fb969d79d88acd02d04ed7ee7d43b949e7daf093d363abcfbbc43dfdfd1ce969a555b6001600160a01b03821661253757612537612e50565b6001600160a01b03811661254d5761254d612e50565b915091565b8035600b81900b811461256457600080fd5b919050565b60006020828403121561257b57600080fd5b61258482612552565b9392505050565b6000806040838503121561259e57600080fd5b6125a783612552565b91506125b560208401612552565b90509250929050565b6001600160a01b038116811461056257600080fd5b60008083601f8401126125e557600080fd5b5081356001600160401b038111156125fc57600080fd5b60208301915083602082850101111561261457600080fd5b9250929050565b600080600080600080600080600060c08a8c03121561263957600080fd5b8935612644816125be565b985060208a0135612654816125be565b975060408a0135965060608a01356001600160401b038082111561267757600080fd5b6126838d838e016125d3565b909850965060808c013591508082111561269c57600080fd5b6126a88d838e016125d3565b909650945060a08c01359150808211156126c157600080fd5b506126ce8c828d016125d3565b915080935050809150509295985092959850929598565b60005b838110156127005781810151838201526020016126e8565b50506000910152565b600081518084526127218160208601602086016126e5565b601f01601f19169290920160200192915050565b6020815260006125846020830184612709565b600080600080600080600060a0888a03121561276357600080fd5b873561276e816125be565b9650602088013561277e816125be565b95506040880135945060608801356001600160401b03808211156127a157600080fd5b6127ad8b838c016125d3565b909650945060808a01359150808211156127c657600080fd5b506127d38a828b016125d3565b989b979a50959850939692959293505050565b6000806000604084860312156127fb57600080fd5b61280484612552565b925060208401356001600160401b0381111561281f57600080fd5b61282b868287016125d3565b9497909650939450505050565b80356001600160401b038116811461256457600080fd5b60008060008060008060008060008060006101608c8e03121561287157600080fd5b8b3561287c816125be565b9a5060208c013561288c816125be565b995060408c013561289c816125be565b985060608c01356128ac816125be565b975060808c01356128bc816125be565b965060a08c01356001600160601b03811681146128d857600080fd5b95506128e660c08d01612552565b94506128f460e08d01612838565b93506129036101008d01612838565b92506129126101208d01612838565b91506129216101408d01612838565b90509295989b509295989b9093969950565b60006020828403121561294557600080fd5b8135612584816125be565b634e487b7160e01b600052601160045260246000fd5b818103818111156107b1576107b1612950565b808201808211156107b1576107b1612950565b60008160001904831182151516156129a6576129a6612950565b500290565b6000602082840312156129bd57600080fd5b8151801515811461258457600080fd5b6000826129ea57634e487b7160e01b600052601260045260246000fd5b500490565b60208152816020820152818360408301376000818301604090810191909152601f909201601f19160101919050565b634e487b7160e01b600052604160045260246000fd5b60405161016081016001600160401b0381118282101715612a5757612a57612a1e565b60405290565b805160ff8116811461256457600080fd5b8051612564816125be565b80516001600160e01b03198116811461256457600080fd5b600082601f830112612aa257600080fd5b81516001600160401b0380821115612abc57612abc612a1e565b604051601f8301601f19908116603f01168101908282118183101715612ae457612ae4612a1e565b81604052838152866020858801011115612afd57600080fd5b612b0e8460208301602089016126e5565b9695505050505050565b600060208284031215612b2a57600080fd5b81516001600160401b0380821115612b4157600080fd5b908301906101608286031215612b5657600080fd5b612b5e612a34565b612b6783612a5d565b8152612b7560208401612a5d565b602082015260408301516040820152612b9060608401612a6e565b6060820152612ba160808401612a79565b608082015260a083015182811115612bb857600080fd5b612bc487828601612a91565b60a08301525060c083015160c082015260e083015160e0820152610100915081830151828201526101209150612bfb828401612a6e565b828201526101409150612c0f828401612a6e565b91810191909152949350505050565b6001600160a01b038581168252848116602083015283166040820152608060608201819052600090612b0e90830184612709565b6001600160a01b0384168152606060208201819052600090612c7690830185612709565b8281036040840152612b0e8185612709565b600060208284031215612c9a57600080fd5b81516001600160401b03811115612cb057600080fd5b612cbc84828501612a91565b949350505050565b600181811c90821680612cd857607f821691505b602082108103612cf857634e487b7160e01b600052602260045260246000fd5b50919050565b6001600160a01b038681168252858116602083015284166040820152600b83900b606082015260a060808201819052600090612d3c90830184612709565b979650505050505050565b6001600160a01b0384168152608060208201819052600090612d6b90830185612709565b8281038060408501526002825261060f60f31b602083015260408101606085015250612b0e6040820185612709565b60008060408385031215612dad57600080fd5b82516001600160401b0380821115612dc457600080fd5b612dd086838701612a91565b93506020850151915080821115612de657600080fd5b50612df385828601612a91565b9150509250929050565b6001600160a01b03858116825284166020820152600b83900b6040820152608060608201819052600090612b0e90830184612709565b600060208284031215612e4557600080fd5b8151612584816125be565b634e487b7160e01b600052600160045260246000fdfea2646970667358221220bf430aad707dc5da5eee072ddfc1d2cfa7800fd9883e56a1856c91158c3d250f64736f6c63430008100033",
    "linkReferences": {}
  },
  "methodIdentifiers": {
    "create((address,address,address,uint96,int96,uint64,uint64,uint64,uint64,bytes))": "d23711d4"
  },
  "id": 100
}