{
  "abi": [
    {
      "inputs": [
        {
          "internalType": "string",
          "name": "name_",
          "type": "string"
        },
        {
          "internalType": "string",
          "name": "symbol_",
          "type": "string"
        },
        {
          "internalType": "string",
          "name": "_baseURI",
          "type": "string"
        }
      ],
      "stateMutability": "nonpayable",
      "type": "constructor"
    },
    {
      "anonymous": false,
      "inputs": [
        {
          "indexed": true,
          "internalType": "address",
          "name": "owner",
          "type": "address"
        },
        {
          "indexed": true,
          "internalType": "address",
          "name": "approved",
          "type": "address"
        },
        {
          "indexed": true,
          "internalType": "uint256",
          "name": "tokenId",
          "type": "uint256"
        }
      ],
      "name": "Approval",
      "type": "event"
    },
    {
      "anonymous": false,
      "inputs": [
        {
          "indexed": true,
          "internalType": "address",
          "name": "owner",
          "type": "address"
        },
        {
          "indexed": true,
          "internalType": "address",
          "name": "operator",
          "type": "address"
        },
        {
          "indexed": false,
          "internalType": "bool",
          "name": "approved",
          "type": "bool"
        }
      ],
      "name": "ApprovalForAll",
      "type": "event"
    },
    {
      "anonymous": false,
      "inputs": [
        {
          "indexed": true,
          "internalType": "address",
          "name": "from",
          "type": "address"
        },
        {
          "indexed": true,
          "internalType": "address",
          "name": "to",
          "type": "address"
        },
        {
          "indexed": true,
          "internalType": "uint256",
          "name": "tokenId",
          "type": "uint256"
        }
      ],
      "name": "Transfer",
      "type": "event"
    },
    {
      "anonymous": false,
      "inputs": [
        {
          "indexed": true,
          "internalType": "uint256",
          "name": "tokenId",
          "type": "uint256"
        },
        {
          "indexed": true,
          "internalType": "address",
          "name": "user",
          "type": "address"
        },
        {
          "indexed": false,
          "internalType": "uint64",
          "name": "expires",
          "type": "uint64"
        }
      ],
      "name": "UpdateUser",
      "type": "event"
    },
    {
      "inputs": [
        {
          "internalType": "address",
          "name": "to",
          "type": "address"
        },
        {
          "internalType": "uint256",
          "name": "tokenId",
          "type": "uint256"
        }
      ],
      "name": "approve",
      "outputs": [],
      "stateMutability": "nonpayable",
      "type": "function"
    },
    {
      "inputs": [
        {
          "internalType": "address",
          "name": "owner",
          "type": "address"
        }
      ],
      "name": "balanceOf",
      "outputs": [
        {
          "internalType": "uint256",
          "name": "",
          "type": "uint256"
        }
      ],
      "stateMutability": "view",
      "type": "function"
    },
    {
      "inputs": [],
      "name": "baseURI",
      "outputs": [
        {
          "internalType": "string",
          "name": "",
          "type": "string"
        }
      ],
      "stateMutability": "view",
      "type": "function"
    },
    {
      "inputs": [
        {
          "internalType": "uint256",
          "name": "tokenId",
          "type": "uint256"
        }
      ],
      "name": "getApproved",
      "outputs": [
        {
          "internalType": "address",
          "name": "",
          "type": "address"
        }
      ],
      "stateMutability": "view",
      "type": "function"
    },
    {
      "inputs": [
        {
          "internalType": "address",
          "name": "owner",
          "type": "address"
        },
        {
          "internalType": "address",
          "name": "operator",
          "type": "address"
        }
      ],
      "name": "isApprovedForAll",
      "outputs": [
        {
          "internalType": "bool",
          "name": "",
          "type": "bool"
        }
      ],
      "stateMutability": "view",
      "type": "function"
    },
    {
      "inputs": [
        {
          "internalType": "uint256",
          "name": "tokenId",
          "type": "uint256"
        }
      ],
      "name": "mint",
      "outputs": [],
      "stateMutability": "nonpayable",
      "type": "function"
    },
    {
      "inputs": [],
      "name": "name",
      "outputs": [
        {
          "internalType": "string",
          "name": "",
          "type": "string"
        }
      ],
      "stateMutability": "view",
      "type": "function"
    },
    {
      "inputs": [
        {
          "internalType": "uint256",
          "name": "tokenId",
          "type": "uint256"
        }
      ],
      "name": "ownerOf",
      "outputs": [
        {
          "internalType": "address",
          "name": "",
          "type": "address"
        }
      ],
      "stateMutability": "view",
      "type": "function"
    },
    {
      "inputs": [
        {
          "internalType": "address",
          "name": "from",
          "type": "address"
        },
        {
          "internalType": "address",
          "name": "to",
          "type": "address"
        },
        {
          "internalType": "uint256",
          "name": "tokenId",
          "type": "uint256"
        }
      ],
      "name": "safeTransferFrom",
      "outputs": [],
      "stateMutability": "nonpayable",
      "type": "function"
    },
    {
      "inputs": [
        {
          "internalType": "address",
          "name": "from",
          "type": "address"
        },
        {
          "internalType": "address",
          "name": "to",
          "type": "address"
        },
        {
          "internalType": "uint256",
          "name": "tokenId",
          "type": "uint256"
        },
        {
          "internalType": "bytes",
          "name": "data",
          "type": "bytes"
        }
      ],
      "name": "safeTransferFrom",
      "outputs": [],
      "stateMutability": "nonpayable",
      "type": "function"
    },
    {
      "inputs": [
        {
          "internalType": "address",
          "name": "operator",
          "type": "address"
        },
        {
          "internalType": "bool",
          "name": "approved",
          "type": "bool"
        }
      ],
      "name": "setApprovalForAll",
      "outputs": [],
      "stateMutability": "nonpayable",
      "type": "function"
    },
    {
      "inputs": [
        {
          "internalType": "uint256",
          "name": "tokenId",
          "type": "uint256"
        },
        {
          "internalType": "address",
          "name": "user",
          "type": "address"
        },
        {
          "internalType": "uint64",
          "name": "expires",
          "type": "uint64"
        }
      ],
      "name": "setUser",
      "outputs": [],
      "stateMutability": "nonpayable",
      "type": "function"
    },
    {
      "inputs": [
        {
          "internalType": "bytes4",
          "name": "interfaceId",
          "type": "bytes4"
        }
      ],
      "name": "supportsInterface",
      "outputs": [
        {
          "internalType": "bool",
          "name": "",
          "type": "bool"
        }
      ],
      "stateMutability": "view",
      "type": "function"
    },
    {
      "inputs": [],
      "name": "symbol",
      "outputs": [
        {
          "internalType": "string",
          "name": "",
          "type": "string"
        }
      ],
      "stateMutability": "view",
      "type": "function"
    },
    {
      "inputs": [
        {
          "internalType": "uint256",
          "name": "",
          "type": "uint256"
        }
      ],
      "name": "tokenURI",
      "outputs": [
        {
          "internalType": "string",
          "name": "",
          "type": "string"
        }
      ],
      "stateMutability": "view",
      "type": "function"
    },
    {
      "inputs": [
        {
          "internalType": "address",
          "name": "from",
          "type": "address"
        },
        {
          "internalType": "address",
          "name": "to",
          "type": "address"
        },
        {
          "internalType": "uint256",
          "name": "tokenId",
          "type": "uint256"
        }
      ],
      "name": "transferFrom",
      "outputs": [],
      "stateMutability": "nonpayable",
      "type": "function"
    },
    {
      "inputs": [
        {
          "internalType": "uint256",
          "name": "tokenId",
          "type": "uint256"
        }
      ],
      "name": "userExpires",
      "outputs": [
        {
          "internalType": "uint256",
          "name": "",
          "type": "uint256"
        }
      ],
      "stateMutability": "view",
      "type": "function"
    },
    {
      "inputs": [
        {
          "internalType": "uint256",
          "name": "tokenId",
          "type": "uint256"
        }
      ],
      "name": "userOf",
      "outputs": [
        {
          "internalType": "address",
          "name": "",
          "type": "address"
        }
      ],
      "stateMutability": "view",
      "type": "function"
    }
  ],
  "bytecode": {
    "object": "0x60806040523480156200001157600080fd5b50604051620018e1380380620018e1833981016040819052620000349162000135565b8282600062000044838262000255565b50600162000053828262000255565b5060079150620000669050828262000255565b5050505062000321565b634e487b7160e01b600052604160045260246000fd5b600082601f8301126200009857600080fd5b81516001600160401b0380821115620000b557620000b562000070565b604051601f8301601f19908116603f01168101908282118183101715620000e057620000e062000070565b81604052838152602092508683858801011115620000fd57600080fd5b600091505b8382101562000121578582018301518183018401529082019062000102565b600093810190920192909252949350505050565b6000806000606084860312156200014b57600080fd5b83516001600160401b03808211156200016357600080fd5b620001718783880162000086565b945060208601519150808211156200018857600080fd5b620001968783880162000086565b93506040860151915080821115620001ad57600080fd5b50620001bc8682870162000086565b9150509250925092565b600181811c90821680620001db57607f821691505b602082108103620001fc57634e487b7160e01b600052602260045260246000fd5b50919050565b601f8211156200025057600081815260208120601f850160051c810160208610156200022b5750805b601f850160051c820191505b818110156200024c5782815560010162000237565b5050505b505050565b81516001600160401b0381111562000271576200027162000070565b6200028981620002828454620001c6565b8462000202565b602080601f831160018114620002c15760008415620002a85750858301515b600019600386901b1c1916600185901b1785556200024c565b600085815260208120601f198616915b82811015620002f257888601518255948401946001909101908401620002d1565b5085821015620003115787850151600019600388901b60f8161c191681555b5050505050600190811b01905550565b6115b080620003316000396000f3fe608060405234801561001057600080fd5b50600436106101165760003560e01c80638fc88c48116100a2578063b88d4fde11610071578063b88d4fde14610259578063c2f1f14a1461026c578063c87b56dd1461027f578063e030565e14610292578063e985e9c5146102a557600080fd5b80638fc88c48146101fa57806395d89b411461022b578063a0712d6814610233578063a22cb4651461024657600080fd5b806323b872dd116100e957806323b872dd1461019857806342842e0e146101ab5780636352211e146101be5780636c0360eb146101d157806370a08231146101d957600080fd5b806301ffc9a71461011b57806306fdde0314610143578063081812fc14610158578063095ea7b314610183575b600080fd5b61012e6101293660046110ea565b6102b8565b60405190151581526020015b60405180910390f35b61014b610319565b60405161013a9190611154565b61016b610166366004611167565b610328565b6040516001600160a01b03909116815260200161013a565b610196610191366004611197565b61034f565b005b6101966101a63660046111c1565b610469565b6101966101b93660046111c1565b61049a565b61016b6101cc366004611167565b6104b5565b61014b610515565b6101ec6101e73660046111fd565b6105a3565b60405190815260200161013a565b6101ec610208366004611167565b600090815260066020526040902054600160a01b900467ffffffffffffffff1690565b61014b610629565b610196610241366004611167565b610633565b610196610254366004611218565b610640565b61019661026736600461126a565b61064f565b61016b61027a366004611167565b610687565b61014b61028d366004611167565b6106d7565b6101966102a0366004611346565b61076b565b61012e6102b3366004611393565b61085e565b60006001600160e01b03198216632b424ad760e21b14806102e957506001600160e01b03198216635b5e139f60e01b145b8061030457506001600160e01b03198216635b5e139f60e01b145b8061031357506103138261088c565b92915050565b60606103236108dc565b905090565b60006103338261096e565b506000908152600460205260409020546001600160a01b031690565b600061035a826104b5565b9050806001600160a01b0316836001600160a01b0316036103cc5760405162461bcd60e51b815260206004820152602160248201527f4552433732313a20617070726f76616c20746f2063757272656e74206f776e656044820152603960f91b60648201526084015b60405180910390fd5b336001600160a01b03821614806103e857506103e8813361085e565b61045a5760405162461bcd60e51b815260206004820152603d60248201527f4552433732313a20617070726f76652063616c6c6572206973206e6f7420746f60448201527f6b656e206f776e6572206f7220617070726f76656420666f7220616c6c00000060648201526084016103c3565b61046483836109cd565b505050565b6104733382610a3b565b61048f5760405162461bcd60e51b81526004016103c3906113c6565b610464838383610a9a565b6104648383836040518060200160405280600081525061064f565b6000818152600260205260408120546001600160a01b0316806103135760405162461bcd60e51b8152602060048201526018602482015277115490cdcc8c4e881a5b9d985b1a59081d1bdad95b88125160421b60448201526064016103c3565b6007805461052290611413565b80601f016020809104026020016040519081016040528092919081815260200182805461054e90611413565b801561059b5780601f106105705761010080835404028352916020019161059b565b820191906000526020600020905b81548152906001019060200180831161057e57829003601f168201915b505050505081565b60006001600160a01b03821661060d5760405162461bcd60e51b815260206004820152602960248201527f4552433732313a2061646472657373207a65726f206973206e6f7420612076616044820152683634b21037bbb732b960b91b60648201526084016103c3565b506001600160a01b031660009081526003602052604090205490565b6060610323610c0b565b61063d3382610c1a565b50565b61064b338383610db3565b5050565b6106593383610a3b565b6106755760405162461bcd60e51b81526004016103c3906113c6565b61068184848484610e81565b50505050565b60008181526006602052604081205442600160a01b90910467ffffffffffffffff16106106ca57506000908152600660205260409020546001600160a01b031690565b506000919050565b919050565b6060600780546106e690611413565b80601f016020809104026020016040519081016040528092919081815260200182805461071290611413565b801561075f5780601f106107345761010080835404028352916020019161075f565b820191906000526020600020905b81548152906001019060200180831161074257829003601f168201915b50505050509050919050565b6107753384610a3b565b6107dc5760405162461bcd60e51b815260206004820152603260248201527f455243343930373a207472616e736665722063616c6c6572206973206e6f74206044820152711bdddb995c881b9bdc88185c1c1c9bdd995960721b60648201526084016103c3565b60008381526006602090815260409182902080546001600160a01b0386166001600160e01b03199091168117600160a01b67ffffffffffffffff871690810291909117835593519384529092909186917f4e06b4e7000e659094299b3533b47b6aa8ad048e95e872d23d1f4ee55af89cfe91015b60405180910390a350505050565b6001600160a01b03918216600090815260056020908152604080832093909416825291909152205460ff1690565b60006001600160e01b031982166380ac58cd60e01b14806108bd57506001600160e01b03198216635b5e139f60e01b145b8061031357506301ffc9a760e01b6001600160e01b0319831614610313565b6060600080546108eb90611413565b80601f016020809104026020016040519081016040528092919081815260200182805461091790611413565b80156109645780601f1061093957610100808354040283529160200191610964565b820191906000526020600020905b81548152906001019060200180831161094757829003601f168201915b5050505050905090565b6000818152600260205260409020546001600160a01b031661063d5760405162461bcd60e51b8152602060048201526018602482015277115490cdcc8c4e881a5b9d985b1a59081d1bdad95b88125160421b60448201526064016103c3565b600081815260046020526040902080546001600160a01b0319166001600160a01b0384169081179091558190610a02826104b5565b6001600160a01b03167f8c5be1e5ebec7d5bd14f71427d1e84f3dd0314c0f7b2291e5b200ac8c7c3b92560405160405180910390a45050565b600080610a47836104b5565b9050806001600160a01b0316846001600160a01b03161480610a6e5750610a6e818561085e565b80610a925750836001600160a01b0316610a8784610328565b6001600160a01b0316145b949350505050565b826001600160a01b0316610aad826104b5565b6001600160a01b031614610ad35760405162461bcd60e51b81526004016103c39061144d565b6001600160a01b038216610b355760405162461bcd60e51b8152602060048201526024808201527f4552433732313a207472616e7366657220746f20746865207a65726f206164646044820152637265737360e01b60648201526084016103c3565b610b428383836001610eb4565b826001600160a01b0316610b55826104b5565b6001600160a01b031614610b7b5760405162461bcd60e51b81526004016103c39061144d565b600081815260046020908152604080832080546001600160a01b03199081169091556001600160a01b0387811680865260038552838620805460001901905590871680865283862080546001019055868652600290945282852080549092168417909155905184937fddf252ad1be2c89b69c2b068fc378daa952ba7f163c4a11628f55a4df523b3ef91a4505050565b6060600180546108eb90611413565b6001600160a01b038216610c705760405162461bcd60e51b815260206004820181905260248201527f4552433732313a206d696e7420746f20746865207a65726f206164647265737360448201526064016103c3565b6000818152600260205260409020546001600160a01b031615610cd55760405162461bcd60e51b815260206004820152601c60248201527f4552433732313a20746f6b656e20616c7265616479206d696e7465640000000060448201526064016103c3565b610ce3600083836001610eb4565b6000818152600260205260409020546001600160a01b031615610d485760405162461bcd60e51b815260206004820152601c60248201527f4552433732313a20746f6b656e20616c7265616479206d696e7465640000000060448201526064016103c3565b6001600160a01b038216600081815260036020908152604080832080546001019055848352600290915280822080546001600160a01b0319168417905551839291907fddf252ad1be2c89b69c2b068fc378daa952ba7f163c4a11628f55a4df523b3ef908290a45050565b816001600160a01b0316836001600160a01b031603610e145760405162461bcd60e51b815260206004820152601960248201527f4552433732313a20617070726f766520746f2063616c6c65720000000000000060448201526064016103c3565b6001600160a01b03838116600081815260056020908152604080832094871680845294825291829020805460ff191686151590811790915591519182527f17307eab39ab6107e8899845ad3d59bd9653f200f220920489ca2b5937696c31910160405180910390a3505050565b610e8c848484610a9a565b610e9884848484610f4b565b6106815760405162461bcd60e51b81526004016103c390611492565b610ec1848484600061104c565b826001600160a01b0316846001600160a01b031614158015610ef957506000828152600660205260409020546001600160a01b031615155b1561068157600082815260066020908152604080832080546001600160e01b03191690555182815284917f4e06b4e7000e659094299b3533b47b6aa8ad048e95e872d23d1f4ee55af89cfe9101610850565b60006001600160a01b0384163b1561104157604051630a85bd0160e11b81526001600160a01b0385169063150b7a0290610f8f9033908990889088906004016114e4565b6020604051808303816000875af1925050508015610fca575060408051601f3d908101601f19168201909252610fc791810190611521565b60015b611027573d808015610ff8576040519150601f19603f3d011682016040523d82523d6000602084013e610ffd565b606091505b50805160000361101f5760405162461bcd60e51b81526004016103c390611492565b805181602001fd5b6001600160e01b031916630a85bd0160e11b149050610a92565b506001949350505050565b6001811115610681576001600160a01b03841615611092576001600160a01b0384166000908152600360205260408120805483929061108c908490611554565b90915550505b6001600160a01b03831615610681576001600160a01b038316600090815260036020526040812080548392906110c9908490611567565b909155505050505050565b6001600160e01b03198116811461063d57600080fd5b6000602082840312156110fc57600080fd5b8135611107816110d4565b9392505050565b6000815180845260005b8181101561113457602081850181015186830182015201611118565b506000602082860101526020601f19601f83011685010191505092915050565b602081526000611107602083018461110e565b60006020828403121561117957600080fd5b5035919050565b80356001600160a01b03811681146106d257600080fd5b600080604083850312156111aa57600080fd5b6111b383611180565b946020939093013593505050565b6000806000606084860312156111d657600080fd5b6111df84611180565b92506111ed60208501611180565b9150604084013590509250925092565b60006020828403121561120f57600080fd5b61110782611180565b6000806040838503121561122b57600080fd5b61123483611180565b91506020830135801515811461124957600080fd5b809150509250929050565b634e487b7160e01b600052604160045260246000fd5b6000806000806080858703121561128057600080fd5b61128985611180565b935061129760208601611180565b925060408501359150606085013567ffffffffffffffff808211156112bb57600080fd5b818701915087601f8301126112cf57600080fd5b8135818111156112e1576112e1611254565b604051601f8201601f19908116603f0116810190838211818310171561130957611309611254565b816040528281528a602084870101111561132257600080fd5b82602086016020830137600060208483010152809550505050505092959194509250565b60008060006060848603121561135b57600080fd5b8335925061136b60208501611180565b9150604084013567ffffffffffffffff8116811461138857600080fd5b809150509250925092565b600080604083850312156113a657600080fd5b6113af83611180565b91506113bd60208401611180565b90509250929050565b6020808252602d908201527f4552433732313a2063616c6c6572206973206e6f7420746f6b656e206f776e6560408201526c1c881bdc88185c1c1c9bdd9959609a1b606082015260800190565b600181811c9082168061142757607f821691505b60208210810361144757634e487b7160e01b600052602260045260246000fd5b50919050565b60208082526025908201527f4552433732313a207472616e736665722066726f6d20696e636f72726563742060408201526437bbb732b960d91b606082015260800190565b60208082526032908201527f4552433732313a207472616e7366657220746f206e6f6e20455243373231526560408201527131b2b4bb32b91034b6b83632b6b2b73a32b960711b606082015260800190565b6001600160a01b03858116825284166020820152604081018390526080606082018190526000906115179083018461110e565b9695505050505050565b60006020828403121561153357600080fd5b8151611107816110d4565b634e487b7160e01b600052601160045260246000fd5b818103818111156103135761031361153e565b808201808211156103135761031361153e56fea2646970667358221220a06e076028c75631b066a5f45e5fe6a70997e59859ca391572a63a3cda726add64736f6c63430008100033",
    "linkReferences": {}
  },
  "methodIdentifiers": {
    "approve(address,uint256)": "095ea7b3",
    "balanceOf(address)": "70a08231",
    "baseURI()": "6c0360eb",
    "getApproved(uint256)": "081812fc",
    "isApprovedForAll(address,address)": "e985e9c5",
    "mint(uint256)": "a0712d68",
    "name()": "06fdde03",
    "ownerOf(uint256)": "6352211e",
    "safeTransferFrom(address,address,uint256)": "42842e0e",
    "safeTransferFrom(address,address,uint256,bytes)": "b88d4fde",
    "setApprovalForAll(address,bool)": "a22cb465",
    "setUser(uint256,address,uint64)": "e030565e",
    "supportsInterface(bytes4)": "01ffc9a7",
    "symbol()": "95d89b41",
    "tokenURI(uint256)": "c87b56dd",
    "transferFrom(address,address,uint256)": "23b872dd",
    "userExpires(uint256)": "8fc88c48",
    "userOf(uint256)": "c2f1f14a"
  },
  "id": 50
}