{
  "abi": [
    {
      "inputs": [],
      "name": "TokenNotOwned",
      "type": "error"
    },
    {
      "inputs": [],
      "name": "Unauthorized",
      "type": "error"
    },
    {
      "anonymous": false,
      "inputs": [],
      "name": "AuctionStarted",
      "type": "event"
    },
    {
      "anonymous": false,
      "inputs": [],
      "name": "AuctionStopped",
      "type": "event"
    },
    {
      "anonymous": false,
      "inputs": [
        {
          "indexed": false,
          "internalType": "uint8",
          "name": "version",
          "type": "uint8"
        }
      ],
      "name": "Initialized",
      "type": "event"
    },
    {
      "anonymous": false,
      "inputs": [
        {
          "indexed": true,
          "internalType": "address",
          "name": "previousOwner",
          "type": "address"
        },
        {
          "indexed": true,
          "internalType": "address",
          "name": "newOwner",
          "type": "address"
        }
      ],
      "name": "OwnershipTransferred",
      "type": "event"
    },
    {
      "inputs": [
        {
          "internalType": "contract IRentalAuction",
          "name": "_rentalAuction",
          "type": "address"
        },
        {
          "internalType": "bytes",
          "name": "extraArgs",
          "type": "bytes"
        }
      ],
      "name": "initialize",
      "outputs": [],
      "stateMutability": "nonpayable",
      "type": "function"
    },
    {
      "inputs": [],
      "name": "metadata",
      "outputs": [
        {
          "internalType": "string",
          "name": "",
          "type": "string"
        }
      ],
      "stateMutability": "view",
      "type": "function"
    },
    {
      "inputs": [
        {
          "internalType": "address",
          "name": "newRenter",
          "type": "address"
        }
      ],
      "name": "onRenterChanged",
      "outputs": [],
      "stateMutability": "pure",
      "type": "function"
    },
    {
      "inputs": [],
      "name": "owner",
      "outputs": [
        {
          "internalType": "address",
          "name": "",
          "type": "address"
        }
      ],
      "stateMutability": "view",
      "type": "function"
    },
    {
      "inputs": [
        {
          "components": [
            {
              "internalType": "uint256",
              "name": "profileId",
              "type": "uint256"
            },
            {
              "internalType": "string",
              "name": "contentURI",
              "type": "string"
            },
            {
              "internalType": "address",
              "name": "collectModule",
              "type": "address"
            },
            {
              "internalType": "bytes",
              "name": "collectModuleInitData",
              "type": "bytes"
            },
            {
              "internalType": "address",
              "name": "referenceModule",
              "type": "address"
            },
            {
              "internalType": "bytes",
              "name": "referenceModuleInitData",
              "type": "bytes"
            }
          ],
          "internalType": "struct LensDataTypes.PostData",
          "name": "postData",
          "type": "tuple"
        }
      ],
      "name": "post",
      "outputs": [],
      "stateMutability": "nonpayable",
      "type": "function"
    },
    {
      "inputs": [],
      "name": "renounceOwnership",
      "outputs": [],
      "stateMutability": "nonpayable",
      "type": "function"
    },
    {
      "inputs": [],
      "name": "rentalAuction",
      "outputs": [
        {
          "internalType": "contract IRentalAuction",
          "name": "",
          "type": "address"
        }
      ],
      "stateMutability": "view",
      "type": "function"
    },
    {
      "inputs": [],
      "name": "startAuction",
      "outputs": [],
      "stateMutability": "nonpayable",
      "type": "function"
    },
    {
      "inputs": [],
      "name": "stopAuction",
      "outputs": [],
      "stateMutability": "nonpayable",
      "type": "function"
    },
    {
      "inputs": [],
      "name": "tokenId",
      "outputs": [
        {
          "internalType": "uint256",
          "name": "",
          "type": "uint256"
        }
      ],
      "stateMutability": "view",
      "type": "function"
    },
    {
      "inputs": [
        {
          "internalType": "address",
          "name": "newOwner",
          "type": "address"
        }
      ],
      "name": "transferOwnership",
      "outputs": [],
      "stateMutability": "nonpayable",
      "type": "function"
    }
  ],
  "bytecode": {
    "object": "0x608060405234801561001057600080fd5b50610cd6806100206000396000f3fe608060405234801561001057600080fd5b50600436106100a95760003560e01c80636b64c769116100715780636b64c76914610125578063715018a61461012d5780638da5cb5b14610135578063963ff14114610146578063d1f5789414610159578063f2fde38b1461016c57600080fd5b8063062cef90146100ae57806317d70f7c146100de5780631ff0045b146100f5578063269b9a0814610108578063392f37e914610110575b600080fd5b6066546100c1906001600160a01b031681565b6040516001600160a01b0390911681526020015b60405180910390f35b6100e760655481565b6040519081526020016100d5565b6101066101033660046108d0565b50565b005b61010661017f565b6101186102ba565b6040516100d59190610918565b610106610343565b61010661046d565b6033546001600160a01b03166100c1565b61010661015436600461094b565b610481565b610106610167366004610986565b6105a6565b61010661017a3660046108d0565b61073f565b6101876107b5565b606660009054906101000a90046001600160a01b03166001600160a01b0316638456cb596040518163ffffffff1660e01b8152600401600060405180830381600087803b1580156101d757600080fd5b505af11580156101eb573d6000803e3d6000fd5b505050507360ae865ee4c725cd04353b5aab364553f56cef826001600160a01b03166323b872dd306102256033546001600160a01b031690565b6065546040516001600160e01b031960e086901b1681526001600160a01b0393841660048201529290911660248301526044820152606401600060405180830381600087803b15801561027757600080fd5b505af115801561028b573d6000803e3d6000fd5b50506040517f2c05c19d8864cba32c224a5f7f2bf079cd0173b94590e281a6f1ac97b6846931925060009150a1565b60655460405163c87b56dd60e01b81526060917360ae865ee4c725cd04353b5aab364553f56cef829163c87b56dd916102f99160040190815260200190565b600060405180830381865afa158015610316573d6000803e3d6000fd5b505050506040513d6000823e601f3d908101601f1916820160405261033e9190810190610a21565b905090565b61034b6107b5565b606660009054906101000a90046001600160a01b03166001600160a01b0316633f4ba83a6040518163ffffffff1660e01b8152600401600060405180830381600087803b15801561039b57600080fd5b505af11580156103af573d6000803e3d6000fd5b50506033547360ae865ee4c725cd04353b5aab364553f56cef8292506323b872dd91506001600160a01b03166065546040516001600160e01b031960e085901b1681526001600160a01b0390921660048301523060248301526044820152606401600060405180830381600087803b15801561042a57600080fd5b505af115801561043e573d6000803e3d6000fd5b50506040517fc8f99b9ac2a284b93c3652b9f064a6706724088cdafa9e0a8437c026191b2f03925060009150a1565b6104756107b5565b61047f600061080f565b565b606660009054906101000a90046001600160a01b03166001600160a01b031663242f17a96040518163ffffffff1660e01b8152600401602060405180830381865afa1580156104d4573d6000803e3d6000fd5b505050506040513d601f19601f820116820180604052508101906104f89190610ace565b6001600160a01b0316336001600160a01b031614610528576040516282b42960e81b815260040160405180910390fd5b60405163963ff14160e01b81527360ae865ee4c725cd04353b5aab364553f56cef829063963ff1419061055f908490600401610b61565b6020604051808303816000875af115801561057e573d6000803e3d6000fd5b505050506040513d601f19601f820116820180604052508101906105a29190610c23565b5050565b600054610100900460ff16158080156105c65750600054600160ff909116105b806105e05750303b1580156105e0575060005460ff166001145b6106485760405162461bcd60e51b815260206004820152602e60248201527f496e697469616c697a61626c653a20636f6e747261637420697320616c72656160448201526d191e481a5b9a5d1a585b1a5e995960921b60648201526084015b60405180910390fd5b6000805460ff19166001179055801561066b576000805461ff0019166101001790555b610673610861565b606680546001600160a01b0319166001600160a01b03861617905561069a83830184610c3c565b606581905550836001600160a01b0316638456cb596040518163ffffffff1660e01b8152600401600060405180830381600087803b1580156106db57600080fd5b505af11580156106ef573d6000803e3d6000fd5b505050508015610739576000805461ff0019169055604051600181527f7f26b83ff96e1f2b6a682f133852f6798a09c465da95921460cefb38474024989060200160405180910390a15b50505050565b6107476107b5565b6001600160a01b0381166107ac5760405162461bcd60e51b815260206004820152602660248201527f4f776e61626c653a206e6577206f776e657220697320746865207a65726f206160448201526564647265737360d01b606482015260840161063f565b6101038161080f565b6033546001600160a01b0316331461047f5760405162461bcd60e51b815260206004820181905260248201527f4f776e61626c653a2063616c6c6572206973206e6f7420746865206f776e6572604482015260640161063f565b603380546001600160a01b038381166001600160a01b0319831681179093556040519116919082907f8be0079c531659141344cd1fd0a4f28419497f9722a3daafe3b4186f6b6457e090600090a35050565b600054610100900460ff166108885760405162461bcd60e51b815260040161063f90610c55565b61047f600054610100900460ff166108b25760405162461bcd60e51b815260040161063f90610c55565b61047f3361080f565b6001600160a01b038116811461010357600080fd5b6000602082840312156108e257600080fd5b81356108ed816108bb565b9392505050565b60005b8381101561090f5781810151838201526020016108f7565b50506000910152565b60208152600082518060208401526109378160408501602087016108f4565b601f01601f19169190910160400192915050565b60006020828403121561095d57600080fd5b813567ffffffffffffffff81111561097457600080fd5b820160c081850312156108ed57600080fd5b60008060006040848603121561099b57600080fd5b83356109a6816108bb565b9250602084013567ffffffffffffffff808211156109c357600080fd5b818601915086601f8301126109d757600080fd5b8135818111156109e657600080fd5b8760208285010111156109f857600080fd5b6020830194508093505050509250925092565b634e487b7160e01b600052604160045260246000fd5b600060208284031215610a3357600080fd5b815167ffffffffffffffff80821115610a4b57600080fd5b818401915084601f830112610a5f57600080fd5b815181811115610a7157610a71610a0b565b604051601f8201601f19908116603f01168101908382118183101715610a9957610a99610a0b565b81604052828152876020848701011115610ab257600080fd5b610ac38360208301602088016108f4565b979650505050505050565b600060208284031215610ae057600080fd5b81516108ed816108bb565b6000808335601e19843603018112610b0257600080fd5b830160208101925035905067ffffffffffffffff811115610b2257600080fd5b803603821315610b3157600080fd5b9250929050565b81835281816020850137506000828201602090810191909152601f909101601f19169091010190565b60208152813560208201526000610b7b6020840184610aeb565b60c06040850152610b9060e085018284610b38565b9150506040840135610ba1816108bb565b60018060a01b038082166060860152610bbd6060870187610aeb565b9250601f1980878603016080880152610bd7858584610b38565b945060808801359350610be9846108bb565b82841660a0880152610bfe60a0890189610aeb565b94509250808786030160c08801525050610c19838383610b38565b9695505050505050565b600060208284031215610c3557600080fd5b5051919050565b600060208284031215610c4e57600080fd5b5035919050565b6020808252602b908201527f496e697469616c697a61626c653a20636f6e7472616374206973206e6f74206960408201526a6e697469616c697a696e6760a81b60608201526080019056fea264697066735822122094bf7976480c7983b6183c022f11911dcdf8ea2d07b77c64dbfc9bb9e50e6b8d64736f6c63430008100033",
    "linkReferences": {}
  },
  "methodIdentifiers": {
    "initialize(address,bytes)": "d1f57894",
    "metadata()": "392f37e9",
    "onRenterChanged(address)": "1ff0045b",
    "owner()": "8da5cb5b",
    "post((uint256,string,address,bytes,address,bytes))": "963ff141",
    "renounceOwnership()": "715018a6",
    "rentalAuction()": "062cef90",
    "startAuction()": "6b64c769",
    "stopAuction()": "269b9a08",
    "tokenId()": "17d70f7c",
    "transferOwnership(address)": "f2fde38b"
  },
  "id": 113
}